{
  "address": "0x5f3f1dBD7B74C6B46e8c44f98792A1dAf8d69154",
  "abi": [
    {
      "inputs": [
        {
          "internalType": "contract IPool",
          "name": "pool",
          "type": "address"
        }
      ],
      "stateMutability": "nonpayable",
      "type": "constructor"
    },
    {
      "anonymous": false,
      "inputs": [
        {
          "indexed": true,
          "internalType": "address",
          "name": "owner",
          "type": "address"
        },
        {
          "indexed": true,
          "internalType": "address",
          "name": "spender",
          "type": "address"
        },
        {
          "indexed": false,
          "internalType": "uint256",
          "name": "value",
          "type": "uint256"
        }
      ],
      "name": "Approval",
      "type": "event"
    },
    {
      "anonymous": false,
      "inputs": [
        {
          "indexed": true,
          "internalType": "address",
          "name": "from",
          "type": "address"
        },
        {
          "indexed": true,
          "internalType": "address",
          "name": "to",
          "type": "address"
        },
        {
          "indexed": false,
          "internalType": "uint256",
          "name": "value",
          "type": "uint256"
        },
        {
          "indexed": false,
          "internalType": "uint256",
          "name": "index",
          "type": "uint256"
        }
      ],
      "name": "BalanceTransfer",
      "type": "event"
    },
    {
      "anonymous": false,
      "inputs": [
        {
          "indexed": true,
          "internalType": "address",
          "name": "from",
          "type": "address"
        },
        {
          "indexed": true,
          "internalType": "address",
          "name": "target",
          "type": "address"
        },
        {
          "indexed": false,
          "internalType": "uint256",
          "name": "value",
          "type": "uint256"
        },
        {
          "indexed": false,
          "internalType": "uint256",
          "name": "balanceIncrease",
          "type": "uint256"
        },
        {
          "indexed": false,
          "internalType": "uint256",
          "name": "index",
          "type": "uint256"
        }
      ],
      "name": "Burn",
      "type": "event"
    },
    {
      "anonymous": false,
      "inputs": [
        {
          "indexed": true,
          "internalType": "address",
          "name": "underlyingAsset",
          "type": "address"
        },
        {
          "indexed": true,
          "internalType": "address",
          "name": "pool",
          "type": "address"
        },
        {
          "indexed": false,
          "internalType": "address",
          "name": "treasury",
          "type": "address"
        },
        {
          "indexed": false,
          "internalType": "address",
          "name": "incentivesController",
          "type": "address"
        },
        {
          "indexed": false,
          "internalType": "uint8",
          "name": "bTokenDecimals",
          "type": "uint8"
        },
        {
          "indexed": false,
          "internalType": "string",
          "name": "bTokenName",
          "type": "string"
        },
        {
          "indexed": false,
          "internalType": "string",
          "name": "bTokenSymbol",
          "type": "string"
        },
        {
          "indexed": false,
          "internalType": "bytes",
          "name": "params",
          "type": "bytes"
        }
      ],
      "name": "Initialized",
      "type": "event"
    },
    {
      "anonymous": false,
      "inputs": [
        {
          "indexed": true,
          "internalType": "address",
          "name": "caller",
          "type": "address"
        },
        {
          "indexed": true,
          "internalType": "address",
          "name": "onBehalfOf",
          "type": "address"
        },
        {
          "indexed": false,
          "internalType": "uint256",
          "name": "value",
          "type": "uint256"
        },
        {
          "indexed": false,
          "internalType": "uint256",
          "name": "balanceIncrease",
          "type": "uint256"
        },
        {
          "indexed": false,
          "internalType": "uint256",
          "name": "index",
          "type": "uint256"
        }
      ],
      "name": "Mint",
      "type": "event"
    },
    {
      "anonymous": false,
      "inputs": [
        {
          "indexed": true,
          "internalType": "address",
          "name": "from",
          "type": "address"
        },
        {
          "indexed": true,
          "internalType": "address",
          "name": "to",
          "type": "address"
        },
        {
          "indexed": false,
          "internalType": "uint256",
          "name": "value",
          "type": "uint256"
        }
      ],
      "name": "Transfer",
      "type": "event"
    },
    {
      "inputs": [],
      "name": "BTOKEN_REVISION",
      "outputs": [
        {
          "internalType": "uint256",
          "name": "",
          "type": "uint256"
        }
      ],
      "stateMutability": "view",
      "type": "function"
    },
    {
      "inputs": [],
      "name": "DOMAIN_SEPARATOR",
      "outputs": [
        {
          "internalType": "bytes32",
          "name": "",
          "type": "bytes32"
        }
      ],
      "stateMutability": "view",
      "type": "function"
    },
    {
      "inputs": [],
      "name": "EIP712_REVISION",
      "outputs": [
        {
          "internalType": "bytes",
          "name": "",
          "type": "bytes"
        }
      ],
      "stateMutability": "view",
      "type": "function"
    },
    {
      "inputs": [],
      "name": "PERMIT_TYPEHASH",
      "outputs": [
        {
          "internalType": "bytes32",
          "name": "",
          "type": "bytes32"
        }
      ],
      "stateMutability": "view",
      "type": "function"
    },
    {
      "inputs": [],
      "name": "POOL",
      "outputs": [
        {
          "internalType": "contract IPool",
          "name": "",
          "type": "address"
        }
      ],
      "stateMutability": "view",
      "type": "function"
    },
    {
      "inputs": [],
      "name": "RESERVE_TREASURY_ADDRESS",
      "outputs": [
        {
          "internalType": "address",
          "name": "",
          "type": "address"
        }
      ],
      "stateMutability": "view",
      "type": "function"
    },
    {
      "inputs": [],
      "name": "UNDERLYING_ASSET_ADDRESS",
      "outputs": [
        {
          "internalType": "address",
          "name": "",
          "type": "address"
        }
      ],
      "stateMutability": "view",
      "type": "function"
    },
    {
      "inputs": [
        {
          "internalType": "address",
          "name": "owner",
          "type": "address"
        },
        {
          "internalType": "address",
          "name": "spender",
          "type": "address"
        }
      ],
      "name": "allowance",
      "outputs": [
        {
          "internalType": "uint256",
          "name": "",
          "type": "uint256"
        }
      ],
      "stateMutability": "view",
      "type": "function"
    },
    {
      "inputs": [
        {
          "internalType": "address",
          "name": "spender",
          "type": "address"
        },
        {
          "internalType": "uint256",
          "name": "amount",
          "type": "uint256"
        }
      ],
      "name": "approve",
      "outputs": [
        {
          "internalType": "bool",
          "name": "",
          "type": "bool"
        }
      ],
      "stateMutability": "nonpayable",
      "type": "function"
    },
    {
      "inputs": [
        {
          "internalType": "address",
          "name": "user",
          "type": "address"
        }
      ],
      "name": "balanceOf",
      "outputs": [
        {
          "internalType": "uint256",
          "name": "",
          "type": "uint256"
        }
      ],
      "stateMutability": "view",
      "type": "function"
    },
    {
      "inputs": [
        {
          "internalType": "address",
          "name": "from",
          "type": "address"
        },
        {
          "internalType": "address",
          "name": "receiverOfUnderlying",
          "type": "address"
        },
        {
          "internalType": "uint256",
          "name": "amount",
          "type": "uint256"
        },
        {
          "internalType": "uint256",
          "name": "index",
          "type": "uint256"
        }
      ],
      "name": "burn",
      "outputs": [],
      "stateMutability": "nonpayable",
      "type": "function"
    },
    {
      "inputs": [],
      "name": "decimals",
      "outputs": [
        {
          "internalType": "uint8",
          "name": "",
          "type": "uint8"
        }
      ],
      "stateMutability": "view",
      "type": "function"
    },
    {
      "inputs": [
        {
          "internalType": "address",
          "name": "spender",
          "type": "address"
        },
        {
          "internalType": "uint256",
          "name": "subtractedValue",
          "type": "uint256"
        }
      ],
      "name": "decreaseAllowance",
      "outputs": [
        {
          "internalType": "bool",
          "name": "",
          "type": "bool"
        }
      ],
      "stateMutability": "nonpayable",
      "type": "function"
    },
    {
      "inputs": [],
      "name": "getIncentivesController",
      "outputs": [
        {
          "internalType": "contract IIncentivesController",
          "name": "",
          "type": "address"
        }
      ],
      "stateMutability": "view",
      "type": "function"
    },
    {
      "inputs": [
        {
          "internalType": "address",
          "name": "user",
          "type": "address"
        }
      ],
      "name": "getPreviousIndex",
      "outputs": [
        {
          "internalType": "uint256",
          "name": "",
          "type": "uint256"
        }
      ],
      "stateMutability": "view",
      "type": "function"
    },
    {
      "inputs": [
        {
          "internalType": "address",
          "name": "user",
          "type": "address"
        }
      ],
      "name": "getScaledUserBalanceAndSupply",
      "outputs": [
        {
          "internalType": "uint256",
          "name": "",
          "type": "uint256"
        },
        {
          "internalType": "uint256",
          "name": "",
          "type": "uint256"
        }
      ],
      "stateMutability": "view",
      "type": "function"
    },
    {
      "inputs": [
        {
          "internalType": "address",
          "name": "user",
          "type": "address"
        },
        {
          "internalType": "address",
          "name": "onBehalfOf",
          "type": "address"
        },
        {
          "internalType": "uint256",
          "name": "amount",
          "type": "uint256"
        }
      ],
      "name": "handleRepayment",
      "outputs": [],
      "stateMutability": "nonpayable",
      "type": "function"
    },
    {
      "inputs": [
        {
          "internalType": "address",
          "name": "spender",
          "type": "address"
        },
        {
          "internalType": "uint256",
          "name": "addedValue",
          "type": "uint256"
        }
      ],
      "name": "increaseAllowance",
      "outputs": [
        {
          "internalType": "bool",
          "name": "",
          "type": "bool"
        }
      ],
      "stateMutability": "nonpayable",
      "type": "function"
    },
    {
      "inputs": [
        {
          "internalType": "contract IPool",
          "name": "initializingPool",
          "type": "address"
        },
        {
          "internalType": "address",
          "name": "treasury",
          "type": "address"
        },
        {
          "internalType": "address",
          "name": "underlyingAsset",
          "type": "address"
        },
        {
          "internalType": "contract IIncentivesController",
          "name": "incentivesController",
          "type": "address"
        },
        {
          "internalType": "uint8",
          "name": "bTokenDecimals",
          "type": "uint8"
        },
        {
          "internalType": "string",
          "name": "bTokenName",
          "type": "string"
        },
        {
          "internalType": "string",
          "name": "bTokenSymbol",
          "type": "string"
        },
        {
          "internalType": "bytes",
          "name": "params",
          "type": "bytes"
        }
      ],
      "name": "initialize",
      "outputs": [],
      "stateMutability": "nonpayable",
      "type": "function"
    },
    {
      "inputs": [
        {
          "internalType": "address",
          "name": "caller",
          "type": "address"
        },
        {
          "internalType": "address",
          "name": "onBehalfOf",
          "type": "address"
        },
        {
          "internalType": "uint256",
          "name": "amount",
          "type": "uint256"
        },
        {
          "internalType": "uint256",
          "name": "index",
          "type": "uint256"
        }
      ],
      "name": "mint",
      "outputs": [
        {
          "internalType": "bool",
          "name": "",
          "type": "bool"
        }
      ],
      "stateMutability": "nonpayable",
      "type": "function"
    },
    {
      "inputs": [
        {
          "internalType": "uint256",
          "name": "amount",
          "type": "uint256"
        },
        {
          "internalType": "uint256",
          "name": "index",
          "type": "uint256"
        }
      ],
      "name": "mintToTreasury",
      "outputs": [],
      "stateMutability": "nonpayable",
      "type": "function"
    },
    {
      "inputs": [],
      "name": "name",
      "outputs": [
        {
          "internalType": "string",
          "name": "",
          "type": "string"
        }
      ],
      "stateMutability": "view",
      "type": "function"
    },
    {
      "inputs": [
        {
          "internalType": "address",
          "name": "owner",
          "type": "address"
        }
      ],
      "name": "nonces",
      "outputs": [
        {
          "internalType": "uint256",
          "name": "",
          "type": "uint256"
        }
      ],
      "stateMutability": "view",
      "type": "function"
    },
    {
      "inputs": [
        {
          "internalType": "address",
          "name": "owner",
          "type": "address"
        },
        {
          "internalType": "address",
          "name": "spender",
          "type": "address"
        },
        {
          "internalType": "uint256",
          "name": "value",
          "type": "uint256"
        },
        {
          "internalType": "uint256",
          "name": "deadline",
          "type": "uint256"
        },
        {
          "internalType": "uint8",
          "name": "v",
          "type": "uint8"
        },
        {
          "internalType": "bytes32",
          "name": "r",
          "type": "bytes32"
        },
        {
          "internalType": "bytes32",
          "name": "s",
          "type": "bytes32"
        }
      ],
      "name": "permit",
      "outputs": [],
      "stateMutability": "nonpayable",
      "type": "function"
    },
    {
      "inputs": [
        {
          "internalType": "address",
          "name": "token",
          "type": "address"
        },
        {
          "internalType": "address",
          "name": "to",
          "type": "address"
        },
        {
          "internalType": "uint256",
          "name": "amount",
          "type": "uint256"
        }
      ],
      "name": "rescueTokens",
      "outputs": [],
      "stateMutability": "nonpayable",
      "type": "function"
    },
    {
      "inputs": [
        {
          "internalType": "address",
          "name": "user",
          "type": "address"
        }
      ],
      "name": "scaledBalanceOf",
      "outputs": [
        {
          "internalType": "uint256",
          "name": "",
          "type": "uint256"
        }
      ],
      "stateMutability": "view",
      "type": "function"
    },
    {
      "inputs": [],
      "name": "scaledTotalSupply",
      "outputs": [
        {
          "internalType": "uint256",
          "name": "",
          "type": "uint256"
        }
      ],
      "stateMutability": "view",
      "type": "function"
    },
    {
      "inputs": [
        {
          "internalType": "contract IIncentivesController",
          "name": "controller",
          "type": "address"
        }
      ],
      "name": "setIncentivesController",
      "outputs": [],
      "stateMutability": "nonpayable",
      "type": "function"
    },
    {
      "inputs": [],
      "name": "symbol",
      "outputs": [
        {
          "internalType": "string",
          "name": "",
          "type": "string"
        }
      ],
      "stateMutability": "view",
      "type": "function"
    },
    {
      "inputs": [],
      "name": "totalSupply",
      "outputs": [
        {
          "internalType": "uint256",
          "name": "",
          "type": "uint256"
        }
      ],
      "stateMutability": "view",
      "type": "function"
    },
    {
      "inputs": [
        {
          "internalType": "address",
          "name": "recipient",
          "type": "address"
        },
        {
          "internalType": "uint256",
          "name": "amount",
          "type": "uint256"
        }
      ],
      "name": "transfer",
      "outputs": [
        {
          "internalType": "bool",
          "name": "",
          "type": "bool"
        }
      ],
      "stateMutability": "nonpayable",
      "type": "function"
    },
    {
      "inputs": [
        {
          "internalType": "address",
          "name": "sender",
          "type": "address"
        },
        {
          "internalType": "address",
          "name": "recipient",
          "type": "address"
        },
        {
          "internalType": "uint256",
          "name": "amount",
          "type": "uint256"
        }
      ],
      "name": "transferFrom",
      "outputs": [
        {
          "internalType": "bool",
          "name": "",
          "type": "bool"
        }
      ],
      "stateMutability": "nonpayable",
      "type": "function"
    },
    {
      "inputs": [
        {
          "internalType": "address",
          "name": "from",
          "type": "address"
        },
        {
          "internalType": "address",
          "name": "to",
          "type": "address"
        },
        {
          "internalType": "uint256",
          "name": "value",
          "type": "uint256"
        }
      ],
      "name": "transferOnLiquidation",
      "outputs": [],
      "stateMutability": "nonpayable",
      "type": "function"
    },
    {
      "inputs": [
        {
          "internalType": "address",
          "name": "target",
          "type": "address"
        },
        {
          "internalType": "uint256",
          "name": "amount",
          "type": "uint256"
        }
      ],
      "name": "transferUnderlyingTo",
      "outputs": [],
      "stateMutability": "nonpayable",
      "type": "function"
    }
  ],
  "transactionHash": "0xf6975236de0e23dbfff8f7e430b44f3b9e6367bdcc3cea17d2993b8f23130a09",
  "args": [
    "0x212fdfCfCC22db97DeB3AC3260414909282BB4EE"
  ],
  "numDeployments": 1,
  "solcInputHash": "c351ce62b62f76bd5a8479a8f9cf6c24",
  "bytecode": "0x60e0604052600080553480156200001557600080fd5b5060405162002c3138038062002c31833981016040819052620000389162000169565b806040518060400160405280600b81526020016a109513d2d15397d253541360aa1b8152506040518060400160405280600b81526020016a109513d2d15397d253541360aa1b81525060008383838383838383836001600160a01b0316630542975c6040518163ffffffff1660e01b8152600401602060405180830381865afa158015620000ca573d6000803e3d6000fd5b505050506040513d601f19601f82011682018060405250810190620000f0919062000169565b6001600160a01b031660805260376200010a848262000235565b50603862000119838262000235565b506039805460ff191660ff9290921691909117905550506001600160a01b031660a05250504660c052506200030195505050505050565b6001600160a01b03811681146200016657600080fd5b50565b6000602082840312156200017c57600080fd5b8151620001898162000150565b9392505050565b634e487b7160e01b600052604160045260246000fd5b600181811c90821680620001bb57607f821691505b602082108103620001dc57634e487b7160e01b600052602260045260246000fd5b50919050565b601f8211156200023057600081815260208120601f850160051c810160208610156200020b5750805b601f850160051c820191505b818110156200022c5782815560010162000217565b5050505b505050565b81516001600160401b0381111562000251576200025162000190565b6200026981620002628454620001a6565b84620001e2565b602080601f831160018114620002a15760008415620002885750858301515b600019600386901b1c1916600185901b1785556200022c565b600085815260208120601f198616915b82811015620002d257888601518255948401946001909101908401620002b1565b5085821015620002f15787850151600019600388901b60f8161c191681555b5050505050600190811b01905550565b60805160a05160c05161289e62000393600039600061156101526000818161035a0152818161063901528181610757015281816108ad01528181610a1d01528181610a9b01528181610b1001528181610ba801528181610bfe01528181610ce401528181611115015281816112fc015281816119f60152611add015260008181610d440152611193015261289e6000f3fe608060405234801561001057600080fd5b50600436106102065760003560e01c80637df5bd3b1161011a578063b1bf962d116100ad578063d7020d0a1161007c578063d7020d0a14610489578063dd62ed3e1461049c578063e0753986146104d5578063e655dbd81461050e578063f866c3191461052157600080fd5b8063b1bf962d14610448578063b3f1c93d14610450578063cea9d26f14610463578063d505accf1461047657600080fd5b8063a9059cbb116100e9578063a9059cbb1461040b578063aa1dc53d1461041e578063ae16733514610426578063b16a19de1461043757600080fd5b80637df5bd3b146103ca5780637ecebe00146103dd57806395d89b41146103f0578063a457c2d7146103f857600080fd5b8063313ce5671161019d5780636fd976761161016c5780636fd976761461032f57806370a08231146103425780637535d2461461035557806375d264131461039457806378160376146103aa57600080fd5b8063313ce567146102ec5780633644e5151461030157806339509351146103095780634efecaa51461031c57600080fd5b8063183fb413116101d9578063183fb4131461028a5780631da24f3e1461029f57806323b872dd146102b257806330adf81f146102c557600080fd5b806306fdde031461020b578063095ea7b3146102295780630afbcdc91461024c57806318160ddd14610274575b600080fd5b610213610534565b6040516102209190612213565b60405180910390f35b61023c610237366004612255565b6105c6565b6040519015158152602001610220565b61025f61025a366004612281565b6105dd565b60408051928352602083019190915201610220565b61027c6105f5565b604051908152602001610220565b61029d6102983660046122f8565b6106b1565b005b61027c6102ad366004612281565b610946565b61023c6102c03660046123ec565b610951565b61027c7f6e71edae12b1b97f4d1f60370fef10105fa2faae0126114a169c64845d6126c981565b60395460405160ff9091168152602001610220565b61027c6109bb565b61023c610317366004612255565b6109ca565b61029d61032a366004612255565b610a01565b61029d61033d3660046123ec565b610a7f565b61027c610350366004612281565b610ae7565b61037c7f000000000000000000000000000000000000000000000000000000000000000081565b6040516001600160a01b039091168152602001610220565b60395461010090046001600160a01b031661037c565b610213604051806040016040528060018152602001603160f81b81525081565b61029d6103d836600461242d565b610b8c565b61027c6103eb366004612281565b610c33565b610213610c51565b61023c610406366004612255565b610c60565b61023c610419366004612255565b610c97565b61027c600181565b603c546001600160a01b031661037c565b603d546001600160a01b031661037c565b61027c610cba565b61023c61045e36600461244f565b610cc5565b61029d6104713660046123ec565b610d40565b61029d610484366004612495565b610ec5565b61029d61049736600461244f565b6110f9565b61027c6104aa366004612503565b6001600160a01b03918216600090815260356020908152604080832093909416825291909152205490565b61027c6104e3366004612281565b6001600160a01b0316600090815260346020526040902054600160801b90046001600160801b031690565b61029d61051c366004612281565b61118f565b61029d61052f3660046123ec565b6112e0565b6060603780546105439061253c565b80601f016020809104026020016040519081016040528092919081815260200182805461056f9061253c565b80156105bc5780601f10610591576101008083540402835291602001916105bc565b820191906000526020600020905b81548152906001019060200180831161059f57829003601f168201915b5050505050905090565b60006105d3338484611350565b5060015b92915050565b6000806105e9836113b1565b60365491509150915091565b60008061060160365490565b90508060000361061357600091505090565b603d5460405163d15e005360e01b81526001600160a01b0391821660048201526106ab917f0000000000000000000000000000000000000000000000000000000000000000169063d15e005390602401602060405180830381865afa158015610680573d6000803e3d6000fd5b505050506040513d601f19601f820116820180604052508101906106a49190612570565b82906113d5565b91505090565b6001805460ff16806106c25750303b155b806106ce575060005481115b6107365760405162461bcd60e51b815260206004820152602e60248201527f436f6e747261637420696e7374616e63652068617320616c726561647920626560448201526d195b881a5b9a5d1a585b1a5e995960921b60648201526084015b60405180910390fd5b60015460ff16158015610755576001805460ff19168117905560008290555b7f00000000000000000000000000000000000000000000000000000000000000006001600160a01b03168d6001600160a01b03161460405180604001604052806002815260200161383760f01b815250906107c35760405162461bcd60e51b815260040161072d9190612213565b5061080388888080601f01602080910402602001604051908101604052809392919081815260200183838082843760009201919091525061141992505050565b61084286868080601f01602080910402602001604051908101604052809392919081815260200183838082843760009201919091525061142592505050565b6039805460ff191660ff8b16179055603c80546001600160a01b03808f166001600160a01b031992831617909255603d80548e8416921691909117905560398054918c1661010002610100600160a81b03199092169190911790556108a5611431565b603b819055507f00000000000000000000000000000000000000000000000000000000000000006001600160a01b03168b6001600160a01b03167fb19e051f8af41150ccccb3fc2c2d8d15f4a4cf434f32a559ba75fe73d6eea20b8e8d8d8d8d8d8d8d8d60405161091e999897969594939291906125b2565b60405180910390a38015610937576001805460ff191690555b50505050505050505050505050565b60006105d7826113b1565b60008061095d836114da565b6001600160a01b0386166000908152603560209081526040808320338085529252909120549192506109a5918791906109a0906001600160801b03861690612636565b611350565b6109b0858583611547565b506001949350505050565b60006109c561155d565b905090565b3360008181526035602090815260408083206001600160a01b038716845290915281205490916105d39185906109a0908690612649565b604080518082019091526002815261323360f01b6020820152337f00000000000000000000000000000000000000000000000000000000000000006001600160a01b031614610a635760405162461bcd60e51b815260040161072d9190612213565b50603d54610a7b906001600160a01b03168383611595565b5050565b604080518082019091526002815261323360f01b6020820152337f00000000000000000000000000000000000000000000000000000000000000006001600160a01b031614610ae15760405162461bcd60e51b815260040161072d9190612213565b50505050565b603d5460405163d15e005360e01b81526001600160a01b0391821660048201526000916105d7917f00000000000000000000000000000000000000000000000000000000000000009091169063d15e005390602401602060405180830381865afa158015610b59573d6000803e3d6000fd5b505050506040513d601f19601f82011682018060405250810190610b7d9190612570565b610b86846113b1565b906113d5565b604080518082019091526002815261323360f01b6020820152337f00000000000000000000000000000000000000000000000000000000000000006001600160a01b031614610bee5760405162461bcd60e51b815260040161072d9190612213565b508115610a7b57603c54610c2e907f0000000000000000000000000000000000000000000000000000000000000000906001600160a01b03168484611620565b505050565b6001600160a01b0381166000908152603a60205260408120546105d7565b6060603880546105439061253c565b3360008181526035602090815260408083206001600160a01b038716845290915281205490916105d39185906109a0908690612636565b600080610ca3836114da565b9050610cb0338583611547565b5060019392505050565b60006109c560365490565b604080518082019091526002815261323360f01b6020820152600090337f00000000000000000000000000000000000000000000000000000000000000006001600160a01b031614610d2a5760405162461bcd60e51b815260040161072d9190612213565b50610d3785858585611620565b95945050505050565b60007f00000000000000000000000000000000000000000000000000000000000000006001600160a01b031663707cd7166040518163ffffffff1660e01b8152600401602060405180830381865afa158015610da0573d6000803e3d6000fd5b505050506040513d601f19601f82011682018060405250810190610dc4919061265c565b604051637be53ca160e01b81523360048201529091506001600160a01b03821690637be53ca190602401602060405180830381865afa158015610e0b573d6000803e3d6000fd5b505050506040513d601f19601f82011682018060405250810190610e2f9190612679565b604051806040016040528060018152602001603160f81b81525090610e675760405162461bcd60e51b815260040161072d9190612213565b50603d54604080518082019091526002815261383560f01b6020820152906001600160a01b03868116911603610eb05760405162461bcd60e51b815260040161072d9190612213565b50610ae16001600160a01b0385168484611595565b604080518082019091526002815261373760f01b60208201526001600160a01b038816610f055760405162461bcd60e51b815260040161072d9190612213565b50834211156040518060400160405280600281526020016106e760f31b81525090610f435760405162461bcd60e51b815260040161072d9190612213565b506001600160a01b0387166000908152603a602052604081205490610f666109bb565b604080517f6e71edae12b1b97f4d1f60370fef10105fa2faae0126114a169c64845d6126c960208201526001600160a01b03808d1692820192909252908a1660608201526080810189905260a0810184905260c0810188905260e00160405160208183030381529060405280519060200120604051602001610fff92919061190160f01b81526002810192909252602282015260420190565b60408051601f1981840301815282825280516020918201206000845290830180835281905260ff8816918301919091526060820186905260808201859052915060019060a0016020604051602081039080840390855afa158015611067573d6000803e3d6000fd5b505050602060405103516001600160a01b0316896001600160a01b03161460405180604001604052806002815260200161373960f01b815250906110be5760405162461bcd60e51b815260040161072d9190612213565b506110ca826001612649565b6001600160a01b038a166000908152603a60205260409020556110ee898989611350565b505050505050505050565b604080518082019091526002815261323360f01b6020820152337f00000000000000000000000000000000000000000000000000000000000000006001600160a01b03161461115b5760405162461bcd60e51b815260040161072d9190612213565b50611168848484846117a5565b6001600160a01b0383163014610ae157603d54610ae1906001600160a01b03168484611595565b60007f00000000000000000000000000000000000000000000000000000000000000006001600160a01b031663707cd7166040518163ffffffff1660e01b8152600401602060405180830381865afa1580156111ef573d6000803e3d6000fd5b505050506040513d601f19601f82011682018060405250810190611213919061265c565b604051637be53ca160e01b81523360048201529091506001600160a01b03821690637be53ca190602401602060405180830381865afa15801561125a573d6000803e3d6000fd5b505050506040513d601f19601f8201168201806040525081019061127e9190612679565b604051806040016040528060018152602001603160f81b815250906112b65760405162461bcd60e51b815260040161072d9190612213565b5050603980546001600160a01b0390921661010002610100600160a81b0319909216919091179055565b604080518082019091526002815261323360f01b6020820152337f00000000000000000000000000000000000000000000000000000000000000006001600160a01b0316146113425760405162461bcd60e51b815260040161072d9190612213565b50610c2e83838360006119ce565b6001600160a01b0383811660008181526035602090815260408083209487168084529482529182902085905590518481527f8c5be1e5ebec7d5bd14f71427d1e84f3dd0314c0f7b2291e5b200ac8c7c3b925910160405180910390a3505050565b6001600160a01b03166000908152603460205260409020546001600160801b031690565b600081156b019d971e4fe8401e7400000019839004841115176113f757600080fd5b506b033b2e3c9fd0803ce800000091026b019d971e4fe8401e74000000010490565b6037610a7b82826126f7565b6038610a7b82826126f7565b60007f8b73c3c69bb8fe3d512ecc4cf759cc79239f7b179b0ffacaa9a75d522b39400f61145c611b87565b805160209182012060408051808201825260018152603160f81b90840152805192830193909352918101919091527fc89efdaa54c0f20c7adf612882df0950f5a951637e0307cdcb4c672f298b8bc660608201524660808201523060a082015260c00160405160208183030381529060405280519060200120905090565b60006001600160801b038211156115435760405162461bcd60e51b815260206004820152602760248201527f53616665436173743a2076616c756520646f65736e27742066697420696e20316044820152663238206269747360c81b606482015260840161072d565b5090565b610c2e8383836001600160801b031660016119ce565b60007f0000000000000000000000000000000000000000000000000000000000000000460361158d5750603b5490565b6109c5611431565b60405163a9059cbb60e01b8082526001600160a01b0384166004830152602482018390529060008060448382895af16115d2573d6000803e3d6000fd5b506115dc84611b91565b610ae15760405162461bcd60e51b815260206004820152601560248201527423a83b191d103330b4b632b2103a3930b739b332b960591b604482015260640161072d565b60008061162d8484611c39565b6040805180820190915260028152610c8d60f21b6020820152909150816116675760405162461bcd60e51b815260040161072d9190612213565b506000611673866113b1565b6001600160a01b038716600090815260346020526040812054919250906116ab908390600160801b90046001600160801b03166113d5565b6116b583876113d5565b6116bf9190612636565b90506116ca856114da565b6001600160a01b038816600090815260346020526040902080546001600160801b03928316600160801b02921691909117905561170f8761170a856114da565b611c78565b600061171b8288612649565b9050876001600160a01b031660006001600160a01b03166000805160206128498339815191528360405161175191815260200190565b60405180910390a360408051828152602081018490529081018790526001600160a01b03808a1691908b16906000805160206128298339815191529060600160405180910390a35050159695505050505050565b60006117b18383611c39565b604080518082019091526002815261323560f01b6020820152909150816117eb5760405162461bcd60e51b815260040161072d9190612213565b5060006117f7866113b1565b6001600160a01b0387166000908152603460205260408120549192509061182f908390600160801b90046001600160801b03166113d5565b61183983866113d5565b6118439190612636565b905061184e846114da565b6001600160a01b038816600090815260346020526040902080546001600160801b03928316600160801b0292169190911790556118938761188e856114da565b611d69565b848111156119275760006118a78683612636565b9050876001600160a01b031660006001600160a01b0316600080516020612849833981519152836040516118dd91815260200190565b60405180910390a360408051828152602081018490529081018690526001600160a01b0389169081906000805160206128298339815191529060600160405180910390a3506119c5565b60006119338287612636565b905060006001600160a01b0316886001600160a01b03166000805160206128498339815191528360405161196991815260200190565b60405180910390a360408051828152602081018490529081018690526001600160a01b0380891691908a16907f4cf25bc1d991c17529c25213d3cc0cda295eeaad5f13f361969b12ea48015f90906060015b60405180910390a3505b50505050505050565b603d5460405163d15e005360e01b81526001600160a01b0391821660048201819052916000917f00000000000000000000000000000000000000000000000000000000000000009091169063d15e005390602401602060405180830381865afa158015611a3f573d6000803e3d6000fd5b505050506040513d601f19601f82011682018060405250810190611a639190612570565b90506000611a7482610b86896113b1565b90506000611a8583610b86896113b1565b9050611a9388888886611dae565b8415611b3a5760405163d5ed393360e01b81526001600160a01b03858116600483015289811660248301528881166044830152606482018890526084820184905260a482018390527f0000000000000000000000000000000000000000000000000000000000000000169063d5ed39339060c401600060405180830381600087803b158015611b2157600080fd5b505af1158015611b35573d6000803e3d6000fd5b505050505b6001600160a01b038088169089167f4beccb90f994c31aced7a23b5611020728a23d8ec5cddd1a3e9d97b96fda8666611b738987611c39565b6040805191825260208201889052016119bb565b60606109c5610534565b6000611bb6565b62461bcd60e51b600052602060045280602452508060445260646000fd5b3d8015611bf55760208114611c2657611bf07f475076323a206d616c666f726d6564207472616e7366657220726573756c7400601f611b98565b611c33565b823b611c1d57611c1d7311d41d8c8e881b9bdd08184818dbdb9d1c9858dd60621b6014611b98565b60019150611c33565b3d6000803e600051151591505b50919050565b600081156b033b2e3c9fd0803ce800000060028404190484111715611c5d57600080fd5b506b033b2e3c9fd0803ce80000009190910260028204010490565b603654611c8e6001600160801b03831682612649565b6036556001600160a01b0383166000908152603460205260409020546001600160801b0316611cbd83826127b7565b6001600160a01b03858116600090815260346020526040902080546001600160801b0319166001600160801b0393909316929092179091556039546101009004168015611d62576040516318c39f1760e11b81526001600160a01b038216906331873e2e90611d34908890879087906004016127de565b600060405180830381600087803b158015611d4e57600080fd5b505af11580156110ee573d6000803e3d6000fd5b5050505050565b603654611d7f6001600160801b03831682612636565b6036556001600160a01b0383166000908152603460205260409020546001600160801b0316611cbd8382612808565b6000611db9856113b1565b6001600160a01b03861660009081526034602052604081205491925090611df1908390600160801b90046001600160801b03166113d5565b611dfb83856113d5565b611e059190612636565b90506000611e12866113b1565b6001600160a01b03871660009081526034602052604081205491925090611e4a908390600160801b90046001600160801b03166113d5565b611e5483876113d5565b611e5e9190612636565b9050611e69856114da565b6001600160a01b038916600090815260346020526040902080546001600160801b03928316600160801b029216919091179055611ea5856114da565b6001600160a01b038816600090815260346020526040902080546001600160801b03928316600160801b029216919091179055611ef48888611eef611eea8a8a611c39565b6114da565b61202a565b8215611f65576040518381526001600160a01b038916906000906000805160206128498339815191529060200160405180910390a3604080518481526020810185905280820187905290516001600160a01b038a169133916000805160206128298339815191529181900360600190a35b866001600160a01b0316886001600160a01b031614158015611f875750600081115b15611ff7576040518181526001600160a01b038816906000906000805160206128498339815191529060200160405180910390a3604080518281526020810183905280820187905290516001600160a01b0389169133916000805160206128298339815191529181900360600190a35b866001600160a01b0316886001600160a01b0316600080516020612849833981519152886040516119bb91815260200190565b6001600160a01b0383166000908152603460205260409020546001600160801b03166120568282612808565b6001600160a01b0385811660009081526034602052604080822080546001600160801b0319166001600160801b03958616179055918616815220541661209c83826127b7565b6001600160a01b03858116600090815260346020526040902080546001600160801b0319166001600160801b03939093169290921790915560395461010090041680156121c5576036546040516318c39f1760e11b81526001600160a01b038316906331873e2e90612116908a90859089906004016127de565b600060405180830381600087803b15801561213057600080fd5b505af1158015612144573d6000803e3d6000fd5b50505050856001600160a01b0316876001600160a01b0316146119c5576040516318c39f1760e11b81526001600160a01b038316906331873e2e90612191908990859088906004016127de565b600060405180830381600087803b1580156121ab57600080fd5b505af11580156121bf573d6000803e3d6000fd5b50505050505b505050505050565b6000815180845260005b818110156121f3576020818501810151868301820152016121d7565b506000602082860101526020601f19601f83011685010191505092915050565b60208152600061222660208301846121cd565b9392505050565b6001600160a01b038116811461224257600080fd5b50565b80356122508161222d565b919050565b6000806040838503121561226857600080fd5b82356122738161222d565b946020939093013593505050565b60006020828403121561229357600080fd5b81356122268161222d565b803560ff8116811461225057600080fd5b60008083601f8401126122c157600080fd5b50813567ffffffffffffffff8111156122d957600080fd5b6020830191508360208285010111156122f157600080fd5b9250929050565b60008060008060008060008060008060006101008c8e03121561231a57600080fd5b6123238c612245565b9a5061233160208d01612245565b995061233f60408d01612245565b985061234d60608d01612245565b975061235b60808d0161229e565b965067ffffffffffffffff8060a08e0135111561237757600080fd5b6123878e60a08f01358f016122af565b909750955060c08d013581101561239d57600080fd5b6123ad8e60c08f01358f016122af565b909550935060e08d01358110156123c357600080fd5b506123d48d60e08e01358e016122af565b81935080925050509295989b509295989b9093969950565b60008060006060848603121561240157600080fd5b833561240c8161222d565b9250602084013561241c8161222d565b929592945050506040919091013590565b6000806040838503121561244057600080fd5b50508035926020909101359150565b6000806000806080858703121561246557600080fd5b84356124708161222d565b935060208501356124808161222d565b93969395505050506040820135916060013590565b600080600080600080600060e0888a0312156124b057600080fd5b87356124bb8161222d565b965060208801356124cb8161222d565b955060408801359450606088013593506124e76080890161229e565b925060a0880135915060c0880135905092959891949750929550565b6000806040838503121561251657600080fd5b82356125218161222d565b915060208301356125318161222d565b809150509250929050565b600181811c9082168061255057607f821691505b602082108103611c3357634e487b7160e01b600052602260045260246000fd5b60006020828403121561258257600080fd5b5051919050565b81835281816020850137506000828201602090810191909152601f909101601f19169091010190565b6001600160a01b038a811682528916602082015260ff8816604082015260c0606082018190526000906125e8908301888a612589565b82810360808401526125fb818789612589565b905082810360a0840152612610818587612589565b9c9b505050505050505050505050565b634e487b7160e01b600052601160045260246000fd5b818103818111156105d7576105d7612620565b808201808211156105d7576105d7612620565b60006020828403121561266e57600080fd5b81516122268161222d565b60006020828403121561268b57600080fd5b8151801515811461222657600080fd5b634e487b7160e01b600052604160045260246000fd5b601f821115610c2e57600081815260208120601f850160051c810160208610156126d85750805b601f850160051c820191505b818110156121c5578281556001016126e4565b815167ffffffffffffffff8111156127115761271161269b565b6127258161271f845461253c565b846126b1565b602080601f83116001811461275a57600084156127425750858301515b600019600386901b1c1916600185901b1785556121c5565b600085815260208120601f198616915b828110156127895788860151825594840194600190910190840161276a565b50858210156127a75787850151600019600388901b60f8161c191681555b5050505050600190811b01905550565b6001600160801b038181168382160190808211156127d7576127d7612620565b5092915050565b6001600160a01b0393909316835260208301919091526001600160801b0316604082015260600190565b6001600160801b038281168282160390808211156127d7576127d761262056fe458f5fa412d0f69b08dd84872b0215675cc67bc1d5b6fd93300a1c3878b86196ddf252ad1be2c89b69c2b068fc378daa952ba7f163c4a11628f55a4df523b3efa26469706673582212205f318fdc77ab23548cafd680bceacec5d8cea3ad9659943393f04cb235194b0664736f6c63430008140033",
  "devdoc": {
    "author": "Aave",
    "events": {
      "Approval(address,address,uint256)": {
        "details": "Emitted when the allowance of a `spender` for an `owner` is set by a call to {approve}. `value` is the new allowance."
      },
      "BalanceTransfer(address,address,uint256,uint256)": {
        "details": "Emitted during the transfer action",
        "params": {
          "from": "The user whose tokens are being transferred",
          "index": "The next liquidity index of the reserve",
          "to": "The recipient",
          "value": "The scaled amount being transferred"
        }
      },
      "Burn(address,address,uint256,uint256,uint256)": {
        "details": "Emitted after the burn actionIf the burn function does not involve a transfer of the underlying asset, the target defaults to zero address",
        "params": {
          "balanceIncrease": "The increase in scaled-up balance since the last action of 'from'",
          "from": "The address from which the tokens will be burned",
          "index": "The next liquidity index of the reserve",
          "target": "The address that will receive the underlying, if any",
          "value": "The scaled-up amount being burned (user entered amount - balance increase from interest)"
        }
      },
      "Initialized(address,address,address,address,uint8,string,string,bytes)": {
        "details": "Emitted when an bToken is initialized",
        "params": {
          "bTokenDecimals": "The decimals of the underlying",
          "bTokenName": "The name of the bToken",
          "bTokenSymbol": "The symbol of the bToken",
          "incentivesController": "The address of the incentives controller for this bToken",
          "params": "A set of encoded parameters for additional initialization",
          "pool": "The address of the associated pool",
          "treasury": "The address of the treasury",
          "underlyingAsset": "The address of the underlying asset"
        }
      },
      "Mint(address,address,uint256,uint256,uint256)": {
        "details": "Emitted after the mint action",
        "params": {
          "balanceIncrease": "The increase in scaled-up balance since the last action of 'onBehalfOf'",
          "caller": "The address performing the mint",
          "index": "The next liquidity index of the reserve",
          "onBehalfOf": "The address of the user that will receive the minted tokens",
          "value": "The scaled-up amount being minted (based on user entered amount and balance increase from interest)"
        }
      },
      "Transfer(address,address,uint256)": {
        "details": "Emitted when `value` tokens are moved from one account (`from`) to another (`to`). Note that `value` may be zero."
      }
    },
    "kind": "dev",
    "methods": {
      "DOMAIN_SEPARATOR()": {
        "details": "Overrides the base function to fully implement IBTokensee `EIP712Base.DOMAIN_SEPARATOR()` for more detailed documentation"
      },
      "RESERVE_TREASURY_ADDRESS()": {
        "returns": {
          "_0": "Address of the Aave treasury"
        }
      },
      "UNDERLYING_ASSET_ADDRESS()": {
        "returns": {
          "_0": "The address of the underlying asset"
        }
      },
      "allowance(address,address)": {
        "details": "Returns the remaining number of tokens that `spender` will be allowed to spend on behalf of `owner` through {transferFrom}. This is zero by default. This value changes when {approve} or {transferFrom} are called."
      },
      "approve(address,uint256)": {
        "details": "Sets `amount` as the allowance of `spender` over the caller's tokens. Returns a boolean value indicating whether the operation succeeded. IMPORTANT: Beware that changing an allowance with this method brings the risk that someone may use both the old and the new allowance by unfortunate transaction ordering. One possible solution to mitigate this race condition is to first reduce the spender's allowance to 0 and set the desired value afterwards: https://github.com/ethereum/EIPs/issues/20#issuecomment-263524729 Emits an {Approval} event."
      },
      "balanceOf(address)": {
        "details": "Returns the amount of tokens owned by `account`."
      },
      "burn(address,address,uint256,uint256)": {
        "details": "In some instances, the mint event could be emitted from a burn transaction if the amount to burn is less than the interest that the user accrued",
        "params": {
          "amount": "The amount being burned",
          "from": "The address from which the bTokens will be burned",
          "index": "The next liquidity index of the reserve",
          "receiverOfUnderlying": "The address that will receive the underlying"
        }
      },
      "constructor": {
        "details": "Constructor.",
        "params": {
          "pool": "The address of the Pool contract"
        }
      },
      "decreaseAllowance(address,uint256)": {
        "params": {
          "spender": "The user allowed to spend on behalf of _msgSender()",
          "subtractedValue": "The amount being subtracted to the allowance"
        },
        "returns": {
          "_0": "`true`"
        }
      },
      "getIncentivesController()": {
        "returns": {
          "_0": "The address of the Incentives Controller"
        }
      },
      "getPreviousIndex(address)": {
        "params": {
          "user": "The address of the user"
        },
        "returns": {
          "_0": "The last index interest was accrued to the user's balance, expressed in ray"
        }
      },
      "getScaledUserBalanceAndSupply(address)": {
        "params": {
          "user": "The address of the user"
        },
        "returns": {
          "_0": "The scaled balance of the user",
          "_1": "The scaled total supply"
        }
      },
      "handleRepayment(address,address,uint256)": {
        "details": "The default implementation is empty as with standard ERC20 tokens, nothing needs to be done after the transfer is concluded. However in the future there may be bTokens that allow for example to stake the underlying to receive LM rewards. In that case, `handleRepayment()` would perform the staking of the underlying asset.",
        "params": {
          "amount": "The amount getting repaid",
          "onBehalfOf": "The address of the user who will get his debt reduced/removed",
          "user": "The user executing the repayment"
        }
      },
      "increaseAllowance(address,uint256)": {
        "params": {
          "addedValue": "The amount being added to the allowance",
          "spender": "The user allowed to spend on behalf of _msgSender()"
        },
        "returns": {
          "_0": "`true`"
        }
      },
      "initialize(address,address,address,address,uint8,string,string,bytes)": {
        "params": {
          "bTokenDecimals": "The decimals of the bToken, same as the underlying asset's",
          "bTokenName": "The name of the bToken",
          "bTokenSymbol": "The symbol of the bToken",
          "incentivesController": "The smart contract managing potential incentives distribution",
          "params": "A set of encoded parameters for additional initialization",
          "pool": "The pool contract that is initializing this contract",
          "treasury": "The address of the Aave treasury, receiving the fees on this bToken",
          "underlyingAsset": "The address of the underlying asset of this bToken (E.g. WETH for aWETH)"
        }
      },
      "mint(address,address,uint256,uint256)": {
        "params": {
          "amount": "The amount of tokens getting minted",
          "caller": "The address performing the mint",
          "index": "The next liquidity index of the reserve",
          "onBehalfOf": "The address of the user that will receive the minted bTokens"
        },
        "returns": {
          "_0": "`true` if the the previous balance of the user was 0"
        }
      },
      "mintToTreasury(uint256,uint256)": {
        "params": {
          "amount": "The amount of tokens getting minted",
          "index": "The next liquidity index of the reserve"
        }
      },
      "nonces(address)": {
        "details": "Overrides the base function to fully implement IBTokensee `EIP712Base.nonces()` for more detailed documentation"
      },
      "permit(address,address,uint256,uint256,uint8,bytes32,bytes32)": {
        "details": "implements the permit function as for https://github.com/ethereum/EIPs/blob/8a34d644aacf0f9f8f00815307fd7dd5da07655f/EIPS/eip-2612.md",
        "params": {
          "deadline": "The deadline timestamp, type(uint256).max for max deadline",
          "owner": "The owner of the funds",
          "r": "Signature param",
          "s": "Signature param",
          "spender": "The spender",
          "v": "Signature param",
          "value": "The amount"
        }
      },
      "rescueTokens(address,address,uint256)": {
        "params": {
          "amount": "The amount of token to transfer",
          "to": "The address of the recipient",
          "token": "The address of the token"
        }
      },
      "scaledBalanceOf(address)": {
        "details": "The scaled balance is the sum of all the updated stored balance divided by the reserve's liquidity index at the moment of the update",
        "params": {
          "user": "The user whose balance is calculated"
        },
        "returns": {
          "_0": "The scaled balance of the user"
        }
      },
      "scaledTotalSupply()": {
        "returns": {
          "_0": "The scaled total supply"
        }
      },
      "setIncentivesController(address)": {
        "params": {
          "controller": "the new Incentives controller"
        }
      },
      "totalSupply()": {
        "details": "Returns the amount of tokens in existence."
      },
      "transfer(address,uint256)": {
        "details": "Moves `amount` tokens from the caller's account to `recipient`. Returns a boolean value indicating whether the operation succeeded. Emits a {Transfer} event."
      },
      "transferFrom(address,address,uint256)": {
        "details": "Moves `amount` tokens from `sender` to `recipient` using the allowance mechanism. `amount` is then deducted from the caller's allowance. Returns a boolean value indicating whether the operation succeeded. Emits a {Transfer} event."
      },
      "transferOnLiquidation(address,address,uint256)": {
        "params": {
          "from": "The address getting liquidated, current owner of the bTokens",
          "to": "The recipient",
          "value": "The amount of tokens getting transferred"
        }
      },
      "transferUnderlyingTo(address,uint256)": {
        "details": "Used by the Pool to transfer assets in borrow(), withdraw() and flashLoan()",
        "params": {
          "amount": "The amount getting transferred",
          "target": "The recipient of the underlying"
        }
      }
    },
    "title": "Aave ERC20 BToken",
    "version": 1
  },
  "userdoc": {
    "kind": "user",
    "methods": {
      "RESERVE_TREASURY_ADDRESS()": {
        "notice": "Returns the address of the Aave treasury, receiving the fees on this bToken."
      },
      "UNDERLYING_ASSET_ADDRESS()": {
        "notice": "Returns the address of the underlying asset of this bToken (E.g. WETH for aWETH)"
      },
      "burn(address,address,uint256,uint256)": {
        "notice": "Burns bTokens from `user` and sends the equivalent amount of underlying to `receiverOfUnderlying`"
      },
      "decreaseAllowance(address,uint256)": {
        "notice": "Decreases the allowance of spender to spend _msgSender() tokens"
      },
      "getIncentivesController()": {
        "notice": "Returns the address of the Incentives Controller contract"
      },
      "getPreviousIndex(address)": {
        "notice": "Returns last index interest was accrued to the user's balance"
      },
      "getScaledUserBalanceAndSupply(address)": {
        "notice": "Returns the scaled balance of the user and the scaled total supply."
      },
      "handleRepayment(address,address,uint256)": {
        "notice": "Handles the underlying received by the bToken after the transfer has been completed."
      },
      "increaseAllowance(address,uint256)": {
        "notice": "Increases the allowance of spender to spend _msgSender() tokens"
      },
      "initialize(address,address,address,address,uint8,string,string,bytes)": {
        "notice": "Initializes the bToken"
      },
      "mint(address,address,uint256,uint256)": {
        "notice": "Mints `amount` bTokens to `user`"
      },
      "mintToTreasury(uint256,uint256)": {
        "notice": "Mints bTokens to the reserve treasury"
      },
      "permit(address,address,uint256,uint256,uint8,bytes32,bytes32)": {
        "notice": "Allow passing a signed message to approve spending"
      },
      "rescueTokens(address,address,uint256)": {
        "notice": "Rescue and transfer tokens locked in this contract"
      },
      "scaledBalanceOf(address)": {
        "notice": "Returns the scaled balance of the user."
      },
      "scaledTotalSupply()": {
        "notice": "Returns the scaled total supply of the scaled balance token. Represents sum(debt/index)"
      },
      "setIncentivesController(address)": {
        "notice": "Sets a new Incentives Controller"
      },
      "transferOnLiquidation(address,address,uint256)": {
        "notice": "Transfers bTokens in the event of a borrow being liquidated, in case the liquidators reclaims the bToken"
      },
      "transferUnderlyingTo(address,uint256)": {
        "notice": "Transfers the underlying asset to `target`."
      }
    },
    "notice": "Implementation of the interest bearing token for the Aave protocol",
    "version": 1
  },
  "storageLayout": {
    "storage": [
      {
        "astId": 36854,
        "contract": "contracts/protocol/tokenization/BToken.sol:BToken",
        "label": "lastInitializedRevision",
        "offset": 0,
        "slot": "0",
        "type": "t_uint256"
      },
      {
        "astId": 36857,
        "contract": "contracts/protocol/tokenization/BToken.sol:BToken",
        "label": "initializing",
        "offset": 0,
        "slot": "1",
        "type": "t_bool"
      },
      {
        "astId": 36927,
        "contract": "contracts/protocol/tokenization/BToken.sol:BToken",
        "label": "______gap",
        "offset": 0,
        "slot": "2",
        "type": "t_array(t_uint256)50_storage"
      },
      {
        "astId": 43559,
        "contract": "contracts/protocol/tokenization/BToken.sol:BToken",
        "label": "_userState",
        "offset": 0,
        "slot": "52",
        "type": "t_mapping(t_address,t_struct(UserState)43554_storage)"
      },
      {
        "astId": 43565,
        "contract": "contracts/protocol/tokenization/BToken.sol:BToken",
        "label": "_allowances",
        "offset": 0,
        "slot": "53",
        "type": "t_mapping(t_address,t_mapping(t_address,t_uint256))"
      },
      {
        "astId": 43567,
        "contract": "contracts/protocol/tokenization/BToken.sol:BToken",
        "label": "_totalSupply",
        "offset": 0,
        "slot": "54",
        "type": "t_uint256"
      },
      {
        "astId": 43569,
        "contract": "contracts/protocol/tokenization/BToken.sol:BToken",
        "label": "_name",
        "offset": 0,
        "slot": "55",
        "type": "t_string_storage"
      },
      {
        "astId": 43571,
        "contract": "contracts/protocol/tokenization/BToken.sol:BToken",
        "label": "_symbol",
        "offset": 0,
        "slot": "56",
        "type": "t_string_storage"
      },
      {
        "astId": 43573,
        "contract": "contracts/protocol/tokenization/BToken.sol:BToken",
        "label": "_decimals",
        "offset": 0,
        "slot": "57",
        "type": "t_uint8"
      },
      {
        "astId": 43576,
        "contract": "contracts/protocol/tokenization/BToken.sol:BToken",
        "label": "_incentivesController",
        "offset": 1,
        "slot": "57",
        "type": "t_contract(IIncentivesController)4176"
      },
      {
        "astId": 43392,
        "contract": "contracts/protocol/tokenization/BToken.sol:BToken",
        "label": "_nonces",
        "offset": 0,
        "slot": "58",
        "type": "t_mapping(t_address,t_uint256)"
      },
      {
        "astId": 43394,
        "contract": "contracts/protocol/tokenization/BToken.sol:BToken",
        "label": "_domainSeparator",
        "offset": 0,
        "slot": "59",
        "type": "t_bytes32"
      },
      {
        "astId": 41044,
        "contract": "contracts/protocol/tokenization/BToken.sol:BToken",
        "label": "_treasury",
        "offset": 0,
        "slot": "60",
        "type": "t_address"
      },
      {
        "astId": 41046,
        "contract": "contracts/protocol/tokenization/BToken.sol:BToken",
        "label": "_underlyingAsset",
        "offset": 0,
        "slot": "61",
        "type": "t_address"
      }
    ],
    "types": {
      "t_address": {
        "encoding": "inplace",
        "label": "address",
        "numberOfBytes": "20"
      },
      "t_array(t_uint256)50_storage": {
        "base": "t_uint256",
        "encoding": "inplace",
        "label": "uint256[50]",
        "numberOfBytes": "1600"
      },
      "t_bool": {
        "encoding": "inplace",
        "label": "bool",
        "numberOfBytes": "1"
      },
      "t_bytes32": {
        "encoding": "inplace",
        "label": "bytes32",
        "numberOfBytes": "32"
      },
      "t_contract(IIncentivesController)4176": {
        "encoding": "inplace",
        "label": "contract IIncentivesController",
        "numberOfBytes": "20"
      },
      "t_mapping(t_address,t_mapping(t_address,t_uint256))": {
        "encoding": "mapping",
        "key": "t_address",
        "label": "mapping(address => mapping(address => uint256))",
        "numberOfBytes": "32",
        "value": "t_mapping(t_address,t_uint256)"
      },
      "t_mapping(t_address,t_struct(UserState)43554_storage)": {
        "encoding": "mapping",
        "key": "t_address",
        "label": "mapping(address => struct IncentivizedERC20.UserState)",
        "numberOfBytes": "32",
        "value": "t_struct(UserState)43554_storage"
      },
      "t_mapping(t_address,t_uint256)": {
        "encoding": "mapping",
        "key": "t_address",
        "label": "mapping(address => uint256)",
        "numberOfBytes": "32",
        "value": "t_uint256"
      },
      "t_string_storage": {
        "encoding": "bytes",
        "label": "string",
        "numberOfBytes": "32"
      },
      "t_struct(UserState)43554_storage": {
        "encoding": "inplace",
        "label": "struct IncentivizedERC20.UserState",
        "members": [
          {
            "astId": 43551,
            "contract": "contracts/protocol/tokenization/BToken.sol:BToken",
            "label": "balance",
            "offset": 0,
            "slot": "0",
            "type": "t_uint128"
          },
          {
            "astId": 43553,
            "contract": "contracts/protocol/tokenization/BToken.sol:BToken",
            "label": "additionalData",
            "offset": 16,
            "slot": "0",
            "type": "t_uint128"
          }
        ],
        "numberOfBytes": "32"
      },
      "t_uint128": {
        "encoding": "inplace",
        "label": "uint128",
        "numberOfBytes": "16"
      },
      "t_uint256": {
        "encoding": "inplace",
        "label": "uint256",
        "numberOfBytes": "32"
      },
      "t_uint8": {
        "encoding": "inplace",
        "label": "uint8",
        "numberOfBytes": "1"
      }
    }
  }
}