{
  "address": "0x0DCd1Bf9A1b36cE34237eEaFef220932846BCD82",
  "abi": [
    {
      "inputs": [
        {
          "internalType": "int256",
          "name": "initialAnswer",
          "type": "int256"
        }
      ],
      "stateMutability": "nonpayable",
      "type": "constructor"
    },
    {
      "anonymous": false,
      "inputs": [
        {
          "indexed": true,
          "internalType": "int256",
          "name": "current",
          "type": "int256"
        },
        {
          "indexed": true,
          "internalType": "uint256",
          "name": "roundId",
          "type": "uint256"
        },
        {
          "indexed": false,
          "internalType": "uint256",
          "name": "updatedAt",
          "type": "uint256"
        }
      ],
      "name": "AnswerUpdated",
      "type": "event"
    },
    {
      "inputs": [],
      "name": "decimals",
      "outputs": [
        {
          "internalType": "uint8",
          "name": "",
          "type": "uint8"
        }
      ],
      "stateMutability": "pure",
      "type": "function"
    },
    {
      "inputs": [],
      "name": "getTokenType",
      "outputs": [
        {
          "internalType": "uint256",
          "name": "",
          "type": "uint256"
        }
      ],
      "stateMutability": "pure",
      "type": "function"
    },
    {
      "inputs": [],
      "name": "latestAnswer",
      "outputs": [
        {
          "internalType": "int256",
          "name": "",
          "type": "int256"
        }
      ],
      "stateMutability": "view",
      "type": "function"
    }
  ],
  "transactionHash": "0xcd0a3931dd15d1471ec6373b6bb327d6406bc46eb365aaa9a8baa582c0b78db2",
  "args": [
    "100000000"
  ],
  "numDeployments": 1,
  "solcInputHash": "c351ce62b62f76bd5a8479a8f9cf6c24",
  "bytecode": "0x608060405234801561001057600080fd5b5060405161013838038061013883398101604081905261002f9161006f565b600081815560405142815282907f0559884fd3a460db3073b7fc896cc77986f16e378210ded43186175bf646fc5f9060200160405180910390a350610088565b60006020828403121561008157600080fd5b5051919050565b60a2806100966000396000f3fe6080604052348015600f57600080fd5b5060043610603c5760003560e01c8063313ce56714604157806350d25bcd146055578063fcab1819146066575b600080fd5b604051600881526020015b60405180910390f35b6000545b604051908152602001604c565b6001605956fea2646970667358221220ea93e04b4a33b55c548e702d34a7a78373fb0ee62a3cbdc7eda52a0416c4888f64736f6c63430008140033",
  "devdoc": {
    "kind": "dev",
    "methods": {},
    "version": 1
  },
  "userdoc": {
    "kind": "user",
    "methods": {},
    "version": 1
  },
  "storageLayout": {
    "storage": [
      {
        "astId": 9632,
        "contract": "contracts/mocks/oracle/CLAggregators/MockAggregator.sol:MockAggregator",
        "label": "_latestAnswer",
        "offset": 0,
        "slot": "0",
        "type": "t_int256"
      }
    ],
    "types": {
      "t_int256": {
        "encoding": "inplace",
        "label": "int256",
        "numberOfBytes": "32"
      }
    }
  }
}