{
  "address": "0x84eA74d481Ee0A5332c457a4d796187F6Ba67fEB",
  "abi": [
    {
      "inputs": [
        {
          "internalType": "string",
          "name": "marketId",
          "type": "string"
        },
        {
          "internalType": "address",
          "name": "owner",
          "type": "address"
        }
      ],
      "stateMutability": "nonpayable",
      "type": "constructor"
    },
    {
      "anonymous": false,
      "inputs": [
        {
          "indexed": true,
          "internalType": "address",
          "name": "oldAddress",
          "type": "address"
        },
        {
          "indexed": true,
          "internalType": "address",
          "name": "newAddress",
          "type": "address"
        }
      ],
      "name": "ACLAdminUpdated",
      "type": "event"
    },
    {
      "anonymous": false,
      "inputs": [
        {
          "indexed": true,
          "internalType": "address",
          "name": "oldAddress",
          "type": "address"
        },
        {
          "indexed": true,
          "internalType": "address",
          "name": "newAddress",
          "type": "address"
        }
      ],
      "name": "ACLManagerUpdated",
      "type": "event"
    },
    {
      "anonymous": false,
      "inputs": [
        {
          "indexed": true,
          "internalType": "bytes32",
          "name": "id",
          "type": "bytes32"
        },
        {
          "indexed": true,
          "internalType": "address",
          "name": "oldAddress",
          "type": "address"
        },
        {
          "indexed": true,
          "internalType": "address",
          "name": "newAddress",
          "type": "address"
        }
      ],
      "name": "AddressSet",
      "type": "event"
    },
    {
      "anonymous": false,
      "inputs": [
        {
          "indexed": true,
          "internalType": "bytes32",
          "name": "id",
          "type": "bytes32"
        },
        {
          "indexed": true,
          "internalType": "address",
          "name": "proxyAddress",
          "type": "address"
        },
        {
          "indexed": false,
          "internalType": "address",
          "name": "oldImplementationAddress",
          "type": "address"
        },
        {
          "indexed": true,
          "internalType": "address",
          "name": "newImplementationAddress",
          "type": "address"
        }
      ],
      "name": "AddressSetAsProxy",
      "type": "event"
    },
    {
      "anonymous": false,
      "inputs": [
        {
          "indexed": true,
          "internalType": "string",
          "name": "oldMarketId",
          "type": "string"
        },
        {
          "indexed": true,
          "internalType": "string",
          "name": "newMarketId",
          "type": "string"
        }
      ],
      "name": "MarketIdSet",
      "type": "event"
    },
    {
      "anonymous": false,
      "inputs": [
        {
          "indexed": true,
          "internalType": "address",
          "name": "previousOwner",
          "type": "address"
        },
        {
          "indexed": true,
          "internalType": "address",
          "name": "newOwner",
          "type": "address"
        }
      ],
      "name": "OwnershipTransferred",
      "type": "event"
    },
    {
      "anonymous": false,
      "inputs": [
        {
          "indexed": true,
          "internalType": "address",
          "name": "oldAddress",
          "type": "address"
        },
        {
          "indexed": true,
          "internalType": "address",
          "name": "newAddress",
          "type": "address"
        }
      ],
      "name": "PoolConfiguratorUpdated",
      "type": "event"
    },
    {
      "anonymous": false,
      "inputs": [
        {
          "indexed": true,
          "internalType": "address",
          "name": "oldAddress",
          "type": "address"
        },
        {
          "indexed": true,
          "internalType": "address",
          "name": "newAddress",
          "type": "address"
        }
      ],
      "name": "PoolDataProviderUpdated",
      "type": "event"
    },
    {
      "anonymous": false,
      "inputs": [
        {
          "indexed": true,
          "internalType": "address",
          "name": "oldAddress",
          "type": "address"
        },
        {
          "indexed": true,
          "internalType": "address",
          "name": "newAddress",
          "type": "address"
        }
      ],
      "name": "PoolUpdated",
      "type": "event"
    },
    {
      "anonymous": false,
      "inputs": [
        {
          "indexed": true,
          "internalType": "address",
          "name": "oldAddress",
          "type": "address"
        },
        {
          "indexed": true,
          "internalType": "address",
          "name": "newAddress",
          "type": "address"
        }
      ],
      "name": "PriceOracleSentinelUpdated",
      "type": "event"
    },
    {
      "anonymous": false,
      "inputs": [
        {
          "indexed": true,
          "internalType": "address",
          "name": "oldAddress",
          "type": "address"
        },
        {
          "indexed": true,
          "internalType": "address",
          "name": "newAddress",
          "type": "address"
        }
      ],
      "name": "PriceOracleUpdated",
      "type": "event"
    },
    {
      "anonymous": false,
      "inputs": [
        {
          "indexed": true,
          "internalType": "bytes32",
          "name": "id",
          "type": "bytes32"
        },
        {
          "indexed": true,
          "internalType": "address",
          "name": "proxyAddress",
          "type": "address"
        },
        {
          "indexed": true,
          "internalType": "address",
          "name": "implementationAddress",
          "type": "address"
        }
      ],
      "name": "ProxyCreated",
      "type": "event"
    },
    {
      "inputs": [],
      "name": "getACLAdmin",
      "outputs": [
        {
          "internalType": "address",
          "name": "",
          "type": "address"
        }
      ],
      "stateMutability": "view",
      "type": "function"
    },
    {
      "inputs": [],
      "name": "getACLManager",
      "outputs": [
        {
          "internalType": "address",
          "name": "",
          "type": "address"
        }
      ],
      "stateMutability": "view",
      "type": "function"
    },
    {
      "inputs": [
        {
          "internalType": "bytes32",
          "name": "id",
          "type": "bytes32"
        }
      ],
      "name": "getAddress",
      "outputs": [
        {
          "internalType": "address",
          "name": "",
          "type": "address"
        }
      ],
      "stateMutability": "view",
      "type": "function"
    },
    {
      "inputs": [],
      "name": "getMarketId",
      "outputs": [
        {
          "internalType": "string",
          "name": "",
          "type": "string"
        }
      ],
      "stateMutability": "view",
      "type": "function"
    },
    {
      "inputs": [],
      "name": "getPool",
      "outputs": [
        {
          "internalType": "address",
          "name": "",
          "type": "address"
        }
      ],
      "stateMutability": "view",
      "type": "function"
    },
    {
      "inputs": [],
      "name": "getPoolConfigurator",
      "outputs": [
        {
          "internalType": "address",
          "name": "",
          "type": "address"
        }
      ],
      "stateMutability": "view",
      "type": "function"
    },
    {
      "inputs": [],
      "name": "getPoolDataProvider",
      "outputs": [
        {
          "internalType": "address",
          "name": "",
          "type": "address"
        }
      ],
      "stateMutability": "view",
      "type": "function"
    },
    {
      "inputs": [],
      "name": "getPriceOracle",
      "outputs": [
        {
          "internalType": "address",
          "name": "",
          "type": "address"
        }
      ],
      "stateMutability": "view",
      "type": "function"
    },
    {
      "inputs": [],
      "name": "getPriceOracleSentinel",
      "outputs": [
        {
          "internalType": "address",
          "name": "",
          "type": "address"
        }
      ],
      "stateMutability": "view",
      "type": "function"
    },
    {
      "inputs": [],
      "name": "owner",
      "outputs": [
        {
          "internalType": "address",
          "name": "",
          "type": "address"
        }
      ],
      "stateMutability": "view",
      "type": "function"
    },
    {
      "inputs": [],
      "name": "renounceOwnership",
      "outputs": [],
      "stateMutability": "nonpayable",
      "type": "function"
    },
    {
      "inputs": [
        {
          "internalType": "address",
          "name": "newAclAdmin",
          "type": "address"
        }
      ],
      "name": "setACLAdmin",
      "outputs": [],
      "stateMutability": "nonpayable",
      "type": "function"
    },
    {
      "inputs": [
        {
          "internalType": "address",
          "name": "newAclManager",
          "type": "address"
        }
      ],
      "name": "setACLManager",
      "outputs": [],
      "stateMutability": "nonpayable",
      "type": "function"
    },
    {
      "inputs": [
        {
          "internalType": "bytes32",
          "name": "id",
          "type": "bytes32"
        },
        {
          "internalType": "address",
          "name": "newAddress",
          "type": "address"
        }
      ],
      "name": "setAddress",
      "outputs": [],
      "stateMutability": "nonpayable",
      "type": "function"
    },
    {
      "inputs": [
        {
          "internalType": "bytes32",
          "name": "id",
          "type": "bytes32"
        },
        {
          "internalType": "address",
          "name": "newImplementationAddress",
          "type": "address"
        }
      ],
      "name": "setAddressAsProxy",
      "outputs": [],
      "stateMutability": "nonpayable",
      "type": "function"
    },
    {
      "inputs": [
        {
          "internalType": "string",
          "name": "newMarketId",
          "type": "string"
        }
      ],
      "name": "setMarketId",
      "outputs": [],
      "stateMutability": "nonpayable",
      "type": "function"
    },
    {
      "inputs": [
        {
          "internalType": "address",
          "name": "newPoolConfiguratorImpl",
          "type": "address"
        }
      ],
      "name": "setPoolConfiguratorImpl",
      "outputs": [],
      "stateMutability": "nonpayable",
      "type": "function"
    },
    {
      "inputs": [
        {
          "internalType": "address",
          "name": "newDataProvider",
          "type": "address"
        }
      ],
      "name": "setPoolDataProvider",
      "outputs": [],
      "stateMutability": "nonpayable",
      "type": "function"
    },
    {
      "inputs": [
        {
          "internalType": "address",
          "name": "newPoolImpl",
          "type": "address"
        }
      ],
      "name": "setPoolImpl",
      "outputs": [],
      "stateMutability": "nonpayable",
      "type": "function"
    },
    {
      "inputs": [
        {
          "internalType": "address",
          "name": "newPriceOracle",
          "type": "address"
        }
      ],
      "name": "setPriceOracle",
      "outputs": [],
      "stateMutability": "nonpayable",
      "type": "function"
    },
    {
      "inputs": [
        {
          "internalType": "address",
          "name": "newPriceOracleSentinel",
          "type": "address"
        }
      ],
      "name": "setPriceOracleSentinel",
      "outputs": [],
      "stateMutability": "nonpayable",
      "type": "function"
    },
    {
      "inputs": [
        {
          "internalType": "address",
          "name": "newOwner",
          "type": "address"
        }
      ],
      "name": "transferOwnership",
      "outputs": [],
      "stateMutability": "nonpayable",
      "type": "function"
    }
  ],
  "transactionHash": "0xec877ded557d9b09e45b48b4ff15253e118fb8a30b3cd3da9a279b59b29fe9dd",
  "args": [
    "Commons Blend Market",
    "0xf39Fd6e51aad88F6F4ce6aB8827279cffFb92266"
  ],
  "numDeployments": 1,
  "solcInputHash": "c351ce62b62f76bd5a8479a8f9cf6c24",
  "bytecode": "0x60806040523480156200001157600080fd5b5060405162002071380380620020718339810160408190526200003491620002f1565b600080546001600160a01b0319163390811782556040519091829160008051602062002051833981519152908290a3506200006f8262000082565b6200007a8162000187565b505062000537565b6000600180546200009390620003be565b80601f0160208091040260200160405190810160405280929190818152602001828054620000c190620003be565b8015620001125780601f10620000e65761010080835404028352916020019162000112565b820191906000526020600020905b815481529060010190602001808311620000f457829003601f168201915b5050505050905081600190816200012a91906200044d565b50816040516200013b919062000519565b60405180910390208160405162000153919062000519565b604051908190038120907fe685c8cdecc6030c45030fd54778812cb84ed8e4467c38294403d68ba786082390600090a35050565b6000546001600160a01b03163314620001e75760405162461bcd60e51b815260206004820181905260248201527f4f776e61626c653a2063616c6c6572206973206e6f7420746865206f776e657260448201526064015b60405180910390fd5b6001600160a01b0381166200024e5760405162461bcd60e51b815260206004820152602660248201527f4f776e61626c653a206e6577206f776e657220697320746865207a65726f206160448201526564647265737360d01b6064820152608401620001de565b600080546040516001600160a01b03808516939216916000805160206200205183398151915291a3600080546001600160a01b0319166001600160a01b0392909216919091179055565b634e487b7160e01b600052604160045260246000fd5b60005b83811015620002cb578181015183820152602001620002b1565b50506000910152565b80516001600160a01b0381168114620002ec57600080fd5b919050565b600080604083850312156200030557600080fd5b82516001600160401b03808211156200031d57600080fd5b818501915085601f8301126200033257600080fd5b81518181111562000347576200034762000298565b604051601f8201601f19908116603f0116810190838211818310171562000372576200037262000298565b816040528281528860208487010111156200038c57600080fd5b6200039f836020830160208801620002ae565b8096505050505050620003b560208401620002d4565b90509250929050565b600181811c90821680620003d357607f821691505b602082108103620003f457634e487b7160e01b600052602260045260246000fd5b50919050565b601f8211156200044857600081815260208120601f850160051c81016020861015620004235750805b601f850160051c820191505b8181101562000444578281556001016200042f565b5050505b505050565b81516001600160401b0381111562000469576200046962000298565b62000481816200047a8454620003be565b84620003fa565b602080601f831160018114620004b95760008415620004a05750858301515b600019600386901b1c1916600185901b17855562000444565b600085815260208120601f198616915b82811015620004ea57888601518255948401946001909101908401620004c9565b5085821015620005095787850151600019600388901b60f8161c191681555b5050505050600190811b01905550565b600082516200052d818460208701620002ae565b9190910192915050565b611b0a80620005476000396000f3fe608060405234801561001057600080fd5b50600436106101425760003560e01c806376d84ffc116100b8578063e4ca28b71161007c578063e4ca28b714610254578063e860accb14610267578063ed301ca91461026f578063f2fde38b14610282578063f67b184714610295578063fca513a8146102a857600080fd5b806376d84ffc146101f75780638da5cb5b1461020a578063a15644061461021b578063ca446dd91461022e578063e44e9ed11461024157600080fd5b80635dcc528c1161010a5780635dcc528c146101b15780635eb88d3d146101c4578063631adfca146101cc578063707cd716146101d4578063715018a6146101dc57806374944cec146101e457600080fd5b8063026b1d5f146101475780630e67178c1461016c57806321f8a72114610174578063530e784f14610187578063568ef4701461019c575b600080fd5b61014f6102b0565b6040516001600160a01b0390911681526020015b60405180910390f35b61014f6102c7565b61014f610182366004610f18565b6102da565b61019a610195366004610f46565b6102f5565b005b6101a46103b0565b6040516101639190610fba565b61019a6101bf366004610fcd565b610442565b61014f6104e7565b61014f61050a565b61014f610529565b61019a610542565b61019a6101f2366004610f46565b6105b6565b61019a610205366004610f46565b610671565b6000546001600160a01b031661014f565b61019a610229366004610f46565b610720565b61019a61023c366004610fcd565b6107b3565b61019a61024f366004610f46565b61083b565b61019a610262366004610f46565b6108ee565b61014f61099b565b61019a61027d366004610f46565b6109b6565b61019a610290366004610f46565b610a67565b61019a6102a3366004611013565b610b51565b61014f610b87565b60006102c2631413d3d360e21b6102da565b905090565b60006102c26820a1a62fa0a226a4a760b91b5b6000908152600260205260409020546001600160a01b031690565b6000546001600160a01b031633146103285760405162461bcd60e51b815260040161031f906110c4565b60405180910390fd5b6b50524943455f4f5241434c4560a01b600090815260026020527f740f710666bd7a12af42df98311e541e47f7fd33d382d11602457a6d540cbd6380546001600160a01b038481166001600160a01b03198316811790935560405191169283917f56b5f80d8cac1479698aa7d01605fd6111e90b15fc4d2b377417f46034876cbd9190a35050565b6060600180546103bf906110f9565b80601f01602080910402602001604051908101604052809291908181526020018280546103eb906110f9565b80156104385780601f1061040d57610100808354040283529160200191610438565b820191906000526020600020905b81548152906001019060200180831161041b57829003601f168201915b5050505050905090565b6000546001600160a01b0316331461046c5760405162461bcd60e51b815260040161031f906110c4565b6000828152600260205260408120546001600160a01b03169061048e84610ba1565b905061049a8484610c3e565b6040516001600160a01b038281168252808516919084169086907f3bbd45b5429b385e3fb37ad5cd1cd1435a3c8ec32196c7937597365a3fd3e99c9060200160405180910390a450505050565b60006102c27414149250d157d3d49050d31157d4d1539512539153605a1b6102da565b60006102c2702827a7a62fa1a7a72324a3aaa920aa27a960791b6102da565b60006102c26a20a1a62fa6a0a720a3a2a960a91b6102da565b6000546001600160a01b0316331461056c5760405162461bcd60e51b815260040161031f906110c4565b600080546040516001600160a01b03909116907f8be0079c531659141344cd1fd0a4f28419497f9722a3daafe3b4186f6b6457e0908390a3600080546001600160a01b0319169055565b6000546001600160a01b031633146105e05760405162461bcd60e51b815260040161031f906110c4565b7414149250d157d3d49050d31157d4d1539512539153605a1b600090815260026020527f0d2c1bcee56447b4f46248272f34207a580a5c40f666a31f4e2fbb470ea53ab880546001600160a01b038481166001600160a01b03198316811790935560405191169283917f5326514eeca90494a14bedabcff812a0e683029ee85d1e23824d44fd14cd6ae79190a35050565b6000546001600160a01b0316331461069b5760405162461bcd60e51b815260040161031f906110c4565b6820a1a62fa0a226a4a760b91b600090815260026020527ffab167ad2009dcb80ee379700bb4bd029d97c1181ed9d961625632c8a6f051c680546001600160a01b038481166001600160a01b03198316811790935560405191169283917fe9cf53972264dc95304fd424458745019ddfca0e37ae8f703d74772c41ad115b9190a35050565b6000546001600160a01b0316331461074a5760405162461bcd60e51b815260040161031f906110c4565b600061075c631413d3d360e21b610ba1565b905061076f631413d3d360e21b83610c3e565b816001600160a01b0316816001600160a01b03167f90affc163f1a2dfedcd36aa02ed992eeeba8100a4014f0b4cdc20ea265a6662760405160405180910390a35050565b6000546001600160a01b031633146107dd5760405162461bcd60e51b815260040161031f906110c4565b60008281526002602052604080822080546001600160a01b031981166001600160a01b038681169182179093559251911692839186917f9ef0e8c8e52743bb38b83b17d9429141d494b8041ca6d616a6c77cebae9cd8b791a4505050565b6000546001600160a01b031633146108655760405162461bcd60e51b815260040161031f906110c4565b6c2220aa20afa82927ab24a222a960991b600090815260026020527fcd7944601aaa5cd7ccdae1bebec659e98c6aac8f12486b30e59db0d39698051f80546001600160a01b038481166001600160a01b03198316811790935560405191169283917fc853974cfbf81487a14a23565917bee63f527853bcb5fa54f2ae1cdf8a38356d9190a35050565b6000546001600160a01b031633146109185760405162461bcd60e51b815260040161031f906110c4565b6000610937702827a7a62fa1a7a72324a3aaa920aa27a960791b610ba1565b9050610957702827a7a62fa1a7a72324a3aaa920aa27a960791b83610c3e565b816001600160a01b0316816001600160a01b03167f8932892569eba59c8382a089d9b732d1f49272878775235761a2a6b0309cd46560405160405180910390a35050565b60006102c26c2220aa20afa82927ab24a222a960991b6102da565b6000546001600160a01b031633146109e05760405162461bcd60e51b815260040161031f906110c4565b6a20a1a62fa6a0a720a3a2a960a91b600090815260026020527f9edef266ef35fd0c6e131df0f31a330f3dd4c4d19dd31ed615c21d005c68116b80546001600160a01b038481166001600160a01b03198316811790935560405191169283917fb30efa04327bb8a537d61cc1e5c48095345ad18ef7cc04e6bacf7dfb6caaf5079190a35050565b6000546001600160a01b03163314610a915760405162461bcd60e51b815260040161031f906110c4565b6001600160a01b038116610af65760405162461bcd60e51b815260206004820152602660248201527f4f776e61626c653a206e6577206f776e657220697320746865207a65726f206160448201526564647265737360d01b606482015260840161031f565b600080546040516001600160a01b03808516939216917f8be0079c531659141344cd1fd0a4f28419497f9722a3daafe3b4186f6b6457e091a3600080546001600160a01b0319166001600160a01b0392909216919091179055565b6000546001600160a01b03163314610b7b5760405162461bcd60e51b815260040161031f906110c4565b610b8481610e14565b50565b60006102c26b50524943455f4f5241434c4560a01b6102da565b6000818152600260205260408120546001600160a01b031680610bc75750600092915050565b6000819050806001600160a01b0316635c60da1b6040518163ffffffff1660e01b81526004016020604051808303816000875af1158015610c0c573d6000803e3d6000fd5b505050506040513d601f19601f82011682018060405250810190610c30919061112d565b949350505050565b50919050565b6000828152600260205260408082205490513060248201526001600160a01b039091169190819060440160408051601f198184030181529190526020810180516001600160e01b031663189acdbd60e31b17905290506001600160a01b038316610da95730604051610caf90610f0b565b6001600160a01b039091168152602001604051809103906000f080158015610cdb573d6000803e3d6000fd5b506000868152600260205260409081902080546001600160a01b0319166001600160a01b038416908117909155905163347d5e2560e21b81529194508493509063d1f5789490610d31908790859060040161114a565b600060405180830381600087803b158015610d4b57600080fd5b505af1158015610d5f573d6000803e3d6000fd5b50505050836001600160a01b0316836001600160a01b0316867f4a465a9bd819d9662563c1e11ae958f8109e437e7f4bf1c6ef0b9a7b3f35d47860405160405180910390a4610e0d565b60405163278f794360e11b81528392506001600160a01b03831690634f1ef28690610dda908790859060040161114a565b600060405180830381600087803b158015610df457600080fd5b505af1158015610e08573d6000803e3d6000fd5b505050505b5050505050565b600060018054610e23906110f9565b80601f0160208091040260200160405190810160405280929190818152602001828054610e4f906110f9565b8015610e9c5780601f10610e7157610100808354040283529160200191610e9c565b820191906000526020600020905b815481529060010190602001808311610e7f57829003601f168201915b505050505090508160019081610eb291906111bd565b5081604051610ec1919061127d565b604051809103902081604051610ed7919061127d565b604051908190038120907fe685c8cdecc6030c45030fd54778812cb84ed8e4467c38294403d68ba786082390600090a35050565b61083b8061129a83390190565b600060208284031215610f2a57600080fd5b5035919050565b6001600160a01b0381168114610b8457600080fd5b600060208284031215610f5857600080fd5b8135610f6381610f31565b9392505050565b60005b83811015610f85578181015183820152602001610f6d565b50506000910152565b60008151808452610fa6816020860160208601610f6a565b601f01601f19169290920160200192915050565b602081526000610f636020830184610f8e565b60008060408385031215610fe057600080fd5b823591506020830135610ff281610f31565b809150509250929050565b634e487b7160e01b600052604160045260246000fd5b60006020828403121561102557600080fd5b813567ffffffffffffffff8082111561103d57600080fd5b818401915084601f83011261105157600080fd5b81358181111561106357611063610ffd565b604051601f8201601f19908116603f0116810190838211818310171561108b5761108b610ffd565b816040528281528760208487010111156110a457600080fd5b826020860160208301376000928101602001929092525095945050505050565b6020808252818101527f4f776e61626c653a2063616c6c6572206973206e6f7420746865206f776e6572604082015260600190565b600181811c9082168061110d57607f821691505b602082108103610c3857634e487b7160e01b600052602260045260246000fd5b60006020828403121561113f57600080fd5b8151610f6381610f31565b6001600160a01b0383168152604060208201819052600090610c3090830184610f8e565b601f8211156111b857600081815260208120601f850160051c810160208610156111955750805b601f850160051c820191505b818110156111b4578281556001016111a1565b5050505b505050565b815167ffffffffffffffff8111156111d7576111d7610ffd565b6111eb816111e584546110f9565b8461116e565b602080601f83116001811461122057600084156112085750858301515b600019600386901b1c1916600185901b1785556111b4565b600085815260208120601f198616915b8281101561124f57888601518255948401946001909101908401611230565b508582101561126d5787850151600019600388901b60f8161c191681555b5050505050600190811b01905550565b6000825161128f818460208701610f6a565b919091019291505056fe60a060405234801561001057600080fd5b5060405161083b38038061083b83398101604081905261002f91610040565b6001600160a01b0316608052610070565b60006020828403121561005257600080fd5b81516001600160a01b038116811461006957600080fd5b9392505050565b60805161078d6100ae60003960008181610112015281816101560152818161020e0152818161034d015281816103760152610499015261078d6000f3fe60806040526004361061004a5760003560e01c80633659cfe6146100545780634f1ef286146100745780635c60da1b14610087578063d1f57894146100b8578063f851a440146100cb575b6100526100e0565b005b34801561006057600080fd5b5061005261006f36600461053e565b610108565b610052610082366004610560565b61014c565b34801561009357600080fd5b5061009c610202565b6040516001600160a01b03909116815260200160405180910390f35b6100526100c63660046105f9565b610253565b3480156100d757600080fd5b5061009c610341565b6100e8610398565b6101066101016000805160206107388339815191525490565b6103a0565b565b6001600160a01b037f000000000000000000000000000000000000000000000000000000000000000016330361014457610141816103c4565b50565b6101416100e0565b6001600160a01b037f00000000000000000000000000000000000000000000000000000000000000001633036101f557610185836103c4565b6000836001600160a01b031683836040516101a19291906106bb565b600060405180830381855af49150503d80600081146101dc576040519150601f19603f3d011682016040523d82523d6000602084013e6101e1565b606091505b50509050806101ef57600080fd5b50505050565b6101fd6100e0565b505050565b60006001600160a01b037f000000000000000000000000000000000000000000000000000000000000000016330361024857506000805160206107388339815191525490565b6102506100e0565b90565b600061026b6000805160206107388339815191525490565b6001600160a01b03161461027e57600080fd5b6102a960017f360894a13ba1a3210667c828492db98dca3e2076cc3735a920a3ca505d382bbd6106cb565b600080516020610738833981519152146102c5576102c56106f2565b6102ce82610404565b80511561033d576000826001600160a01b0316826040516102ef9190610708565b600060405180830381855af49150503d806000811461032a576040519150601f19603f3d011682016040523d82523d6000602084013e61032f565b606091505b50509050806101fd57600080fd5b5050565b60006001600160a01b037f000000000000000000000000000000000000000000000000000000000000000016330361024857507f000000000000000000000000000000000000000000000000000000000000000090565b61010661048f565b3660008037600080366000845af43d6000803e8080156103bf573d6000f35b3d6000fd5b6103cd81610404565b6040516001600160a01b038216907fbc7cd75a20ee27fd9adebab32041f755214dbc6bffa90cc0225b39da2e5c2d3b90600090a250565b803b61047d5760405162461bcd60e51b815260206004820152603b60248201527f43616e6e6f742073657420612070726f787920696d706c656d656e746174696f60448201527f6e20746f2061206e6f6e2d636f6e74726163742061646472657373000000000060648201526084015b60405180910390fd5b60008051602061073883398151915255565b6001600160a01b037f00000000000000000000000000000000000000000000000000000000000000001633036101065760405162461bcd60e51b815260206004820152603260248201527f43616e6e6f742063616c6c2066616c6c6261636b2066756e6374696f6e20667260448201527137b6903a343290383937bc3c9030b236b4b760711b6064820152608401610474565b80356001600160a01b038116811461053957600080fd5b919050565b60006020828403121561055057600080fd5b61055982610522565b9392505050565b60008060006040848603121561057557600080fd5b61057e84610522565b9250602084013567ffffffffffffffff8082111561059b57600080fd5b818601915086601f8301126105af57600080fd5b8135818111156105be57600080fd5b8760208285010111156105d057600080fd5b6020830194508093505050509250925092565b634e487b7160e01b600052604160045260246000fd5b6000806040838503121561060c57600080fd5b61061583610522565b9150602083013567ffffffffffffffff8082111561063257600080fd5b818501915085601f83011261064657600080fd5b813581811115610658576106586105e3565b604051601f8201601f19908116603f01168101908382118183101715610680576106806105e3565b8160405282815288602084870101111561069957600080fd5b8260208601602083013760006020848301015280955050505050509250929050565b8183823760009101908152919050565b818103818111156106ec57634e487b7160e01b600052601160045260246000fd5b92915050565b634e487b7160e01b600052600160045260246000fd5b6000825160005b81811015610729576020818601810151858301520161070f565b50600092019182525091905056fe360894a13ba1a3210667c828492db98dca3e2076cc3735a920a3ca505d382bbca2646970667358221220e40091883b1bdf23bc1387a54a12fa477629a9643c52a92dd39aae7996926f7564736f6c63430008140033a264697066735822122000fd3498a75320721d6b4d9978187cb20a2954c5b74ca2768171861e23046a3664736f6c634300081400338be0079c531659141344cd1fd0a4f28419497f9722a3daafe3b4186f6b6457e0",
  "devdoc": {
    "author": "Aave",
    "details": "Acts as factory of proxies and admin of those, so with right to change its implementationsOwned by the Aave Governance",
    "events": {
      "ACLAdminUpdated(address,address)": {
        "details": "Emitted when the ACL admin is updated.",
        "params": {
          "newAddress": "The new address of the ACLAdmin",
          "oldAddress": "The old address of the ACLAdmin"
        }
      },
      "ACLManagerUpdated(address,address)": {
        "details": "Emitted when the ACL manager is updated.",
        "params": {
          "newAddress": "The new address of the ACLManager",
          "oldAddress": "The old address of the ACLManager"
        }
      },
      "AddressSet(bytes32,address,address)": {
        "details": "Emitted when a new non-proxied contract address is registered.",
        "params": {
          "id": "The identifier of the contract",
          "newAddress": "The address of the new contract",
          "oldAddress": "The address of the old contract"
        }
      },
      "AddressSetAsProxy(bytes32,address,address,address)": {
        "details": "Emitted when the implementation of the proxy registered with id is updated",
        "params": {
          "id": "The identifier of the contract",
          "newImplementationAddress": "The address of the new implementation contract",
          "oldImplementationAddress": "The address of the old implementation contract",
          "proxyAddress": "The address of the proxy contract"
        }
      },
      "MarketIdSet(string,string)": {
        "details": "Emitted when the market identifier is updated.",
        "params": {
          "newMarketId": "The new id of the market",
          "oldMarketId": "The old id of the market"
        }
      },
      "PoolConfiguratorUpdated(address,address)": {
        "details": "Emitted when the pool configurator is updated.",
        "params": {
          "newAddress": "The new address of the PoolConfigurator",
          "oldAddress": "The old address of the PoolConfigurator"
        }
      },
      "PoolDataProviderUpdated(address,address)": {
        "details": "Emitted when the pool data provider is updated.",
        "params": {
          "newAddress": "The new address of the PoolDataProvider",
          "oldAddress": "The old address of the PoolDataProvider"
        }
      },
      "PoolUpdated(address,address)": {
        "details": "Emitted when the pool is updated.",
        "params": {
          "newAddress": "The new address of the Pool",
          "oldAddress": "The old address of the Pool"
        }
      },
      "PriceOracleSentinelUpdated(address,address)": {
        "details": "Emitted when the price oracle sentinel is updated.",
        "params": {
          "newAddress": "The new address of the PriceOracleSentinel",
          "oldAddress": "The old address of the PriceOracleSentinel"
        }
      },
      "PriceOracleUpdated(address,address)": {
        "details": "Emitted when the price oracle is updated.",
        "params": {
          "newAddress": "The new address of the PriceOracle",
          "oldAddress": "The old address of the PriceOracle"
        }
      },
      "ProxyCreated(bytes32,address,address)": {
        "details": "Emitted when a new proxy is created.",
        "params": {
          "id": "The identifier of the proxy",
          "implementationAddress": "The address of the implementation contract",
          "proxyAddress": "The address of the created proxy contract"
        }
      }
    },
    "kind": "dev",
    "methods": {
      "constructor": {
        "details": "Constructor.",
        "params": {
          "marketId": "The identifier of the market.",
          "owner": "The owner address of this contract."
        }
      },
      "getACLAdmin()": {
        "returns": {
          "_0": "The address of the ACL admin"
        }
      },
      "getACLManager()": {
        "returns": {
          "_0": "The address of the ACLManager"
        }
      },
      "getAddress(bytes32)": {
        "details": "The returned address might be an EOA or a contract, potentially proxiedIt returns ZERO if there is no registered address with the given id",
        "params": {
          "id": "The id"
        },
        "returns": {
          "_0": "The address of the registered for the specified id"
        }
      },
      "getMarketId()": {
        "returns": {
          "_0": "The market id"
        }
      },
      "getPool()": {
        "returns": {
          "_0": "The Pool proxy address"
        }
      },
      "getPoolConfigurator()": {
        "returns": {
          "_0": "The PoolConfigurator proxy address"
        }
      },
      "getPoolDataProvider()": {
        "returns": {
          "_0": "The address of the DataProvider"
        }
      },
      "getPriceOracle()": {
        "returns": {
          "_0": "The address of the PriceOracle"
        }
      },
      "getPriceOracleSentinel()": {
        "returns": {
          "_0": "The address of the PriceOracleSentinel"
        }
      },
      "owner()": {
        "details": "Returns the address of the current owner."
      },
      "renounceOwnership()": {
        "details": "Leaves the contract without owner. It will not be possible to call `onlyOwner` functions anymore. Can only be called by the current owner. NOTE: Renouncing ownership will leave the contract without an owner, thereby removing any functionality that is only available to the owner."
      },
      "setACLAdmin(address)": {
        "params": {
          "newAclAdmin": "The address of the new ACL admin"
        }
      },
      "setACLManager(address)": {
        "params": {
          "newAclManager": "The address of the new ACLManager"
        }
      },
      "setAddress(bytes32,address)": {
        "details": "IMPORTANT Use this function carefully, as it will do a hard replacement",
        "params": {
          "id": "The id",
          "newAddress": "The address to set"
        }
      },
      "setAddressAsProxy(bytes32,address)": {
        "details": "IMPORTANT Use this function carefully, only for ids that don't have an explicit setter function, in order to avoid unexpected consequences",
        "params": {
          "id": "The id",
          "newImplementationAddress": "The address of the new implementation"
        }
      },
      "setMarketId(string)": {
        "details": "This can be used to create an onchain registry of PoolAddressesProviders to identify and validate multiple Aave markets.",
        "params": {
          "newMarketId": "The market id"
        }
      },
      "setPoolConfiguratorImpl(address)": {
        "params": {
          "newPoolConfiguratorImpl": "The new PoolConfigurator implementation"
        }
      },
      "setPoolDataProvider(address)": {
        "params": {
          "newDataProvider": "The address of the new DataProvider"
        }
      },
      "setPoolImpl(address)": {
        "params": {
          "newPoolImpl": "The new Pool implementation"
        }
      },
      "setPriceOracle(address)": {
        "params": {
          "newPriceOracle": "The address of the new PriceOracle"
        }
      },
      "setPriceOracleSentinel(address)": {
        "params": {
          "newPriceOracleSentinel": "The address of the new PriceOracleSentinel"
        }
      },
      "transferOwnership(address)": {
        "details": "Transfers ownership of the contract to a new account (`newOwner`). Can only be called by the current owner."
      }
    },
    "title": "PoolAddressesProvider",
    "version": 1
  },
  "userdoc": {
    "kind": "user",
    "methods": {
      "getACLAdmin()": {
        "notice": "Returns the address of the ACL admin."
      },
      "getACLManager()": {
        "notice": "Returns the address of the ACL manager."
      },
      "getAddress(bytes32)": {
        "notice": "Returns an address by its identifier."
      },
      "getMarketId()": {
        "notice": "Returns the id of the Aave market to which this contract points to."
      },
      "getPool()": {
        "notice": "Returns the address of the Pool proxy."
      },
      "getPoolConfigurator()": {
        "notice": "Returns the address of the PoolConfigurator proxy."
      },
      "getPoolDataProvider()": {
        "notice": "Returns the address of the data provider."
      },
      "getPriceOracle()": {
        "notice": "Returns the address of the price oracle."
      },
      "getPriceOracleSentinel()": {
        "notice": "Returns the address of the price oracle sentinel."
      },
      "setACLAdmin(address)": {
        "notice": "Updates the address of the ACL admin."
      },
      "setACLManager(address)": {
        "notice": "Updates the address of the ACL manager."
      },
      "setAddress(bytes32,address)": {
        "notice": "Sets an address for an id replacing the address saved in the addresses map."
      },
      "setAddressAsProxy(bytes32,address)": {
        "notice": "General function to update the implementation of a proxy registered with certain `id`. If there is no proxy registered, it will instantiate one and set as implementation the `newImplementationAddress`."
      },
      "setMarketId(string)": {
        "notice": "Associates an id with a specific PoolAddressesProvider."
      },
      "setPoolConfiguratorImpl(address)": {
        "notice": "Updates the implementation of the PoolConfigurator, or creates a proxy setting the new `PoolConfigurator` implementation when the function is called for the first time."
      },
      "setPoolDataProvider(address)": {
        "notice": "Updates the address of the data provider."
      },
      "setPoolImpl(address)": {
        "notice": "Updates the implementation of the Pool, or creates a proxy setting the new `pool` implementation when the function is called for the first time."
      },
      "setPriceOracle(address)": {
        "notice": "Updates the address of the price oracle."
      },
      "setPriceOracleSentinel(address)": {
        "notice": "Updates the address of the price oracle sentinel."
      }
    },
    "notice": "Main registry of addresses part of or connected to the protocol, including permissioned roles",
    "version": 1
  },
  "storageLayout": {
    "storage": [
      {
        "astId": 1472,
        "contract": "contracts/protocol/configuration/PoolAddressesProvider.sol:PoolAddressesProvider",
        "label": "_owner",
        "offset": 0,
        "slot": "0",
        "type": "t_address"
      },
      {
        "astId": 24171,
        "contract": "contracts/protocol/configuration/PoolAddressesProvider.sol:PoolAddressesProvider",
        "label": "_marketId",
        "offset": 0,
        "slot": "1",
        "type": "t_string_storage"
      },
      {
        "astId": 24175,
        "contract": "contracts/protocol/configuration/PoolAddressesProvider.sol:PoolAddressesProvider",
        "label": "_addresses",
        "offset": 0,
        "slot": "2",
        "type": "t_mapping(t_bytes32,t_address)"
      }
    ],
    "types": {
      "t_address": {
        "encoding": "inplace",
        "label": "address",
        "numberOfBytes": "20"
      },
      "t_bytes32": {
        "encoding": "inplace",
        "label": "bytes32",
        "numberOfBytes": "32"
      },
      "t_mapping(t_bytes32,t_address)": {
        "encoding": "mapping",
        "key": "t_bytes32",
        "label": "mapping(bytes32 => address)",
        "numberOfBytes": "32",
        "value": "t_address"
      },
      "t_string_storage": {
        "encoding": "bytes",
        "label": "string",
        "numberOfBytes": "32"
      }
    }
  }
}