{
  "address": "0xa82fF9aFd8f496c3d6ac40E2a0F282E47488CFc9",
  "abi": [
    {
      "inputs": [
        {
          "internalType": "contract IPoolAddressesProvider",
          "name": "addressesProvider",
          "type": "address"
        }
      ],
      "stateMutability": "nonpayable",
      "type": "constructor"
    },
    {
      "inputs": [],
      "name": "ADDRESSES_PROVIDER",
      "outputs": [
        {
          "internalType": "contract IPoolAddressesProvider",
          "name": "",
          "type": "address"
        }
      ],
      "stateMutability": "view",
      "type": "function"
    },
    {
      "inputs": [],
      "name": "getAllBTokens",
      "outputs": [
        {
          "components": [
            {
              "internalType": "string",
              "name": "symbol",
              "type": "string"
            },
            {
              "internalType": "address",
              "name": "tokenAddress",
              "type": "address"
            }
          ],
          "internalType": "struct IPoolDataProvider.TokenData[]",
          "name": "",
          "type": "tuple[]"
        }
      ],
      "stateMutability": "view",
      "type": "function"
    },
    {
      "inputs": [],
      "name": "getAllReservesTokens",
      "outputs": [
        {
          "components": [
            {
              "internalType": "string",
              "name": "symbol",
              "type": "string"
            },
            {
              "internalType": "address",
              "name": "tokenAddress",
              "type": "address"
            }
          ],
          "internalType": "struct IPoolDataProvider.TokenData[]",
          "name": "",
          "type": "tuple[]"
        }
      ],
      "stateMutability": "view",
      "type": "function"
    },
    {
      "inputs": [
        {
          "internalType": "address",
          "name": "asset",
          "type": "address"
        }
      ],
      "name": "getBTokenTotalSupply",
      "outputs": [
        {
          "internalType": "uint256",
          "name": "",
          "type": "uint256"
        }
      ],
      "stateMutability": "view",
      "type": "function"
    },
    {
      "inputs": [
        {
          "internalType": "address",
          "name": "asset",
          "type": "address"
        }
      ],
      "name": "getDebtCeiling",
      "outputs": [
        {
          "internalType": "uint256",
          "name": "",
          "type": "uint256"
        }
      ],
      "stateMutability": "view",
      "type": "function"
    },
    {
      "inputs": [],
      "name": "getDebtCeilingDecimals",
      "outputs": [
        {
          "internalType": "uint256",
          "name": "",
          "type": "uint256"
        }
      ],
      "stateMutability": "pure",
      "type": "function"
    },
    {
      "inputs": [
        {
          "internalType": "address",
          "name": "asset",
          "type": "address"
        }
      ],
      "name": "getFlashLoanEnabled",
      "outputs": [
        {
          "internalType": "bool",
          "name": "",
          "type": "bool"
        }
      ],
      "stateMutability": "view",
      "type": "function"
    },
    {
      "inputs": [
        {
          "internalType": "address",
          "name": "asset",
          "type": "address"
        }
      ],
      "name": "getInterestRateStrategyAddress",
      "outputs": [
        {
          "internalType": "address",
          "name": "irStrategyAddress",
          "type": "address"
        }
      ],
      "stateMutability": "view",
      "type": "function"
    },
    {
      "inputs": [
        {
          "internalType": "address",
          "name": "asset",
          "type": "address"
        }
      ],
      "name": "getLiquidationProtocolFee",
      "outputs": [
        {
          "internalType": "uint256",
          "name": "",
          "type": "uint256"
        }
      ],
      "stateMutability": "view",
      "type": "function"
    },
    {
      "inputs": [
        {
          "internalType": "address",
          "name": "asset",
          "type": "address"
        }
      ],
      "name": "getPaused",
      "outputs": [
        {
          "internalType": "bool",
          "name": "isPaused",
          "type": "bool"
        }
      ],
      "stateMutability": "view",
      "type": "function"
    },
    {
      "inputs": [
        {
          "internalType": "address",
          "name": "asset",
          "type": "address"
        }
      ],
      "name": "getReserveCaps",
      "outputs": [
        {
          "internalType": "uint256",
          "name": "borrowCap",
          "type": "uint256"
        },
        {
          "internalType": "uint256",
          "name": "supplyCap",
          "type": "uint256"
        }
      ],
      "stateMutability": "view",
      "type": "function"
    },
    {
      "inputs": [
        {
          "internalType": "address",
          "name": "asset",
          "type": "address"
        }
      ],
      "name": "getReserveConfigurationData",
      "outputs": [
        {
          "internalType": "uint256",
          "name": "decimals",
          "type": "uint256"
        },
        {
          "internalType": "uint256",
          "name": "ltv",
          "type": "uint256"
        },
        {
          "internalType": "uint256",
          "name": "liquidationThreshold",
          "type": "uint256"
        },
        {
          "internalType": "uint256",
          "name": "liquidationBonus",
          "type": "uint256"
        },
        {
          "internalType": "uint256",
          "name": "reserveFactor",
          "type": "uint256"
        },
        {
          "internalType": "bool",
          "name": "usageAsCollateralEnabled",
          "type": "bool"
        },
        {
          "internalType": "bool",
          "name": "borrowingEnabled",
          "type": "bool"
        },
        {
          "internalType": "bool",
          "name": "stableBorrowRateEnabled",
          "type": "bool"
        },
        {
          "internalType": "bool",
          "name": "isActive",
          "type": "bool"
        },
        {
          "internalType": "bool",
          "name": "isFrozen",
          "type": "bool"
        }
      ],
      "stateMutability": "view",
      "type": "function"
    },
    {
      "inputs": [
        {
          "internalType": "address",
          "name": "asset",
          "type": "address"
        }
      ],
      "name": "getReserveData",
      "outputs": [
        {
          "internalType": "uint256",
          "name": "unbacked",
          "type": "uint256"
        },
        {
          "internalType": "uint256",
          "name": "accruedToTreasuryScaled",
          "type": "uint256"
        },
        {
          "internalType": "uint256",
          "name": "totalBToken",
          "type": "uint256"
        },
        {
          "internalType": "uint256",
          "name": "totalStableDebt",
          "type": "uint256"
        },
        {
          "internalType": "uint256",
          "name": "totalVariableDebt",
          "type": "uint256"
        },
        {
          "internalType": "uint256",
          "name": "liquidityRate",
          "type": "uint256"
        },
        {
          "internalType": "uint256",
          "name": "variableBorrowRate",
          "type": "uint256"
        },
        {
          "internalType": "uint256",
          "name": "stableBorrowRate",
          "type": "uint256"
        },
        {
          "internalType": "uint256",
          "name": "averageStableBorrowRate",
          "type": "uint256"
        },
        {
          "internalType": "uint256",
          "name": "liquidityIndex",
          "type": "uint256"
        },
        {
          "internalType": "uint256",
          "name": "variableBorrowIndex",
          "type": "uint256"
        },
        {
          "internalType": "uint40",
          "name": "lastUpdateTimestamp",
          "type": "uint40"
        }
      ],
      "stateMutability": "view",
      "type": "function"
    },
    {
      "inputs": [
        {
          "internalType": "address",
          "name": "asset",
          "type": "address"
        }
      ],
      "name": "getReserveEModeCategory",
      "outputs": [
        {
          "internalType": "uint256",
          "name": "",
          "type": "uint256"
        }
      ],
      "stateMutability": "view",
      "type": "function"
    },
    {
      "inputs": [
        {
          "internalType": "address",
          "name": "asset",
          "type": "address"
        }
      ],
      "name": "getReserveTokensAddresses",
      "outputs": [
        {
          "internalType": "address",
          "name": "bTokenAddress",
          "type": "address"
        },
        {
          "internalType": "address",
          "name": "stableDebtTokenAddress",
          "type": "address"
        },
        {
          "internalType": "address",
          "name": "variableDebtTokenAddress",
          "type": "address"
        }
      ],
      "stateMutability": "view",
      "type": "function"
    },
    {
      "inputs": [
        {
          "internalType": "address",
          "name": "asset",
          "type": "address"
        }
      ],
      "name": "getSiloedBorrowing",
      "outputs": [
        {
          "internalType": "bool",
          "name": "",
          "type": "bool"
        }
      ],
      "stateMutability": "view",
      "type": "function"
    },
    {
      "inputs": [
        {
          "internalType": "address",
          "name": "asset",
          "type": "address"
        }
      ],
      "name": "getTotalDebt",
      "outputs": [
        {
          "internalType": "uint256",
          "name": "",
          "type": "uint256"
        }
      ],
      "stateMutability": "view",
      "type": "function"
    },
    {
      "inputs": [
        {
          "internalType": "address",
          "name": "asset",
          "type": "address"
        }
      ],
      "name": "getUnbackedMintCap",
      "outputs": [
        {
          "internalType": "uint256",
          "name": "",
          "type": "uint256"
        }
      ],
      "stateMutability": "view",
      "type": "function"
    },
    {
      "inputs": [
        {
          "internalType": "address",
          "name": "asset",
          "type": "address"
        },
        {
          "internalType": "address",
          "name": "user",
          "type": "address"
        }
      ],
      "name": "getUserReserveData",
      "outputs": [
        {
          "internalType": "uint256",
          "name": "currentBTokenBalance",
          "type": "uint256"
        },
        {
          "internalType": "uint256",
          "name": "currentStableDebt",
          "type": "uint256"
        },
        {
          "internalType": "uint256",
          "name": "currentVariableDebt",
          "type": "uint256"
        },
        {
          "internalType": "uint256",
          "name": "principalStableDebt",
          "type": "uint256"
        },
        {
          "internalType": "uint256",
          "name": "scaledVariableDebt",
          "type": "uint256"
        },
        {
          "internalType": "uint256",
          "name": "stableBorrowRate",
          "type": "uint256"
        },
        {
          "internalType": "uint256",
          "name": "liquidityRate",
          "type": "uint256"
        },
        {
          "internalType": "uint40",
          "name": "stableRateLastUpdated",
          "type": "uint40"
        },
        {
          "internalType": "bool",
          "name": "usageAsCollateralEnabled",
          "type": "bool"
        }
      ],
      "stateMutability": "view",
      "type": "function"
    }
  ],
  "transactionHash": "0xbdf72fc2ba9fa3699864ad0aab52ce1a39001d949384b8cc68828d9cdff371a0",
  "args": [
    "0x84eA74d481Ee0A5332c457a4d796187F6Ba67fEB"
  ],
  "numDeployments": 1,
  "solcInputHash": "c351ce62b62f76bd5a8479a8f9cf6c24",
  "bytecode": "0x60a06040523480156200001157600080fd5b506040516200293238038062002932833981016040819052620000349162000046565b6001600160a01b031660805262000078565b6000602082840312156200005957600080fd5b81516001600160a01b03811681146200007157600080fd5b9392505050565b608051612820620001126000396000818161012b0152818161040e0152818161051e0152818161061101528181610a8601528181610dcd01528181610ed401528181610fde0152818161112c015281816112400152818161140d015281816116cf015281816117cf015281816118cf01528181611c5601528181611d5901528181611e6b01528181611fc601526120cf01526128206000f3fe608060405234801561001057600080fd5b50600436106101215760003560e01c80636001c446116100ad578063b55d990411610071578063b55d990414610370578063d2493b6c14610393578063d4f91fb9146103d0578063d7ed3ef4146103e3578063fcf40a62146103f657600080fd5b80636001c446146103265780636744362a1461033b57806369b169e11461034e5780637ba1ae3614610355578063b316ff891461036857600080fd5b80633c798109116100f45780633c7981091461025e5780633cb8a622146102715780633e1501411461028457806346fbe558146102eb5780634d44ac4f1461031357600080fd5b80630542975c14610126578063163a0f201461016a57806328dd2d011461018b57806335ea6a75146101eb575b600080fd5b61014d7f000000000000000000000000000000000000000000000000000000000000000081565b6040516001600160a01b0390911681526020015b60405180910390f35b61017d610178366004612283565b610409565b604051908152602001610161565b61019e6101993660046122a0565b61050d565b60408051998a5260208a0198909852968801959095526060870193909352608086019190915260a085015260c084015264ffffffffff1660e0830152151561010082015261012001610161565b6101fe6101f9366004612283565b610a70565b604080519c8d5260208d019b909b52998b019890985260608a0196909652608089019490945260a088019290925260c087015260e086015261010085015261012084015261014083015264ffffffffff1661016082015261018001610161565b61017d61026c366004612283565b610dc6565b61017d61027f366004612283565b610ecd565b610297610292366004612283565b610fcb565b604080519a8b5260208b01999099529789019690965260608801949094526080870192909252151560a0860152151560c0850152151560e08401521515610100830152151561012082015261014001610161565b6102fe6102f9366004612283565b611124565b60408051928352602083019190915201610161565b61017d610321366004612283565b61123b565b61032e611407565b6040516101619190612329565b61014d610349366004612283565b6116ca565b600261017d565b61017d610363366004612283565b6117c8565b61032e6118c9565b61038361037e366004612283565b611c4f565b6040519015158152602001610161565b6103a66103a1366004612283565b611d51565b604080516001600160a01b0394851681529284166020840152921691810191909152606001610161565b61017d6103de366004612283565b611e66565b6103836103f1366004612283565b611fc1565b610383610404366004612283565b6120c8565b6000807f00000000000000000000000000000000000000000000000000000000000000006001600160a01b031663026b1d5f6040518163ffffffff1660e01b8152600401602060405180830381865afa15801561046a573d6000803e3d6000fd5b505050506040513d601f19601f8201168201806040525081019061048e91906123b8565b60405163c44b11f760e01b81526001600160a01b038581166004830152919091169063c44b11f790602401602060405180830381865afa1580156104d6573d6000803e3d6000fd5b505050506040513d601f19601f820116820180604052508101906104fa9190612488565b805190915060a81c60ff165b9392505050565b6000806000806000806000806000807f00000000000000000000000000000000000000000000000000000000000000006001600160a01b031663026b1d5f6040518163ffffffff1660e01b8152600401602060405180830381865afa15801561057a573d6000803e3d6000fd5b505050506040513d601f19601f8201168201806040525081019061059e91906123b8565b6040516335ea6a7560e01b81526001600160a01b038e8116600483015291909116906335ea6a75906024016101e060405180830381865afa1580156105e7573d6000803e3d6000fd5b505050506040513d601f19601f8201168201806040525081019061060b91906124e2565b905060007f00000000000000000000000000000000000000000000000000000000000000006001600160a01b031663026b1d5f6040518163ffffffff1660e01b8152600401602060405180830381865afa15801561066d573d6000803e3d6000fd5b505050506040513d601f19601f8201168201806040525081019061069191906123b8565b604051634417a58360e01b81526001600160a01b038e811660048301529190911690634417a58390602401602060405180830381865afa1580156106d9573d6000803e3d6000fd5b505050506040513d601f19601f820116820180604052508101906106fd9190612488565b6101008301516040516370a0823160e01b81526001600160a01b038f811660048301529293509116906370a0823190602401602060405180830381865afa15801561074c573d6000803e3d6000fd5b505050506040513d601f19601f820116820180604052508101906107709190612605565b6101408301516040516370a0823160e01b81526001600160a01b038f81166004830152929d509116906370a0823190602401602060405180830381865afa1580156107bf573d6000803e3d6000fd5b505050506040513d601f19601f820116820180604052508101906107e39190612605565b6101208301516040516370a0823160e01b81526001600160a01b038f81166004830152929b509116906370a0823190602401602060405180830381865afa158015610832573d6000803e3d6000fd5b505050506040513d601f19601f820116820180604052508101906108569190612605565b61012083015160405163631a6fd560e11b81526001600160a01b038f81166004830152929c5091169063c634dfaa90602401602060405180830381865afa1580156108a5573d6000803e3d6000fd5b505050506040513d601f19601f820116820180604052508101906108c99190612605565b610140830151604051630ed1279f60e11b81526001600160a01b038f81166004830152929a50911690631da24f3e90602401602060405180830381865afa158015610918573d6000803e3d6000fd5b505050506040513d601f19601f8201168201806040525081019061093c9190612605565b965081604001516001600160801b031694508161012001516001600160a01b031663e78c9b3b8d6040518263ffffffff1660e01b815260040161098e91906001600160a01b0391909116815260200190565b602060405180830381865afa1580156109ab573d6000803e3d6000fd5b505050506040513d601f19601f820116820180604052508101906109cf9190612605565b610120830151604051631e739ae360e21b81526001600160a01b038f811660048301529298509116906379ce6b8c90602401602060405180830381865afa158015610a1e573d6000803e3d6000fd5b505050506040513d601f19601f82011682018060405250810190610a42919061261e565b9350610a5f8260e0015161ffff16826121cb90919063ffffffff16565b925050509295985092959850929598565b60008060008060008060008060008060008060007f00000000000000000000000000000000000000000000000000000000000000006001600160a01b031663026b1d5f6040518163ffffffff1660e01b8152600401602060405180830381865afa158015610ae2573d6000803e3d6000fd5b505050506040513d601f19601f82011682018060405250810190610b0691906123b8565b6001600160a01b03166335ea6a758f6040518263ffffffff1660e01b8152600401610b4091906001600160a01b0391909116815260200190565b6101e060405180830381865afa158015610b5e573d6000803e3d6000fd5b505050506040513d601f19601f82011682018060405250810190610b8291906124e2565b9050806101a001518161018001518261010001516001600160a01b03166318160ddd6040518163ffffffff1660e01b8152600401602060405180830381865afa158015610bd3573d6000803e3d6000fd5b505050506040513d601f19601f82011682018060405250810190610bf79190612605565b8361012001516001600160a01b03166318160ddd6040518163ffffffff1660e01b8152600401602060405180830381865afa158015610c3a573d6000803e3d6000fd5b505050506040513d601f19601f82011682018060405250810190610c5e9190612605565b8461014001516001600160a01b03166318160ddd6040518163ffffffff1660e01b8152600401602060405180830381865afa158015610ca1573d6000803e3d6000fd5b505050506040513d601f19601f82011682018060405250810190610cc59190612605565b856040015186608001518760a001518861012001516001600160a01b03166390f6fcf26040518163ffffffff1660e01b8152600401602060405180830381865afa158015610d17573d6000803e3d6000fd5b505050506040513d601f19601f82011682018060405250810190610d3b9190612605565b89602001518a606001518b60c001518b6001600160801b03169b508a6001600160801b03169a50866001600160801b03169650856001600160801b03169550846001600160801b03169450826001600160801b03169250816001600160801b031691509c509c509c509c509c509c509c509c509c509c509c509c505091939597999b5091939597999b565b6000610ec77f00000000000000000000000000000000000000000000000000000000000000006001600160a01b031663026b1d5f6040518163ffffffff1660e01b8152600401602060405180830381865afa158015610e29573d6000803e3d6000fd5b505050506040513d601f19601f82011682018060405250810190610e4d91906123b8565b60405163c44b11f760e01b81526001600160a01b038581166004830152919091169063c44b11f790602401602060405180830381865afa158015610e95573d6000803e3d6000fd5b505050506040513d601f19601f82011682018060405250810190610eb99190612488565b5160d41c64ffffffffff1690565b92915050565b6000610ec77f00000000000000000000000000000000000000000000000000000000000000006001600160a01b031663026b1d5f6040518163ffffffff1660e01b8152600401602060405180830381865afa158015610f30573d6000803e3d6000fd5b505050506040513d601f19601f82011682018060405250810190610f5491906123b8565b60405163c44b11f760e01b81526001600160a01b038581166004830152919091169063c44b11f790602401602060405180830381865afa158015610f9c573d6000803e3d6000fd5b505050506040513d601f19601f82011682018060405250810190610fc09190612488565b5160981c61ffff1690565b60008060008060008060008060008060007f00000000000000000000000000000000000000000000000000000000000000006001600160a01b031663026b1d5f6040518163ffffffff1660e01b8152600401602060405180830381865afa15801561103a573d6000803e3d6000fd5b505050506040513d601f19601f8201168201806040525081019061105e91906123b8565b60405163c44b11f760e01b81526001600160a01b038e81166004830152919091169063c44b11f790602401602060405180830381865afa1580156110a6573d6000803e3d6000fd5b505050506040513d601f19601f820116820180604052508101906110ca9190612488565b8051603081901c60ff169c5061ffff8082169c50601082901c81169b50602082901c81169a5060409190911c169750905061110481612223565b509d9f9c9e509a9c999b989a8d15159a9099909850919650945092505050565b6000806112317f00000000000000000000000000000000000000000000000000000000000000006001600160a01b031663026b1d5f6040518163ffffffff1660e01b8152600401602060405180830381865afa158015611188573d6000803e3d6000fd5b505050506040513d601f19601f820116820180604052508101906111ac91906123b8565b60405163c44b11f760e01b81526001600160a01b038681166004830152919091169063c44b11f790602401602060405180830381865afa1580156111f4573d6000803e3d6000fd5b505050506040513d601f19601f820116820180604052508101906112189190612488565b51640fffffffff605082901c81169260749290921c1690565b9094909350915050565b6000807f00000000000000000000000000000000000000000000000000000000000000006001600160a01b031663026b1d5f6040518163ffffffff1660e01b8152600401602060405180830381865afa15801561129c573d6000803e3d6000fd5b505050506040513d601f19601f820116820180604052508101906112c091906123b8565b6040516335ea6a7560e01b81526001600160a01b03858116600483015291909116906335ea6a75906024016101e060405180830381865afa158015611309573d6000803e3d6000fd5b505050506040513d601f19601f8201168201806040525081019061132d91906124e2565b90508061014001516001600160a01b03166318160ddd6040518163ffffffff1660e01b8152600401602060405180830381865afa158015611372573d6000803e3d6000fd5b505050506040513d601f19601f820116820180604052508101906113969190612605565b8161012001516001600160a01b03166318160ddd6040518163ffffffff1660e01b8152600401602060405180830381865afa1580156113d9573d6000803e3d6000fd5b505050506040513d601f19601f820116820180604052508101906113fd9190612605565b610506919061264f565b606060007f00000000000000000000000000000000000000000000000000000000000000006001600160a01b031663026b1d5f6040518163ffffffff1660e01b8152600401602060405180830381865afa158015611469573d6000803e3d6000fd5b505050506040513d601f19601f8201168201806040525081019061148d91906123b8565b90506000816001600160a01b031663d1946dbc6040518163ffffffff1660e01b8152600401600060405180830381865afa1580156114cf573d6000803e3d6000fd5b505050506040513d6000823e601f3d908101601f191682016040526114f79190810190612662565b90506000815167ffffffffffffffff811115611515576115156123d5565b60405190808252806020026020018201604052801561155b57816020015b6040805180820190915260608152600060208201528152602001906001900390816115335790505b50905060005b82518110156116c2576000846001600160a01b03166335ea6a7585848151811061158d5761158d612714565b60200260200101516040518263ffffffff1660e01b81526004016115c091906001600160a01b0391909116815260200190565b6101e060405180830381865afa1580156115de573d6000803e3d6000fd5b505050506040513d601f19601f8201168201806040525081019061160291906124e2565b905060405180604001604052808261010001516001600160a01b03166395d89b416040518163ffffffff1660e01b8152600401600060405180830381865afa158015611652573d6000803e3d6000fd5b505050506040513d6000823e601f3d908101601f1916820160405261167a919081019061272a565b81526020018261010001516001600160a01b03168152508383815181106116a3576116a3612714565b60200260200101819052505080806116ba906127be565b915050611561565b509392505050565b6000807f00000000000000000000000000000000000000000000000000000000000000006001600160a01b031663026b1d5f6040518163ffffffff1660e01b8152600401602060405180830381865afa15801561172b573d6000803e3d6000fd5b505050506040513d601f19601f8201168201806040525081019061174f91906123b8565b6040516335ea6a7560e01b81526001600160a01b03858116600483015291909116906335ea6a75906024016101e060405180830381865afa158015611798573d6000803e3d6000fd5b505050506040513d601f19601f820116820180604052508101906117bc91906124e2565b61016001519392505050565b6000610ec77f00000000000000000000000000000000000000000000000000000000000000006001600160a01b031663026b1d5f6040518163ffffffff1660e01b8152600401602060405180830381865afa15801561182b573d6000803e3d6000fd5b505050506040513d601f19601f8201168201806040525081019061184f91906123b8565b60405163c44b11f760e01b81526001600160a01b038581166004830152919091169063c44b11f790602401602060405180830381865afa158015611897573d6000803e3d6000fd5b505050506040513d601f19601f820116820180604052508101906118bb9190612488565b5160b01c640fffffffff1690565b606060007f00000000000000000000000000000000000000000000000000000000000000006001600160a01b031663026b1d5f6040518163ffffffff1660e01b8152600401602060405180830381865afa15801561192b573d6000803e3d6000fd5b505050506040513d601f19601f8201168201806040525081019061194f91906123b8565b90506000816001600160a01b031663d1946dbc6040518163ffffffff1660e01b8152600401600060405180830381865afa158015611991573d6000803e3d6000fd5b505050506040513d6000823e601f3d908101601f191682016040526119b99190810190612662565b90506000815167ffffffffffffffff8111156119d7576119d76123d5565b604051908082528060200260200182016040528015611a1d57816020015b6040805180820190915260608152600060208201528152602001906001900390816119f55790505b50905060005b82518110156116c257739f8f72aa9304c8b593d555f12ef6589cc3a579a26001600160a01b0316838281518110611a5c57611a5c612714565b60200260200101516001600160a01b031603611ae65760405180604001604052806040518060400160405280600381526020016226a5a960e91b8152508152602001848381518110611ab057611ab0612714565b60200260200101516001600160a01b0316815250828281518110611ad657611ad6612714565b6020026020010181905250611c3d565b73eeeeeeeeeeeeeeeeeeeeeeeeeeeeeeeeeeeeeeee6001600160a01b0316838281518110611b1657611b16612714565b60200260200101516001600160a01b031603611b6a5760405180604001604052806040518060400160405280600381526020016208aa8960eb1b8152508152602001848381518110611ab057611ab0612714565b6040518060400160405280848381518110611b8757611b87612714565b60200260200101516001600160a01b03166395d89b416040518163ffffffff1660e01b8152600401600060405180830381865afa158015611bcc573d6000803e3d6000fd5b505050506040513d6000823e601f3d908101601f19168201604052611bf4919081019061272a565b8152602001848381518110611c0b57611c0b612714565b60200260200101516001600160a01b0316815250828281518110611c3157611c31612714565b60200260200101819052505b80611c47816127be565b915050611a23565b6000611d477f00000000000000000000000000000000000000000000000000000000000000006001600160a01b031663026b1d5f6040518163ffffffff1660e01b8152600401602060405180830381865afa158015611cb2573d6000803e3d6000fd5b505050506040513d601f19601f82011682018060405250810190611cd691906123b8565b60405163c44b11f760e01b81526001600160a01b038581166004830152919091169063c44b11f790602401602060405180830381865afa158015611d1e573d6000803e3d6000fd5b505050506040513d601f19601f82011682018060405250810190611d429190612488565b612223565b9695505050505050565b6000806000807f00000000000000000000000000000000000000000000000000000000000000006001600160a01b031663026b1d5f6040518163ffffffff1660e01b8152600401602060405180830381865afa158015611db5573d6000803e3d6000fd5b505050506040513d601f19601f82011682018060405250810190611dd991906123b8565b6040516335ea6a7560e01b81526001600160a01b03878116600483015291909116906335ea6a75906024016101e060405180830381865afa158015611e22573d6000803e3d6000fd5b505050506040513d601f19601f82011682018060405250810190611e4691906124e2565b610100810151610120820151610140909201519097919650945092505050565b6000807f00000000000000000000000000000000000000000000000000000000000000006001600160a01b031663026b1d5f6040518163ffffffff1660e01b8152600401602060405180830381865afa158015611ec7573d6000803e3d6000fd5b505050506040513d601f19601f82011682018060405250810190611eeb91906123b8565b6040516335ea6a7560e01b81526001600160a01b03858116600483015291909116906335ea6a75906024016101e060405180830381865afa158015611f34573d6000803e3d6000fd5b505050506040513d601f19601f82011682018060405250810190611f5891906124e2565b90508061010001516001600160a01b03166318160ddd6040518163ffffffff1660e01b8152600401602060405180830381865afa158015611f9d573d6000803e3d6000fd5b505050506040513d601f19601f820116820180604052508101906105069190612605565b6000807f00000000000000000000000000000000000000000000000000000000000000006001600160a01b031663026b1d5f6040518163ffffffff1660e01b8152600401602060405180830381865afa158015612022573d6000803e3d6000fd5b505050506040513d601f19601f8201168201806040525081019061204691906123b8565b60405163c44b11f760e01b81526001600160a01b038581166004830152919091169063c44b11f790602401602060405180830381865afa15801561208e573d6000803e3d6000fd5b505050506040513d601f19601f820116820180604052508101906120b29190612488565b9050610506815167800000000000000016151590565b6000610ec77f00000000000000000000000000000000000000000000000000000000000000006001600160a01b031663026b1d5f6040518163ffffffff1660e01b8152600401602060405180830381865afa15801561212b573d6000803e3d6000fd5b505050506040513d601f19601f8201168201806040525081019061214f91906123b8565b60405163c44b11f760e01b81526001600160a01b038581166004830152919091169063c44b11f790602401602060405180830381865afa158015612197573d6000803e3d6000fd5b505050506040513d601f19601f820116820180604052508101906121bb9190612488565b5167400000000000000016151590565b6040805180820190915260028152610dcd60f21b6020820152600090608083106122115760405162461bcd60e51b815260040161220891906127d7565b60405180910390fd5b50509051600191821b82011c16151590565b51670100000000000000811615159167020000000000000082161515916704000000000000008116151591670800000000000000821615159167100000000000000016151590565b6001600160a01b038116811461228057600080fd5b50565b60006020828403121561229557600080fd5b81356105068161226b565b600080604083850312156122b357600080fd5b82356122be8161226b565b915060208301356122ce8161226b565b809150509250929050565b60005b838110156122f45781810151838201526020016122dc565b50506000910152565b600081518084526123158160208601602086016122d9565b601f01601f19169290920160200192915050565b60006020808301818452808551808352604092508286019150828160051b87010184880160005b8381101561239a57888303603f1901855281518051878552612374888601826122fd565b918901516001600160a01b03169489019490945294870194925090860190600101612350565b509098975050505050505050565b80516123b38161226b565b919050565b6000602082840312156123ca57600080fd5b81516105068161226b565b634e487b7160e01b600052604160045260246000fd5b6040516101e0810167ffffffffffffffff8111828210171561240f5761240f6123d5565b60405290565b604051601f8201601f1916810167ffffffffffffffff8111828210171561243e5761243e6123d5565b604052919050565b60006020828403121561245857600080fd5b6040516020810181811067ffffffffffffffff8211171561247b5761247b6123d5565b6040529151825250919050565b60006020828403121561249a57600080fd5b6105068383612446565b80516001600160801b03811681146123b357600080fd5b805164ffffffffff811681146123b357600080fd5b805161ffff811681146123b357600080fd5b60006101e082840312156124f557600080fd5b6124fd6123eb565b6125078484612446565b8152612515602084016124a4565b6020820152612526604084016124a4565b6040820152612537606084016124a4565b6060820152612548608084016124a4565b608082015261255960a084016124a4565b60a082015261256a60c084016124bb565b60c082015261257b60e084016124d0565b60e082015261010061258e8185016123a8565b908201526101206125a08482016123a8565b908201526101406125b28482016123a8565b908201526101606125c48482016123a8565b908201526101806125d68482016124a4565b908201526101a06125e88482016124a4565b908201526101c06125fa8482016124a4565b908201529392505050565b60006020828403121561261757600080fd5b5051919050565b60006020828403121561263057600080fd5b610506826124bb565b634e487b7160e01b600052601160045260246000fd5b80820180821115610ec757610ec7612639565b6000602080838503121561267557600080fd5b825167ffffffffffffffff8082111561268d57600080fd5b818501915085601f8301126126a157600080fd5b8151818111156126b3576126b36123d5565b8060051b91506126c4848301612415565b81815291830184019184810190888411156126de57600080fd5b938501935b8385101561270857845192506126f88361226b565b82825293850193908501906126e3565b98975050505050505050565b634e487b7160e01b600052603260045260246000fd5b60006020828403121561273c57600080fd5b815167ffffffffffffffff8082111561275457600080fd5b818401915084601f83011261276857600080fd5b81518181111561277a5761277a6123d5565b61278d601f8201601f1916602001612415565b91508082528560208285010111156127a457600080fd5b6127b58160208401602086016122d9565b50949350505050565b6000600182016127d0576127d0612639565b5060010190565b60208152600061050660208301846122fd56fea26469706673582212204449ab5a1ff1a379a67d26c1c54a4496f41ec455946719a1ec8cce983ef3ea0a64736f6c63430008140033",
  "devdoc": {
    "author": "Aave",
    "kind": "dev",
    "methods": {
      "constructor": {
        "params": {
          "addressesProvider": "The address of the PoolAddressesProvider contract"
        }
      },
      "getAllBTokens()": {
        "returns": {
          "_0": "The list of BTokens, pairs of symbols and addresses"
        }
      },
      "getAllReservesTokens()": {
        "details": "Handling MKR and ETH in a different way since they do not have standard `symbol` functions.",
        "returns": {
          "_0": "The list of reserves, pairs of symbols and addresses"
        }
      },
      "getBTokenTotalSupply(address)": {
        "params": {
          "asset": "The address of the underlying asset of the reserve"
        },
        "returns": {
          "_0": "The total supply of the bToken"
        }
      },
      "getDebtCeiling(address)": {
        "params": {
          "asset": "The address of the underlying asset of the reserve"
        },
        "returns": {
          "_0": "The debt ceiling of the reserve"
        }
      },
      "getDebtCeilingDecimals()": {
        "returns": {
          "_0": "The debt ceiling decimals"
        }
      },
      "getFlashLoanEnabled(address)": {
        "params": {
          "asset": "The address of the underlying asset of the reserve"
        },
        "returns": {
          "_0": "True if FlashLoans are enabled, false otherwise"
        }
      },
      "getInterestRateStrategyAddress(address)": {
        "params": {
          "asset": "The address of the underlying asset of the reserve"
        },
        "returns": {
          "irStrategyAddress": "The address of the Interest Rate strategy"
        }
      },
      "getLiquidationProtocolFee(address)": {
        "params": {
          "asset": "The address of the underlying asset of the reserve"
        },
        "returns": {
          "_0": "The protocol fee on liquidation"
        }
      },
      "getPaused(address)": {
        "params": {
          "asset": "The address of the underlying asset of the reserve"
        },
        "returns": {
          "isPaused": "True if the pool is paused, false otherwise"
        }
      },
      "getReserveCaps(address)": {
        "params": {
          "asset": "The address of the underlying asset of the reserve"
        },
        "returns": {
          "borrowCap": "The borrow cap of the reserve",
          "supplyCap": "The supply cap of the reserve"
        }
      },
      "getReserveConfigurationData(address)": {
        "details": "Not returning borrow and supply caps for compatibility, nor pause flag",
        "params": {
          "asset": "The address of the underlying asset of the reserve"
        },
        "returns": {
          "borrowingEnabled": "True if borrowing is enabled, false otherwise",
          "decimals": "The number of decimals of the reserve",
          "isActive": "True if it is active, false otherwise",
          "isFrozen": "True if it is frozen, false otherwise",
          "liquidationBonus": "The liquidationBonus of the reserve",
          "liquidationThreshold": "The liquidationThreshold of the reserve",
          "ltv": "The ltv of the reserve",
          "reserveFactor": "The reserveFactor of the reserve",
          "stableBorrowRateEnabled": "True if stable rate borrowing is enabled, false otherwise",
          "usageAsCollateralEnabled": "True if the usage as collateral is enabled, false otherwise"
        }
      },
      "getReserveData(address)": {
        "params": {
          "asset": "The address of the underlying asset of the reserve"
        },
        "returns": {
          "accruedToTreasuryScaled": "The scaled amount of tokens accrued to treasury that is to be minted",
          "averageStableBorrowRate": "The average stable borrow rate of the reserve",
          "lastUpdateTimestamp": "The timestamp of the last update of the reserve",
          "liquidityIndex": "The liquidity index of the reserve",
          "liquidityRate": "The liquidity rate of the reserve",
          "stableBorrowRate": "The stable borrow rate of the reserve",
          "totalBToken": "The total supply of the bToken",
          "totalStableDebt": "The total stable debt of the reserve",
          "totalVariableDebt": "The total variable debt of the reserve",
          "unbacked": "The amount of unbacked tokens",
          "variableBorrowIndex": "The variable borrow index of the reserve",
          "variableBorrowRate": "The variable borrow rate of the reserve"
        }
      },
      "getReserveEModeCategory(address)": {
        "params": {
          "asset": "The address of the underlying asset of the reserve"
        },
        "returns": {
          "_0": "The eMode id of the reserve"
        }
      },
      "getReserveTokensAddresses(address)": {
        "params": {
          "asset": "The address of the underlying asset of the reserve"
        },
        "returns": {
          "bTokenAddress": "The BToken address of the reserve",
          "stableDebtTokenAddress": "The StableDebtToken address of the reserve",
          "variableDebtTokenAddress": "The VariableDebtToken address of the reserve"
        }
      },
      "getSiloedBorrowing(address)": {
        "params": {
          "asset": "The address of the underlying asset of the reserve"
        },
        "returns": {
          "_0": "True if the asset is siloed for borrowing"
        }
      },
      "getTotalDebt(address)": {
        "params": {
          "asset": "The address of the underlying asset of the reserve"
        },
        "returns": {
          "_0": "The total debt for asset"
        }
      },
      "getUnbackedMintCap(address)": {
        "params": {
          "asset": "The address of the underlying asset of the reserve"
        },
        "returns": {
          "_0": "The unbacked mint cap of the reserve"
        }
      },
      "getUserReserveData(address,address)": {
        "params": {
          "asset": "The address of the underlying asset of the reserve",
          "user": "The address of the user"
        },
        "returns": {
          "currentBTokenBalance": "The current BToken balance of the user",
          "currentStableDebt": "The current stable debt of the user",
          "currentVariableDebt": "The current variable debt of the user",
          "liquidityRate": "The liquidity rate of the reserve",
          "principalStableDebt": "The principal stable debt of the user",
          "scaledVariableDebt": "The scaled variable debt of the user",
          "stableBorrowRate": "The stable borrow rate of the user",
          "stableRateLastUpdated": "The timestamp of the last update of the user stable rate",
          "usageAsCollateralEnabled": "True if the user is using the asset as collateral, false         otherwise"
        }
      }
    },
    "stateVariables": {
      "ADDRESSES_PROVIDER": {
        "return": "The address for the PoolAddressesProvider contract",
        "returns": {
          "_0": "The address for the PoolAddressesProvider contract"
        }
      }
    },
    "title": "PoolDataProvider",
    "version": 1
  },
  "userdoc": {
    "kind": "user",
    "methods": {
      "ADDRESSES_PROVIDER()": {
        "notice": "Returns the address for the PoolAddressesProvider contract."
      },
      "constructor": {
        "notice": "Constructor"
      },
      "getAllBTokens()": {
        "notice": "Returns the list of the existing BTokens in the pool."
      },
      "getAllReservesTokens()": {
        "notice": "Returns the list of the existing reserves in the pool."
      },
      "getBTokenTotalSupply(address)": {
        "notice": "Returns the total supply of bTokens for a given asset"
      },
      "getDebtCeiling(address)": {
        "notice": "Returns the debt ceiling of the reserve"
      },
      "getDebtCeilingDecimals()": {
        "notice": "Returns the debt ceiling decimals"
      },
      "getFlashLoanEnabled(address)": {
        "notice": "Returns whether the reserve has FlashLoans enabled or disabled"
      },
      "getInterestRateStrategyAddress(address)": {
        "notice": "Returns the address of the Interest Rate strategy"
      },
      "getLiquidationProtocolFee(address)": {
        "notice": "Returns the protocol fee on the liquidation bonus"
      },
      "getPaused(address)": {
        "notice": "Returns if the pool is paused"
      },
      "getReserveCaps(address)": {
        "notice": "Returns the caps parameters of the reserve"
      },
      "getReserveConfigurationData(address)": {
        "notice": "Returns the configuration data of the reserve"
      },
      "getReserveData(address)": {
        "notice": "Returns the reserve data"
      },
      "getReserveEModeCategory(address)": {
        "notice": "Returns the efficiency mode category of the reserve"
      },
      "getReserveTokensAddresses(address)": {
        "notice": "Returns the token addresses of the reserve"
      },
      "getSiloedBorrowing(address)": {
        "notice": "Returns the siloed borrowing flag"
      },
      "getTotalDebt(address)": {
        "notice": "Returns the total debt for a given asset"
      },
      "getUnbackedMintCap(address)": {
        "notice": "Returns the unbacked mint cap of the reserve"
      },
      "getUserReserveData(address,address)": {
        "notice": "Returns the user data in a reserve"
      }
    },
    "notice": "Peripheral contract to collect and pre-process information from the Pool.",
    "version": 1
  },
  "storageLayout": {
    "storage": [],
    "types": null
  }
}