{
  "address": "0x9d4454B023096f34B160D6B654540c56A1F81688",
  "abi": [
    {
      "anonymous": false,
      "inputs": [
        {
          "indexed": true,
          "internalType": "address",
          "name": "asset",
          "type": "address"
        },
        {
          "indexed": true,
          "internalType": "address",
          "name": "proxy",
          "type": "address"
        },
        {
          "indexed": true,
          "internalType": "address",
          "name": "implementation",
          "type": "address"
        }
      ],
      "name": "BTokenUpgraded",
      "type": "event"
    },
    {
      "anonymous": false,
      "inputs": [
        {
          "indexed": true,
          "internalType": "address",
          "name": "asset",
          "type": "address"
        },
        {
          "indexed": false,
          "internalType": "uint256",
          "name": "oldBorrowCap",
          "type": "uint256"
        },
        {
          "indexed": false,
          "internalType": "uint256",
          "name": "newBorrowCap",
          "type": "uint256"
        }
      ],
      "name": "BorrowCapChanged",
      "type": "event"
    },
    {
      "anonymous": false,
      "inputs": [
        {
          "indexed": false,
          "internalType": "address",
          "name": "asset",
          "type": "address"
        },
        {
          "indexed": false,
          "internalType": "bool",
          "name": "borrowable",
          "type": "bool"
        }
      ],
      "name": "BorrowableInIsolationChanged",
      "type": "event"
    },
    {
      "anonymous": false,
      "inputs": [
        {
          "indexed": false,
          "internalType": "uint256",
          "name": "oldBridgeProtocolFee",
          "type": "uint256"
        },
        {
          "indexed": false,
          "internalType": "uint256",
          "name": "newBridgeProtocolFee",
          "type": "uint256"
        }
      ],
      "name": "BridgeProtocolFeeUpdated",
      "type": "event"
    },
    {
      "anonymous": false,
      "inputs": [
        {
          "indexed": true,
          "internalType": "address",
          "name": "asset",
          "type": "address"
        },
        {
          "indexed": false,
          "internalType": "uint256",
          "name": "ltv",
          "type": "uint256"
        },
        {
          "indexed": false,
          "internalType": "uint256",
          "name": "liquidationThreshold",
          "type": "uint256"
        },
        {
          "indexed": false,
          "internalType": "uint256",
          "name": "liquidationBonus",
          "type": "uint256"
        }
      ],
      "name": "CollateralConfigurationChanged",
      "type": "event"
    },
    {
      "anonymous": false,
      "inputs": [
        {
          "indexed": true,
          "internalType": "address",
          "name": "asset",
          "type": "address"
        },
        {
          "indexed": false,
          "internalType": "uint256",
          "name": "oldDebtCeiling",
          "type": "uint256"
        },
        {
          "indexed": false,
          "internalType": "uint256",
          "name": "newDebtCeiling",
          "type": "uint256"
        }
      ],
      "name": "DebtCeilingChanged",
      "type": "event"
    },
    {
      "anonymous": false,
      "inputs": [
        {
          "indexed": true,
          "internalType": "address",
          "name": "asset",
          "type": "address"
        },
        {
          "indexed": false,
          "internalType": "uint8",
          "name": "oldCategoryId",
          "type": "uint8"
        },
        {
          "indexed": false,
          "internalType": "uint8",
          "name": "newCategoryId",
          "type": "uint8"
        }
      ],
      "name": "EModeAssetCategoryChanged",
      "type": "event"
    },
    {
      "anonymous": false,
      "inputs": [
        {
          "indexed": true,
          "internalType": "uint8",
          "name": "categoryId",
          "type": "uint8"
        },
        {
          "indexed": false,
          "internalType": "uint256",
          "name": "ltv",
          "type": "uint256"
        },
        {
          "indexed": false,
          "internalType": "uint256",
          "name": "liquidationThreshold",
          "type": "uint256"
        },
        {
          "indexed": false,
          "internalType": "uint256",
          "name": "liquidationBonus",
          "type": "uint256"
        },
        {
          "indexed": false,
          "internalType": "address",
          "name": "oracle",
          "type": "address"
        },
        {
          "indexed": false,
          "internalType": "string",
          "name": "label",
          "type": "string"
        }
      ],
      "name": "EModeCategoryAdded",
      "type": "event"
    },
    {
      "anonymous": false,
      "inputs": [
        {
          "indexed": false,
          "internalType": "uint128",
          "name": "oldFlashloanPremiumToProtocol",
          "type": "uint128"
        },
        {
          "indexed": false,
          "internalType": "uint128",
          "name": "newFlashloanPremiumToProtocol",
          "type": "uint128"
        }
      ],
      "name": "FlashloanPremiumToProtocolUpdated",
      "type": "event"
    },
    {
      "anonymous": false,
      "inputs": [
        {
          "indexed": false,
          "internalType": "uint128",
          "name": "oldFlashloanPremiumTotal",
          "type": "uint128"
        },
        {
          "indexed": false,
          "internalType": "uint128",
          "name": "newFlashloanPremiumTotal",
          "type": "uint128"
        }
      ],
      "name": "FlashloanPremiumTotalUpdated",
      "type": "event"
    },
    {
      "anonymous": false,
      "inputs": [
        {
          "indexed": true,
          "internalType": "address",
          "name": "asset",
          "type": "address"
        },
        {
          "indexed": false,
          "internalType": "uint256",
          "name": "oldFee",
          "type": "uint256"
        },
        {
          "indexed": false,
          "internalType": "uint256",
          "name": "newFee",
          "type": "uint256"
        }
      ],
      "name": "LiquidationProtocolFeeChanged",
      "type": "event"
    },
    {
      "anonymous": false,
      "inputs": [
        {
          "indexed": true,
          "internalType": "address",
          "name": "asset",
          "type": "address"
        },
        {
          "indexed": false,
          "internalType": "bool",
          "name": "active",
          "type": "bool"
        }
      ],
      "name": "ReserveActive",
      "type": "event"
    },
    {
      "anonymous": false,
      "inputs": [
        {
          "indexed": true,
          "internalType": "address",
          "name": "asset",
          "type": "address"
        },
        {
          "indexed": false,
          "internalType": "bool",
          "name": "enabled",
          "type": "bool"
        }
      ],
      "name": "ReserveBorrowing",
      "type": "event"
    },
    {
      "anonymous": false,
      "inputs": [
        {
          "indexed": true,
          "internalType": "address",
          "name": "asset",
          "type": "address"
        }
      ],
      "name": "ReserveDropped",
      "type": "event"
    },
    {
      "anonymous": false,
      "inputs": [
        {
          "indexed": true,
          "internalType": "address",
          "name": "asset",
          "type": "address"
        },
        {
          "indexed": false,
          "internalType": "uint256",
          "name": "oldReserveFactor",
          "type": "uint256"
        },
        {
          "indexed": false,
          "internalType": "uint256",
          "name": "newReserveFactor",
          "type": "uint256"
        }
      ],
      "name": "ReserveFactorChanged",
      "type": "event"
    },
    {
      "anonymous": false,
      "inputs": [
        {
          "indexed": true,
          "internalType": "address",
          "name": "asset",
          "type": "address"
        },
        {
          "indexed": false,
          "internalType": "bool",
          "name": "enabled",
          "type": "bool"
        }
      ],
      "name": "ReserveFlashLoaning",
      "type": "event"
    },
    {
      "anonymous": false,
      "inputs": [
        {
          "indexed": true,
          "internalType": "address",
          "name": "asset",
          "type": "address"
        },
        {
          "indexed": false,
          "internalType": "bool",
          "name": "frozen",
          "type": "bool"
        }
      ],
      "name": "ReserveFrozen",
      "type": "event"
    },
    {
      "anonymous": false,
      "inputs": [
        {
          "indexed": true,
          "internalType": "address",
          "name": "asset",
          "type": "address"
        },
        {
          "indexed": true,
          "internalType": "address",
          "name": "btoken",
          "type": "address"
        },
        {
          "indexed": false,
          "internalType": "address",
          "name": "stableDebtToken",
          "type": "address"
        },
        {
          "indexed": false,
          "internalType": "address",
          "name": "variableDebtToken",
          "type": "address"
        },
        {
          "indexed": false,
          "internalType": "address",
          "name": "interestRateStrategyAddress",
          "type": "address"
        }
      ],
      "name": "ReserveInitialized",
      "type": "event"
    },
    {
      "anonymous": false,
      "inputs": [
        {
          "indexed": true,
          "internalType": "address",
          "name": "asset",
          "type": "address"
        },
        {
          "indexed": false,
          "internalType": "address",
          "name": "oldStrategy",
          "type": "address"
        },
        {
          "indexed": false,
          "internalType": "address",
          "name": "newStrategy",
          "type": "address"
        }
      ],
      "name": "ReserveInterestRateStrategyChanged",
      "type": "event"
    },
    {
      "anonymous": false,
      "inputs": [
        {
          "indexed": true,
          "internalType": "address",
          "name": "asset",
          "type": "address"
        },
        {
          "indexed": false,
          "internalType": "bool",
          "name": "paused",
          "type": "bool"
        }
      ],
      "name": "ReservePaused",
      "type": "event"
    },
    {
      "anonymous": false,
      "inputs": [
        {
          "indexed": true,
          "internalType": "address",
          "name": "asset",
          "type": "address"
        },
        {
          "indexed": false,
          "internalType": "bool",
          "name": "enabled",
          "type": "bool"
        }
      ],
      "name": "ReserveStableRateBorrowing",
      "type": "event"
    },
    {
      "anonymous": false,
      "inputs": [
        {
          "indexed": true,
          "internalType": "address",
          "name": "asset",
          "type": "address"
        },
        {
          "indexed": false,
          "internalType": "bool",
          "name": "oldState",
          "type": "bool"
        },
        {
          "indexed": false,
          "internalType": "bool",
          "name": "newState",
          "type": "bool"
        }
      ],
      "name": "SiloedBorrowingChanged",
      "type": "event"
    },
    {
      "anonymous": false,
      "inputs": [
        {
          "indexed": true,
          "internalType": "address",
          "name": "asset",
          "type": "address"
        },
        {
          "indexed": true,
          "internalType": "address",
          "name": "proxy",
          "type": "address"
        },
        {
          "indexed": true,
          "internalType": "address",
          "name": "implementation",
          "type": "address"
        }
      ],
      "name": "StableDebtTokenUpgraded",
      "type": "event"
    },
    {
      "anonymous": false,
      "inputs": [
        {
          "indexed": true,
          "internalType": "address",
          "name": "asset",
          "type": "address"
        },
        {
          "indexed": false,
          "internalType": "uint256",
          "name": "oldSupplyCap",
          "type": "uint256"
        },
        {
          "indexed": false,
          "internalType": "uint256",
          "name": "newSupplyCap",
          "type": "uint256"
        }
      ],
      "name": "SupplyCapChanged",
      "type": "event"
    },
    {
      "anonymous": false,
      "inputs": [
        {
          "indexed": true,
          "internalType": "address",
          "name": "asset",
          "type": "address"
        },
        {
          "indexed": false,
          "internalType": "uint256",
          "name": "oldUnbackedMintCap",
          "type": "uint256"
        },
        {
          "indexed": false,
          "internalType": "uint256",
          "name": "newUnbackedMintCap",
          "type": "uint256"
        }
      ],
      "name": "UnbackedMintCapChanged",
      "type": "event"
    },
    {
      "anonymous": false,
      "inputs": [
        {
          "indexed": true,
          "internalType": "address",
          "name": "asset",
          "type": "address"
        },
        {
          "indexed": true,
          "internalType": "address",
          "name": "proxy",
          "type": "address"
        },
        {
          "indexed": true,
          "internalType": "address",
          "name": "implementation",
          "type": "address"
        }
      ],
      "name": "VariableDebtTokenUpgraded",
      "type": "event"
    },
    {
      "inputs": [],
      "name": "CONFIGURATOR_REVISION",
      "outputs": [
        {
          "internalType": "uint256",
          "name": "",
          "type": "uint256"
        }
      ],
      "stateMutability": "view",
      "type": "function"
    },
    {
      "inputs": [
        {
          "internalType": "address",
          "name": "asset",
          "type": "address"
        },
        {
          "internalType": "uint256",
          "name": "ltv",
          "type": "uint256"
        },
        {
          "internalType": "uint256",
          "name": "liquidationThreshold",
          "type": "uint256"
        },
        {
          "internalType": "uint256",
          "name": "liquidationBonus",
          "type": "uint256"
        }
      ],
      "name": "configureReserveAsCollateral",
      "outputs": [],
      "stateMutability": "nonpayable",
      "type": "function"
    },
    {
      "inputs": [
        {
          "internalType": "address",
          "name": "asset",
          "type": "address"
        }
      ],
      "name": "dropReserve",
      "outputs": [],
      "stateMutability": "nonpayable",
      "type": "function"
    },
    {
      "inputs": [
        {
          "components": [
            {
              "internalType": "address",
              "name": "bTokenImpl",
              "type": "address"
            },
            {
              "internalType": "address",
              "name": "stableDebtTokenImpl",
              "type": "address"
            },
            {
              "internalType": "address",
              "name": "variableDebtTokenImpl",
              "type": "address"
            },
            {
              "internalType": "uint8",
              "name": "underlyingAssetDecimals",
              "type": "uint8"
            },
            {
              "internalType": "address",
              "name": "interestRateStrategyAddress",
              "type": "address"
            },
            {
              "internalType": "address",
              "name": "underlyingAsset",
              "type": "address"
            },
            {
              "internalType": "address",
              "name": "treasury",
              "type": "address"
            },
            {
              "internalType": "address",
              "name": "incentivesController",
              "type": "address"
            },
            {
              "internalType": "string",
              "name": "bTokenName",
              "type": "string"
            },
            {
              "internalType": "string",
              "name": "bTokenSymbol",
              "type": "string"
            },
            {
              "internalType": "string",
              "name": "variableDebtTokenName",
              "type": "string"
            },
            {
              "internalType": "string",
              "name": "variableDebtTokenSymbol",
              "type": "string"
            },
            {
              "internalType": "string",
              "name": "stableDebtTokenName",
              "type": "string"
            },
            {
              "internalType": "string",
              "name": "stableDebtTokenSymbol",
              "type": "string"
            },
            {
              "internalType": "bytes",
              "name": "params",
              "type": "bytes"
            }
          ],
          "internalType": "struct ConfiguratorInputTypes.InitReserveInput[]",
          "name": "input",
          "type": "tuple[]"
        }
      ],
      "name": "initReserves",
      "outputs": [],
      "stateMutability": "nonpayable",
      "type": "function"
    },
    {
      "inputs": [
        {
          "internalType": "contract IPoolAddressesProvider",
          "name": "provider",
          "type": "address"
        }
      ],
      "name": "initialize",
      "outputs": [],
      "stateMutability": "nonpayable",
      "type": "function"
    },
    {
      "inputs": [
        {
          "internalType": "address",
          "name": "asset",
          "type": "address"
        },
        {
          "internalType": "uint8",
          "name": "newCategoryId",
          "type": "uint8"
        }
      ],
      "name": "setAssetEModeCategory",
      "outputs": [],
      "stateMutability": "nonpayable",
      "type": "function"
    },
    {
      "inputs": [
        {
          "internalType": "address",
          "name": "asset",
          "type": "address"
        },
        {
          "internalType": "uint256",
          "name": "newBorrowCap",
          "type": "uint256"
        }
      ],
      "name": "setBorrowCap",
      "outputs": [],
      "stateMutability": "nonpayable",
      "type": "function"
    },
    {
      "inputs": [
        {
          "internalType": "address",
          "name": "asset",
          "type": "address"
        },
        {
          "internalType": "bool",
          "name": "borrowable",
          "type": "bool"
        }
      ],
      "name": "setBorrowableInIsolation",
      "outputs": [],
      "stateMutability": "nonpayable",
      "type": "function"
    },
    {
      "inputs": [
        {
          "internalType": "address",
          "name": "asset",
          "type": "address"
        },
        {
          "internalType": "uint256",
          "name": "newDebtCeiling",
          "type": "uint256"
        }
      ],
      "name": "setDebtCeiling",
      "outputs": [],
      "stateMutability": "nonpayable",
      "type": "function"
    },
    {
      "inputs": [
        {
          "internalType": "uint8",
          "name": "categoryId",
          "type": "uint8"
        },
        {
          "internalType": "uint16",
          "name": "ltv",
          "type": "uint16"
        },
        {
          "internalType": "uint16",
          "name": "liquidationThreshold",
          "type": "uint16"
        },
        {
          "internalType": "uint16",
          "name": "liquidationBonus",
          "type": "uint16"
        },
        {
          "internalType": "address",
          "name": "oracle",
          "type": "address"
        },
        {
          "internalType": "string",
          "name": "label",
          "type": "string"
        }
      ],
      "name": "setEModeCategory",
      "outputs": [],
      "stateMutability": "nonpayable",
      "type": "function"
    },
    {
      "inputs": [
        {
          "internalType": "address",
          "name": "asset",
          "type": "address"
        },
        {
          "internalType": "uint256",
          "name": "newFee",
          "type": "uint256"
        }
      ],
      "name": "setLiquidationProtocolFee",
      "outputs": [],
      "stateMutability": "nonpayable",
      "type": "function"
    },
    {
      "inputs": [
        {
          "internalType": "bool",
          "name": "paused",
          "type": "bool"
        }
      ],
      "name": "setPoolPause",
      "outputs": [],
      "stateMutability": "nonpayable",
      "type": "function"
    },
    {
      "inputs": [
        {
          "internalType": "address",
          "name": "asset",
          "type": "address"
        },
        {
          "internalType": "bool",
          "name": "active",
          "type": "bool"
        }
      ],
      "name": "setReserveActive",
      "outputs": [],
      "stateMutability": "nonpayable",
      "type": "function"
    },
    {
      "inputs": [
        {
          "internalType": "address",
          "name": "asset",
          "type": "address"
        },
        {
          "internalType": "bool",
          "name": "enabled",
          "type": "bool"
        }
      ],
      "name": "setReserveBorrowing",
      "outputs": [],
      "stateMutability": "nonpayable",
      "type": "function"
    },
    {
      "inputs": [
        {
          "internalType": "address",
          "name": "asset",
          "type": "address"
        },
        {
          "internalType": "uint256",
          "name": "newReserveFactor",
          "type": "uint256"
        }
      ],
      "name": "setReserveFactor",
      "outputs": [],
      "stateMutability": "nonpayable",
      "type": "function"
    },
    {
      "inputs": [
        {
          "internalType": "address",
          "name": "asset",
          "type": "address"
        },
        {
          "internalType": "bool",
          "name": "enabled",
          "type": "bool"
        }
      ],
      "name": "setReserveFlashLoaning",
      "outputs": [],
      "stateMutability": "nonpayable",
      "type": "function"
    },
    {
      "inputs": [
        {
          "internalType": "address",
          "name": "asset",
          "type": "address"
        },
        {
          "internalType": "bool",
          "name": "freeze",
          "type": "bool"
        }
      ],
      "name": "setReserveFreeze",
      "outputs": [],
      "stateMutability": "nonpayable",
      "type": "function"
    },
    {
      "inputs": [
        {
          "internalType": "address",
          "name": "asset",
          "type": "address"
        },
        {
          "internalType": "address",
          "name": "newRateStrategyAddress",
          "type": "address"
        }
      ],
      "name": "setReserveInterestRateStrategyAddress",
      "outputs": [],
      "stateMutability": "nonpayable",
      "type": "function"
    },
    {
      "inputs": [
        {
          "internalType": "address",
          "name": "asset",
          "type": "address"
        },
        {
          "internalType": "bool",
          "name": "paused",
          "type": "bool"
        }
      ],
      "name": "setReservePause",
      "outputs": [],
      "stateMutability": "nonpayable",
      "type": "function"
    },
    {
      "inputs": [
        {
          "internalType": "address",
          "name": "asset",
          "type": "address"
        },
        {
          "internalType": "bool",
          "name": "enabled",
          "type": "bool"
        }
      ],
      "name": "setReserveStableRateBorrowing",
      "outputs": [],
      "stateMutability": "nonpayable",
      "type": "function"
    },
    {
      "inputs": [
        {
          "internalType": "address",
          "name": "asset",
          "type": "address"
        },
        {
          "internalType": "bool",
          "name": "newSiloed",
          "type": "bool"
        }
      ],
      "name": "setSiloedBorrowing",
      "outputs": [],
      "stateMutability": "nonpayable",
      "type": "function"
    },
    {
      "inputs": [
        {
          "internalType": "address",
          "name": "asset",
          "type": "address"
        },
        {
          "internalType": "uint256",
          "name": "newSupplyCap",
          "type": "uint256"
        }
      ],
      "name": "setSupplyCap",
      "outputs": [],
      "stateMutability": "nonpayable",
      "type": "function"
    },
    {
      "inputs": [
        {
          "internalType": "address",
          "name": "asset",
          "type": "address"
        },
        {
          "internalType": "uint256",
          "name": "newUnbackedMintCap",
          "type": "uint256"
        }
      ],
      "name": "setUnbackedMintCap",
      "outputs": [],
      "stateMutability": "nonpayable",
      "type": "function"
    },
    {
      "inputs": [
        {
          "components": [
            {
              "internalType": "address",
              "name": "asset",
              "type": "address"
            },
            {
              "internalType": "address",
              "name": "treasury",
              "type": "address"
            },
            {
              "internalType": "address",
              "name": "incentivesController",
              "type": "address"
            },
            {
              "internalType": "string",
              "name": "name",
              "type": "string"
            },
            {
              "internalType": "string",
              "name": "symbol",
              "type": "string"
            },
            {
              "internalType": "address",
              "name": "implementation",
              "type": "address"
            },
            {
              "internalType": "bytes",
              "name": "params",
              "type": "bytes"
            }
          ],
          "internalType": "struct ConfiguratorInputTypes.UpdateBTokenInput",
          "name": "input",
          "type": "tuple"
        }
      ],
      "name": "updateBToken",
      "outputs": [],
      "stateMutability": "nonpayable",
      "type": "function"
    },
    {
      "inputs": [
        {
          "internalType": "uint256",
          "name": "newBridgeProtocolFee",
          "type": "uint256"
        }
      ],
      "name": "updateBridgeProtocolFee",
      "outputs": [],
      "stateMutability": "nonpayable",
      "type": "function"
    },
    {
      "inputs": [
        {
          "internalType": "uint128",
          "name": "newFlashloanPremiumToProtocol",
          "type": "uint128"
        }
      ],
      "name": "updateFlashloanPremiumToProtocol",
      "outputs": [],
      "stateMutability": "nonpayable",
      "type": "function"
    },
    {
      "inputs": [
        {
          "internalType": "uint128",
          "name": "newFlashloanPremiumTotal",
          "type": "uint128"
        }
      ],
      "name": "updateFlashloanPremiumTotal",
      "outputs": [],
      "stateMutability": "nonpayable",
      "type": "function"
    },
    {
      "inputs": [
        {
          "components": [
            {
              "internalType": "address",
              "name": "asset",
              "type": "address"
            },
            {
              "internalType": "address",
              "name": "incentivesController",
              "type": "address"
            },
            {
              "internalType": "string",
              "name": "name",
              "type": "string"
            },
            {
              "internalType": "string",
              "name": "symbol",
              "type": "string"
            },
            {
              "internalType": "address",
              "name": "implementation",
              "type": "address"
            },
            {
              "internalType": "bytes",
              "name": "params",
              "type": "bytes"
            }
          ],
          "internalType": "struct ConfiguratorInputTypes.UpdateDebtTokenInput",
          "name": "input",
          "type": "tuple"
        }
      ],
      "name": "updateStableDebtToken",
      "outputs": [],
      "stateMutability": "nonpayable",
      "type": "function"
    },
    {
      "inputs": [
        {
          "components": [
            {
              "internalType": "address",
              "name": "asset",
              "type": "address"
            },
            {
              "internalType": "address",
              "name": "incentivesController",
              "type": "address"
            },
            {
              "internalType": "string",
              "name": "name",
              "type": "string"
            },
            {
              "internalType": "string",
              "name": "symbol",
              "type": "string"
            },
            {
              "internalType": "address",
              "name": "implementation",
              "type": "address"
            },
            {
              "internalType": "bytes",
              "name": "params",
              "type": "bytes"
            }
          ],
          "internalType": "struct ConfiguratorInputTypes.UpdateDebtTokenInput",
          "name": "input",
          "type": "tuple"
        }
      ],
      "name": "updateVariableDebtToken",
      "outputs": [],
      "stateMutability": "nonpayable",
      "type": "function"
    }
  ],
  "transactionHash": "0x4481619e274c2c82655ed6741e02d56a67af6e0558756671adc985fe0833fea4",
  "args": [],
  "numDeployments": 1,
  "solcInputHash": "c351ce62b62f76bd5a8479a8f9cf6c24",
  "bytecode": "0x60806040526000805534801561001457600080fd5b50614696806100246000396000f3fe608060405234801561001057600080fd5b50600436106101cf5760003560e01c80637af635a611610104578063aeb4fcc1116100a2578063d14a098311610071578063d14a0983146103b8578063d4fe3f99146103cb578063f213ef0e146103de578063fd08c25d146103f157600080fd5b8063aeb4fcc11461036c578063b736aaeb1461037f578063c19d61e414610392578063c4d66de8146103a557600080fd5b80638a751a60116100de5780638a751a601461032057806396e957c414610333578063a7fa83b714610346578063ad4e64321461035957600080fd5b80637af635a6146102e05780637c4e560b146102fa5780638a4936761461030d57600080fd5b806348d9fba91161017157806363c9b8601161014b57806363c9b86014610294578063682cf264146102a75780637626cde3146102ba5780637641f3d9146102cd57600080fd5b806348d9fba91461025b5780634b4e67531461026e578063571f03e51461028157600080fd5b80631df970bd116101ad5780631df970bd1461020f57806326d2cec2146102225780633036b4391461023557806338ae0cc31461024857600080fd5b806302fb45e6146101d4578063145f5892146101e95780631d2118f9146101fc575b600080fd5b6101e76101e23660046137da565b610404565b005b6101e76101f7366004613877565b6104c8565b6101e761020a3660046138a3565b610607565b6101e761021d3660046138f1565b610733565b6101e7610230366004613877565b61091b565b6101e7610243366004613915565b610a8a565b6101e761025636600461393c565b610bd3565b6101e761026936600461393c565b610d03565b6101e761027c366004613877565b610e34565b6101e761028f366004613877565b610fa3565b6101e76102a236600461396a565b6110d8565b6101e76102b536600461393c565b611176565b6101e76102c8366004613987565b6112e5565b6101e76102db3660046139c2565b611364565b6102e8600181565b60405190815260200160405180910390f35b6101e76103083660046139df565b611458565b6101e761031b3660046138f1565b6116b3565b6101e761032e36600461393c565b61188a565b6101e761034136600461393c565b6119fd565b6101e761035436600461393c565b611b21565b6101e7610367366004613987565b611c73565b6101e761037a366004613877565b611cbf565b6101e761038d36600461393c565b611e72565b6101e76103a0366004613a3b565b611fa4565b6101e76103b336600461396a565b612407565b6101e76103c6366004613877565b612558565b6101e76103d9366004613b09565b61268d565b6101e76103ec36600461393c565b612898565b6101e76103ff366004613b3e565b6129bc565b61040c612a08565b6035546001600160a01b031660005b828110156104c257734ed7c70F96B99c776995fB64377f0d4aB3B0e1C163df59b8b28386868581811061045057610450613b79565b90506020028101906104629190613b8f565b6040518363ffffffff1660e01b815260040161047f929190613c26565b60006040518083038186803b15801561049757600080fd5b505af41580156104ab573d6000803e3d6000fd5b5050505080806104ba90613e50565b91505061041b565b50505050565b6104d0612b8a565b60355460405163c44b11f760e01b81526001600160a01b038481166004830152600092169063c44b11f790602401602060405180830381865afa15801561051b573d6000803e3d6000fd5b505050506040513d601f19601f8201168201806040525081019061053f9190613f4d565b805190915060b01c640fffffffff166105588284612d09565b60355460405163f51e435b60e01b81526001600160a01b039091169063f51e435b9061058a9087908690600401613f69565b600060405180830381600087803b1580156105a457600080fd5b505af11580156105b8573d6000803e3d6000fd5b505060408051848152602081018790526001600160a01b03881693507f09808b1fc5abde94edf02fdde393bea0d2e4795999ba31695472848638b5c29f9250015b60405180910390a250505050565b61060f612b8a565b6035546040516335ea6a7560e01b81526001600160a01b03848116600483015260009216906335ea6a75906024016101e060405180830381865afa15801561065b573d6000803e3d6000fd5b505050506040513d601f19601f8201168201806040525081019061067f9190613fb9565b610160810151603554604051631d2118f960e01b81526001600160a01b038781166004830152868116602483015293945091921690631d2118f990604401600060405180830381600087803b1580156106d757600080fd5b505af11580156106eb573d6000803e3d6000fd5b5050604080516001600160a01b0385811682528781166020830152881693507fdb8dada53709ce4988154324196790c2e4a60c377e1256790946f83b87db3c339250016105f9565b61073b612d61565b604080518082019091526002815261313960f01b60208201526127106001600160801b03831611156107895760405162461bcd60e51b8152600401610780919061412c565b60405180910390fd5b506035546040805163354ce01b60e11b815290516000926001600160a01b031691636a99c0369160048083019260209291908290030181865afa1580156107d4573d6000803e3d6000fd5b505050506040513d601f19601f820116820180604052508101906107f8919061413f565b6035546040805163074b2e4360e01b815290519293506001600160a01b039091169163bcb6e52291839163074b2e43916004808201926020929091908290030181865afa15801561084d573d6000803e3d6000fd5b505050506040513d601f19601f82011682018060405250810190610871919061413f565b6040516001600160e01b031960e084901b1681526001600160801b0391821660048201529085166024820152604401600060405180830381600087803b1580156108ba57600080fd5b505af11580156108ce573d6000803e3d6000fd5b5050604080516001600160801b038086168252861660208201527fe7e0c75e1fc2d0bd83dc85d59f085b3e763107c392fb368e85572b292f1f557693500190505b60405180910390a15050565b610923612b8a565b604080518082019091526002815261037360f41b602082015261271082111561095f5760405162461bcd60e51b8152600401610780919061412c565b5060355460405163c44b11f760e01b81526001600160a01b038481166004830152600092169063c44b11f790602401602060405180830381865afa1580156109ab573d6000803e3d6000fd5b505050506040513d601f19601f820116820180604052508101906109cf9190613f4d565b805190915060981c61ffff166109e58284612e72565b60355460405163f51e435b60e01b81526001600160a01b039091169063f51e435b90610a179087908690600401613f69565b600060405180830381600087803b158015610a3157600080fd5b505af1158015610a45573d6000803e3d6000fd5b505060408051848152602081018790526001600160a01b03881693507fb5b0a963825337808b6e3154de8e98027595a5cad4219bb3a9bc55b192f4b3919250016105f9565b610a92612d61565b604080518082019091526002815261191960f11b6020820152612710821115610ace5760405162461bcd60e51b8152600401610780919061412c565b5060355460408051631396c83960e11b815290516000926001600160a01b03169163272d90729160048083019260209291908290030181865afa158015610b19573d6000803e3d6000fd5b505050506040513d601f19601f82011682018060405250810190610b3d919061415c565b603554604051633036b43960e01b8152600481018590529192506001600160a01b031690633036b43990602401600060405180830381600087803b158015610b8457600080fd5b505af1158015610b98573d6000803e3d6000fd5b505060408051848152602081018690527f30b17cb587a89089d003457c432f73e22aeee93de425e92224ba01080260ecd9935001905061090f565b610bdb612b8a565b60355460405163c44b11f760e01b81526001600160a01b038481166004830152600092169063c44b11f790602401602060405180830381865afa158015610c26573d6000803e3d6000fd5b505050506040513d601f19601f82011682018060405250810190610c4a9190613f4d565b9050610c568183612ec4565b60355460405163f51e435b60e01b81526001600160a01b039091169063f51e435b90610c889086908590600401613f69565b600060405180830381600087803b158015610ca257600080fd5b505af1158015610cb6573d6000803e3d6000fd5b5050604080516001600160a01b038716815285151560208201527f74adf6aaf58c08bc4f993640385e136522375ea3d1589a10d02adbb906c67d1c935001905060405180910390a1505050565b610d0b612ef2565b60355460405163c44b11f760e01b81526001600160a01b038481166004830152600092169063c44b11f790602401602060405180830381865afa158015610d56573d6000803e3d6000fd5b505050506040513d601f19601f82011682018060405250810190610d7a9190613f4d565b9050610d868183613071565b60355460405163f51e435b60e01b81526001600160a01b039091169063f51e435b90610db89086908590600401613f69565b600060405180830381600087803b158015610dd257600080fd5b505af1158015610de6573d6000803e3d6000fd5b50505050826001600160a01b03167fe188d542a5f11925d3a3af33703cdd30a43cb3e8066a3cf68b1b57f61a5a94b583604051610e27911515815260200190565b60405180910390a2505050565b610e3c612b8a565b604080518082019091526002815261363760f01b6020820152612710821115610e785760405162461bcd60e51b8152600401610780919061412c565b5060355460405163c44b11f760e01b81526001600160a01b038481166004830152600092169063c44b11f790602401602060405180830381865afa158015610ec4573d6000803e3d6000fd5b505050506040513d601f19601f82011682018060405250810190610ee89190613f4d565b805190915060401c61ffff16610efe828461309f565b60355460405163f51e435b60e01b81526001600160a01b039091169063f51e435b90610f309087908690600401613f69565b600060405180830381600087803b158015610f4a57600080fd5b505af1158015610f5e573d6000803e3d6000fd5b505060408051848152602081018790526001600160a01b03881693507fb46e2b82b0c2cf3d7d9dece53635e165c53e0eaa7a44f904d61a2b7174826aef9250016105f9565b610fab612b8a565b60355460405163c44b11f760e01b81526001600160a01b038481166004830152600092169063c44b11f790602401602060405180830381865afa158015610ff6573d6000803e3d6000fd5b505050506040513d601f19601f8201168201806040525081019061101a9190613f4d565b805190915060741c640fffffffff1661103382846130f6565b60355460405163f51e435b60e01b81526001600160a01b039091169063f51e435b906110659087908690600401613f69565b600060405180830381600087803b15801561107f57600080fd5b505af1158015611093573d6000803e3d6000fd5b505060408051848152602081018790526001600160a01b03881693507f0263602682188540a2d633561c0b4453b7d8566285e99f9f6018b8ef2facef499250016105f9565b6110e0612d61565b60355460405163031e4dc360e51b81526001600160a01b038381166004830152909116906363c9b86090602401600060405180830381600087803b15801561112757600080fd5b505af115801561113b573d6000803e3d6000fd5b50506040516001600160a01b03841692507feeec4c06f7adad215cbdb4d2960896c83c26aedce02dde76d36fa28588d62da49150600090a250565b61117e612b8a565b60355460405163c44b11f760e01b81526001600160a01b038481166004830152600092169063c44b11f790602401602060405180830381865afa1580156111c9573d6000803e3d6000fd5b505050506040513d601f19601f820116820180604052508101906111ed9190613f4d565b90508161123a578051604080518082019091526002815261070760f31b60208201529067080000000000000016156112385760405162461bcd60e51b8152600401610780919061412c565b505b611244818361314e565b60355460405163f51e435b60e01b81526001600160a01b039091169063f51e435b906112769086908590600401613f69565b600060405180830381600087803b15801561129057600080fd5b505af11580156112a4573d6000803e3d6000fd5b50505050826001600160a01b03167f2443ba28e8d1d88d531a3d90b981816a4f3b3c7f1fd4085c6029e81d1b7a570d83604051610e27911515815260200190565b6112ed612d61565b603554604051630f5b50e760e41b8152734ed7c70F96B99c776995fB64377f0d4aB3B0e1C19163f5b50e7091611331916001600160a01b0316908590600401614175565b60006040518083038186803b15801561134957600080fd5b505af415801561135d573d6000803e3d6000fd5b5050505050565b61136c61317c565b603554604080516334651b6f60e21b815290516000926001600160a01b03169163d1946dbc91600480830192869291908290030181865afa1580156113b5573d6000803e3d6000fd5b505050506040513d6000823e601f3d908101601f191682016040526113dd9190810190614243565b905060005b81518110156114535760006001600160a01b031682828151811061140857611408613b79565b60200260200101516001600160a01b0316146114415761144182828151811061143357611433613b79565b602002602001015184610d03565b8061144b81613e50565b9150506113e2565b505050565b611460612b8a565b604080518082019091526002815261032360f41b60208201528284111561149a5760405162461bcd60e51b8152600401610780919061412c565b5060355460405163c44b11f760e01b81526001600160a01b038681166004830152600092169063c44b11f790602401602060405180830381865afa1580156114e6573d6000803e3d6000fd5b505050506040513d601f19601f8201168201806040525081019061150a9190613f4d565b9050821561159c57604080518082019091526002815261032360f41b6020820152612710831161154d5760405162461bcd60e51b8152600401610780919061412c565b5061271061155b848461328d565b111560405180604001604052806002815260200161032360f41b815250906115965760405162461bcd60e51b8152600401610780919061412c565b506115de565b604080518082019091526002815261032360f41b602082015282156115d45760405162461bcd60e51b8152600401610780919061412c565b506115de856132b3565b6115e881856133ef565b6115f28184613438565b6115fc8183613489565b60355460405163f51e435b60e01b81526001600160a01b039091169063f51e435b9061162e9088908590600401613f69565b600060405180830381600087803b15801561164857600080fd5b505af115801561165c573d6000803e3d6000fd5b505060408051878152602081018790529081018590526001600160a01b03881692507f637febbda9275aea2e85c0ff690444c8d87eb2e8339bbede9715abcc89cb0995915060600160405180910390a25050505050565b6116bb612d61565b604080518082019091526002815261313960f01b60208201526127106001600160801b03831611156117005760405162461bcd60e51b8152600401610780919061412c565b506035546040805163074b2e4360e01b815290516000926001600160a01b03169163074b2e439160048083019260209291908290030181865afa15801561174b573d6000803e3d6000fd5b505050506040513d601f19601f8201168201806040525081019061176f919061413f565b6035546040805163354ce01b60e11b815290519293506001600160a01b039091169163bcb6e5229185918491636a99c0369160048083019260209291908290030181865afa1580156117c5573d6000803e3d6000fd5b505050506040513d601f19601f820116820180604052508101906117e9919061413f565b6040516001600160e01b031960e085901b1681526001600160801b03928316600482015291166024820152604401600060405180830381600087803b15801561183157600080fd5b505af1158015611845573d6000803e3d6000fd5b5050604080516001600160801b038086168252861660208201527f71aba182c9d0529b516de7a78bed74d49c207ef7e152f52f7ea5d8730138f643935001905061090f565b611892612b8a565b60355460405163c44b11f760e01b81526001600160a01b038481166004830152600092169063c44b11f790602401602060405180830381865afa1580156118dd573d6000803e3d6000fd5b505050506040513d601f19601f820116820180604052508101906119019190613f4d565b9050811561195257805167040000000000000016151560405180604001604052806002815260200161033360f41b815250906119505760405162461bcd60e51b8152600401610780919061412c565b505b61195c81836134dc565b60355460405163f51e435b60e01b81526001600160a01b039091169063f51e435b9061198e9086908590600401613f69565b600060405180830381600087803b1580156119a857600080fd5b505af11580156119bc573d6000803e3d6000fd5b50505050826001600160a01b03167f0b64d0941719acd363f1a6be3d8525d8ec9d71738f7445aabcd88d7939b472e783604051610e27911515815260200190565b611a05612b8a565b60355460405163c44b11f760e01b81526001600160a01b038481166004830152600092169063c44b11f790602401602060405180830381865afa158015611a50573d6000803e3d6000fd5b505050506040513d601f19601f82011682018060405250810190611a749190613f4d565b9050611a80818361350a565b60355460405163f51e435b60e01b81526001600160a01b039091169063f51e435b90611ab29086908590600401613f69565b600060405180830381600087803b158015611acc57600080fd5b505af1158015611ae0573d6000803e3d6000fd5b50505050826001600160a01b03167f0c4443d258a350d27dc50c378b2ebf165e6469725f786d21b30cab16823f558783604051610e27911515815260200190565b611b29612b8a565b8015611b3857611b3882613538565b60355460405163c44b11f760e01b81526001600160a01b038481166004830152600092169063c44b11f790602401602060405180830381865afa158015611b83573d6000803e3d6000fd5b505050506040513d601f19601f82011682018060405250810190611ba79190613f4d565b90506000611bbf825167400000000000000016151590565b9050611bcb828461364d565b60355460405163f51e435b60e01b81526001600160a01b039091169063f51e435b90611bfd9087908690600401613f69565b600060405180830381600087803b158015611c1757600080fd5b505af1158015611c2b573d6000803e3d6000fd5b505060408051841515815286151560208201526001600160a01b03881693507f842a280b07e8e502a9101f32a3b768ebaba3655556dd674f0831900861fc674b9250016105f9565b611c7b612d61565b60355460405163b0f0935560e01b8152734ed7c70F96B99c776995fB64377f0d4aB3B0e1C19163b0f0935591611331916001600160a01b0316908590600401614175565b611cc7612b8a565b60355460405163c44b11f760e01b81526001600160a01b038481166004830152600092169063c44b11f790602401602060405180830381865afa158015611d12573d6000803e3d6000fd5b505050506040513d601f19601f82011682018060405250810190611d369190613f4d565b805190915060009060d41c64ffffffffff16905080600003611d5b57611d5b846132b3565b611d65828461367b565b60355460405163f51e435b60e01b81526001600160a01b039091169063f51e435b90611d979087908690600401613f69565b600060405180830381600087803b158015611db157600080fd5b505af1158015611dc5573d6000803e3d6000fd5b5050505082600003611e315760355460405163e43e88a160e01b81526001600160a01b0386811660048301529091169063e43e88a190602401600060405180830381600087803b158015611e1857600080fd5b505af1158015611e2c573d6000803e3d6000fd5b505050505b60408051828152602081018590526001600160a01b038616917f6824a6c7fbc10d2979b1f1ccf2dd4ed0436541679a661dedb5c10bd4be83068291016105f9565b611e7a612d61565b80611e8857611e88826132b3565b60355460405163c44b11f760e01b81526001600160a01b038481166004830152600092169063c44b11f790602401602060405180830381865afa158015611ed3573d6000803e3d6000fd5b505050506040513d601f19601f82011682018060405250810190611ef79190613f4d565b9050611f0381836136d6565b60355460405163f51e435b60e01b81526001600160a01b039091169063f51e435b90611f359086908590600401613f69565b600060405180830381600087803b158015611f4f57600080fd5b505af1158015611f63573d6000803e3d6000fd5b50505050826001600160a01b03167fc36c7d11ba01a5869d52aa4a3781939dab851cbc9ee6e7fdcedc7d58898a3f1e83604051610e27911515815260200190565b611fac612b8a565b604080518082019091526002815261323160f01b602082015261ffff8716611fe75760405162461bcd60e51b8152600401610780919061412c565b50604080518082019091526002815261323160f01b602082015261ffff86166120235760405162461bcd60e51b8152600401610780919061412c565b508461ffff168661ffff16111560405180604001604052806002815260200161323160f01b815250906120695760405162461bcd60e51b8152600401610780919061412c565b50604080518082019091526002815261323160f01b602082015261271061ffff8616116120a95760405162461bcd60e51b8152600401610780919061412c565b506127106120be61ffff87811690871661328d565b111560405180604001604052806002815260200161323160f01b815250906120f95760405162461bcd60e51b8152600401610780919061412c565b50603554604080516334651b6f60e21b815290516000926001600160a01b03169163d1946dbc91600480830192869291908290030181865afa158015612143573d6000803e3d6000fd5b505050506040513d6000823e601f3d908101601f1916820160405261216b9190810190614243565b905060005b81518110156122ce5760355482516000916001600160a01b03169063c44b11f7908590859081106121a3576121a3613b79565b60200260200101516040518263ffffffff1660e01b81526004016121d691906001600160a01b0391909116815260200190565b602060405180830381865afa1580156121f3573d6000803e3d6000fd5b505050506040513d601f19601f820116820180604052508101906122179190613f4d565b805190915060a81c60ff168a60ff16036122bb57805161ffff168961ffff161160405180604001604052806002815260200161323160f01b815250906122705760405162461bcd60e51b8152600401610780919061412c565b50805160101c61ffff168861ffff161160405180604001604052806002815260200161323160f01b815250906122b95760405162461bcd60e51b8152600401610780919061412c565b505b50806122c681613e50565b915050612170565b50603560009054906101000a90046001600160a01b03166001600160a01b031663d579ea7d896040518060a001604052808b61ffff1681526020018a61ffff1681526020018961ffff168152602001886001600160a01b0316815260200187878080601f01602080910402602001604051908101604052809392919081815260200183838082843760009201919091525050509152506040516001600160e01b031960e085901b1681526123869291906004016142f5565b600060405180830381600087803b1580156123a057600080fd5b505af11580156123b4573d6000803e3d6000fd5b505050508760ff167f0acf8b4a3cace10779798a89a206a0ae73a71b63acdd3be2801d39c2ef7ab3cb8888888888886040516123f59695949392919061435d565b60405180910390a25050505050505050565b6001805460ff16806124185750303b155b80612424575060005481115b6124875760405162461bcd60e51b815260206004820152602e60248201527f436f6e747261637420696e7374616e63652068617320616c726561647920626560448201526d195b881a5b9a5d1a585b1a5e995960921b6064820152608401610780565b60015460ff161580156124a6576001805460ff19168117905560008290555b603480546001600160a01b0319166001600160a01b0385169081179091556040805163026b1d5f60e01b8152905163026b1d5f916004808201926020929091908290030181865afa1580156124ff573d6000803e3d6000fd5b505050506040513d601f19601f82011682018060405250810190612523919061439c565b603580546001600160a01b0319166001600160a01b03929092169190911790558015611453576001805460ff19169055505050565b612560612b8a565b60355460405163c44b11f760e01b81526001600160a01b038481166004830152600092169063c44b11f790602401602060405180830381865afa1580156125ab573d6000803e3d6000fd5b505050506040513d601f19601f820116820180604052508101906125cf9190613f4d565b805190915060501c640fffffffff166125e88284613704565b60355460405163f51e435b60e01b81526001600160a01b039091169063f51e435b9061261a9087908690600401613f69565b600060405180830381600087803b15801561263457600080fd5b505af1158015612648573d6000803e3d6000fd5b505060408051848152602081018790526001600160a01b03881693507fc51aca575985d521c5072ad11549bad77013bb786d57f30f94b40ed8f8dc9bc49250016105f9565b612695612b8a565b60355460405163c44b11f760e01b81526001600160a01b038481166004830152600092169063c44b11f790602401602060405180830381865afa1580156126e0573d6000803e3d6000fd5b505050506040513d601f19601f820116820180604052508101906127049190613f4d565b905060ff8216156127d557603554604051636c6f6ae160e01b815260ff841660048201526000916001600160a01b031690636c6f6ae190602401600060405180830381865afa15801561275b573d6000803e3d6000fd5b505050506040513d6000823e601f3d908101601f1916820160405261278391908101906143b9565b825190915060101c61ffff16816020015161ffff161160405180604001604052806002815260200161313760f01b815250906127d25760405162461bcd60e51b8152600401610780919061412c565b50505b805160009060a81c60ff1690506127ef8260ff851661375c565b60355460405163f51e435b60e01b81526001600160a01b039091169063f51e435b906128219087908690600401613f69565b600060405180830381600087803b15801561283b57600080fd5b505af115801561284f573d6000803e3d6000fd5b50506040805160ff8086168252871660208201526001600160a01b03881693507f5bb69795b6a2ea222d73a5f8939c23471a1f85a99c7ca43c207f1b71f10c62649250016105f9565b6128a0612b8a565b60355460405163c44b11f760e01b81526001600160a01b038481166004830152600092169063c44b11f790602401602060405180830381865afa1580156128eb573d6000803e3d6000fd5b505050506040513d601f19601f8201168201806040525081019061290f9190613f4d565b905061291b81836137ac565b60355460405163f51e435b60e01b81526001600160a01b039091169063f51e435b9061294d9086908590600401613f69565b600060405180830381600087803b15801561296757600080fd5b505af115801561297b573d6000803e3d6000fd5b50505050826001600160a01b03167fc8ff3cc5b0fddaa3e6ebbbd7438f43393e4ea30e88b80ad016c1bc094655034d83604051610e27911515815260200190565b6129c4612d61565b603554604051635391c16d60e01b8152734ed7c70F96B99c776995fB64377f0d4aB3B0e1C191635391c16d91611331916001600160a01b03169085906004016144c6565b6034546040805163383e6b8b60e11b815290516000926001600160a01b03169163707cd7169160048083019260209291908290030181865afa158015612a52573d6000803e3d6000fd5b505050506040513d601f19601f82011682018060405250810190612a76919061439c565b604051629f719760e51b81523360048201529091506001600160a01b038216906313ee32e090602401602060405180830381865afa158015612abc573d6000803e3d6000fd5b505050506040513d601f19601f82011682018060405250810190612ae091906145b4565b80612b4e5750604051637be53ca160e01b81523360048201526001600160a01b03821690637be53ca190602401602060405180830381865afa158015612b2a573d6000803e3d6000fd5b505050506040513d601f19601f82011682018060405250810190612b4e91906145b4565b604051806040016040528060018152602001603560f81b81525090612b865760405162461bcd60e51b8152600401610780919061412c565b5050565b6034546040805163383e6b8b60e11b815290516000926001600160a01b03169163707cd7169160048083019260209291908290030181865afa158015612bd4573d6000803e3d6000fd5b505050506040513d601f19601f82011682018060405250810190612bf8919061439c565b60405163674b5e4d60e01b81523360048201529091506001600160a01b0382169063674b5e4d90602401602060405180830381865afa158015612c3f573d6000803e3d6000fd5b505050506040513d601f19601f82011682018060405250810190612c6391906145b4565b80612cd15750604051637be53ca160e01b81523360048201526001600160a01b03821690637be53ca190602401602060405180830381865afa158015612cad573d6000803e3d6000fd5b505050506040513d601f19601f82011682018060405250810190612cd191906145b4565b604051806040016040528060018152602001600d60fa1b81525090612b865760405162461bcd60e51b8152600401610780919061412c565b6040805180820190915260028152611b9960f11b6020820152640fffffffff821115612d485760405162461bcd60e51b8152600401610780919061412c565b508151640fffffffff60b01b191660b09190911b179052565b6034546040805163383e6b8b60e11b815290516000926001600160a01b03169163707cd7169160048083019260209291908290030181865afa158015612dab573d6000803e3d6000fd5b505050506040513d601f19601f82011682018060405250810190612dcf919061439c565b604051637be53ca160e01b81523360048201529091506001600160a01b03821690637be53ca190602401602060405180830381865afa158015612e16573d6000803e3d6000fd5b505050506040513d601f19601f82011682018060405250810190612e3a91906145b4565b604051806040016040528060018152602001603160f81b81525090612b865760405162461bcd60e51b8152600401610780919061412c565b604080518082019091526002815261037360f41b602082015261ffff821115612eae5760405162461bcd60e51b8152600401610780919061412c565b50815161ffff60981b191660989190911b179052565b603d81612ed2576000612ed5565b60015b8351672000000000000000191660ff9190911690911b1790915250565b6034546040805163383e6b8b60e11b815290516000926001600160a01b03169163707cd7169160048083019260209291908290030181865afa158015612f3c573d6000803e3d6000fd5b505050506040513d601f19601f82011682018060405250810190612f60919061439c565b604051637be53ca160e01b81523360048201529091506001600160a01b03821690637be53ca190602401602060405180830381865afa158015612fa7573d6000803e3d6000fd5b505050506040513d601f19601f82011682018060405250810190612fcb91906145b4565b806130395750604051631280795b60e11b81523360048201526001600160a01b03821690632500f2b690602401602060405180830381865afa158015613015573d6000803e3d6000fd5b505050506040513d601f19601f8201168201806040525081019061303991906145b4565b604051806040016040528060018152602001603360f81b81525090612b865760405162461bcd60e51b8152600401610780919061412c565b603c8161307f576000613082565b60015b8351671000000000000000191660ff9190911690911b1790915250565b604080518082019091526002815261363760f01b602082015261ffff8211156130db5760405162461bcd60e51b8152600401610780919061412c565b50815169ffff0000000000000000191660409190911b179052565b604080518082019091526002815261363960f01b6020820152640fffffffff8211156131355760405162461bcd60e51b8152600401610780919061412c565b508151640fffffffff60741b191660749190911b179052565b603a8161315c57600061315f565b60015b8351670400000000000000191660ff9190911690911b1790915250565b6034546040805163383e6b8b60e11b815290516000926001600160a01b03169163707cd7169160048083019260209291908290030181865afa1580156131c6573d6000803e3d6000fd5b505050506040513d601f19601f820116820180604052508101906131ea919061439c565b604051631280795b60e11b81523360048201529091506001600160a01b03821690632500f2b690602401602060405180830381865afa158015613231573d6000803e3d6000fd5b505050506040513d601f19601f8201168201806040525081019061325591906145b4565b604051806040016040528060018152602001601960f91b81525090612b865760405162461bcd60e51b8152600401610780919061412c565b6000811561138819839004841115176132a557600080fd5b506127109102611388010490565b600080603460009054906101000a90046001600160a01b03166001600160a01b031663e860accb6040518163ffffffff1660e01b8152600401602060405180830381865afa158015613309573d6000803e3d6000fd5b505050506040513d601f19601f8201168201806040525081019061332d919061439c565b6040516335ea6a7560e01b81526001600160a01b03858116600483015291909116906335ea6a759060240161018060405180830381865afa158015613376573d6000803e3d6000fd5b505050506040513d601f19601f8201168201806040525081019061339a91906145d1565b50505050505050505092509250508060001480156133b6575081155b60405180604001604052806002815260200161062760f31b815250906104c25760405162461bcd60e51b8152600401610780919061412c565b604080518082019091526002815261363360f01b602082015261ffff82111561342b5760405162461bcd60e51b8152600401610780919061412c565b50815161ffff1916179052565b6040805180820190915260028152610d8d60f21b602082015261ffff8211156134745760405162461bcd60e51b8152600401610780919061412c565b50815163ffff0000191660109190911b179052565b604080518082019091526002815261363560f01b602082015261ffff8211156134c55760405162461bcd60e51b8152600401610780919061412c565b50815165ffff00000000191660209190911b179052565b603b816134ea5760006134ed565b60015b8351670800000000000000191660ff9190911690911b1790915250565b60398161351857600061351b565b60015b8351670200000000000000191660ff9190911690911b1790915250565b6034546040805163e860accb60e01b815290516000926001600160a01b03169163e860accb9160048083019260209291908290030181865afa158015613582573d6000803e3d6000fd5b505050506040513d601f19601f820116820180604052508101906135a6919061439c565b604051634d44ac4f60e01b81526001600160a01b0384811660048301529190911690634d44ac4f90602401602060405180830381865afa1580156135ee573d6000803e3d6000fd5b505050506040513d601f19601f82011682018060405250810190613612919061415c565b604080518082019091526002815261039360f41b602082015290915081156114535760405162461bcd60e51b8152600401610780919061412c565b603e8161365b57600061365e565b60015b8351674000000000000000191660ff9190911690911b1790915250565b604080518082019091526002815261373360f01b602082015264ffffffffff8211156136ba5760405162461bcd60e51b8152600401610780919061412c565b5081516001650f000000000160d41b031660d49190911b179052565b6038816136e45760006136e7565b60015b8351670100000000000000191660ff9190911690911b1790915250565b60408051808201909152600281526106c760f31b6020820152640fffffffff8211156137435760405162461bcd60e51b8152600401610780919061412c565b508151640fffffffff60501b191660509190911b179052565b604080518082019091526002815261373160f01b602082015260ff8211156137975760405162461bcd60e51b8152600401610780919061412c565b50815160ff60a81b191660a89190911b179052565b603f816137ba5760006137bd565b60015b8351678000000000000000191660ff9190911690911b1790915250565b600080602083850312156137ed57600080fd5b823567ffffffffffffffff8082111561380557600080fd5b818501915085601f83011261381957600080fd5b81358181111561382857600080fd5b8660208260051b850101111561383d57600080fd5b60209290920196919550909350505050565b6001600160a01b038116811461386457600080fd5b50565b80356138728161384f565b919050565b6000806040838503121561388a57600080fd5b82356138958161384f565b946020939093013593505050565b600080604083850312156138b657600080fd5b82356138c18161384f565b915060208301356138d18161384f565b809150509250929050565b6001600160801b038116811461386457600080fd5b60006020828403121561390357600080fd5b813561390e816138dc565b9392505050565b60006020828403121561392757600080fd5b5035919050565b801515811461386457600080fd5b6000806040838503121561394f57600080fd5b823561395a8161384f565b915060208301356138d18161392e565b60006020828403121561397c57600080fd5b813561390e8161384f565b60006020828403121561399957600080fd5b813567ffffffffffffffff8111156139b057600080fd5b820160c0818503121561390e57600080fd5b6000602082840312156139d457600080fd5b813561390e8161392e565b600080600080608085870312156139f557600080fd5b8435613a008161384f565b966020860135965060408601359560600135945092505050565b803560ff8116811461387257600080fd5b61ffff8116811461386457600080fd5b600080600080600080600060c0888a031215613a5657600080fd5b613a5f88613a1a565b96506020880135613a6f81613a2b565b95506040880135613a7f81613a2b565b94506060880135613a8f81613a2b565b93506080880135613a9f8161384f565b925060a088013567ffffffffffffffff80821115613abc57600080fd5b818a0191508a601f830112613ad057600080fd5b813581811115613adf57600080fd5b8b6020828501011115613af157600080fd5b60208301945080935050505092959891949750929550565b60008060408385031215613b1c57600080fd5b8235613b278161384f565b9150613b3560208401613a1a565b90509250929050565b600060208284031215613b5057600080fd5b813567ffffffffffffffff811115613b6757600080fd5b820160e0818503121561390e57600080fd5b634e487b7160e01b600052603260045260246000fd5b600082356101de19833603018112613ba657600080fd5b9190910192915050565b6000808335601e19843603018112613bc757600080fd5b830160208101925035905067ffffffffffffffff811115613be757600080fd5b803603821315613bf657600080fd5b9250929050565b81835281816020850137506000828201602090810191909152601f909101601f19169091010190565b6001600160a01b0383168152604060208201819052613c57908201613c4a84613867565b6001600160a01b03169052565b6000613c6560208401613867565b6001600160a01b03166060830152613c7f60408401613867565b6001600160a01b03166080830152613c9960608401613a1a565b60ff1660a0830152613cad60808401613867565b6001600160a01b031660c0830152613cc760a08401613867565b6001600160a01b031660e0830152613ce160c08401613867565b610100613cf8818501836001600160a01b03169052565b613d0460e08601613867565b9150610120613d1d818601846001600160a01b03169052565b613d2982870187613bb0565b935091506101e06101408181880152613d4761022088018686613bfd565b9450613d5583890189613bb0565b94509250603f196101608189880301818a0152613d73878787613bfd565b9650613d81838b018b613bb0565b9650945061018092508189880301838a0152613d9e878787613bfd565b9650613dac818b018b613bb0565b96509450506101a08189880301818a0152613dc8878787613bfd565b9650613dd6838b018b613bb0565b965094506101c092508189880301838a0152613df3878787613bfd565b9650613e01818b018b613bb0565b9650945050808887030183890152613e1a868686613bfd565b9550613e28828a018a613bb0565b955093508088870301610200890152505050613e45838383613bfd565b979650505050505050565b600060018201613e7057634e487b7160e01b600052601160045260246000fd5b5060010190565b634e487b7160e01b600052604160045260246000fd5b6040516101e0810167ffffffffffffffff81118282101715613eb157613eb1613e77565b60405290565b60405160a0810167ffffffffffffffff81118282101715613eb157613eb1613e77565b604051601f8201601f1916810167ffffffffffffffff81118282101715613f0357613f03613e77565b604052919050565b600060208284031215613f1d57600080fd5b6040516020810181811067ffffffffffffffff82111715613f4057613f40613e77565b6040529151825250919050565b600060208284031215613f5f57600080fd5b61390e8383613f0b565b6001600160a01b0392909216825251602082015260400190565b8051613872816138dc565b805164ffffffffff8116811461387257600080fd5b805161387281613a2b565b80516138728161384f565b60006101e08284031215613fcc57600080fd5b613fd4613e8d565b613fde8484613f0b565b8152613fec60208401613f83565b6020820152613ffd60408401613f83565b604082015261400e60608401613f83565b606082015261401f60808401613f83565b608082015261403060a08401613f83565b60a082015261404160c08401613f8e565b60c082015261405260e08401613fa3565b60e0820152610100614065818501613fae565b90820152610120614077848201613fae565b90820152610140614089848201613fae565b9082015261016061409b848201613fae565b908201526101806140ad848201613f83565b908201526101a06140bf848201613f83565b908201526101c06140d1848201613f83565b908201529392505050565b60005b838110156140f75781810151838201526020016140df565b50506000910152565b600081518084526141188160208601602086016140dc565b601f01601f19169290920160200192915050565b60208152600061390e6020830184614100565b60006020828403121561415157600080fd5b815161390e816138dc565b60006020828403121561416e57600080fd5b5051919050565b6001600160a01b0383811682526040602083015260009083356141978161384f565b8116604084015260208401356141ac8161384f565b1660608301526141bf6040840184613bb0565b60c060808501526141d561010085018284613bfd565b9150506141e56060850185613bb0565b603f19808685030160a08701526141fd848385613bfd565b935061420b60808801613867565b6001600160a01b03811660c0880152925061422960a0880188613bb0565b93509150808685030160e087015250613e45838383613bfd565b6000602080838503121561425657600080fd5b825167ffffffffffffffff8082111561426e57600080fd5b818501915085601f83011261428257600080fd5b81518181111561429457614294613e77565b8060051b91506142a5848301613eda565b81815291830184019184810190888411156142bf57600080fd5b938501935b838510156142e957845192506142d98361384f565b82825293850193908501906142c4565b98975050505050505050565b60ff8316815260406020820152600061ffff8084511660408401528060208501511660608401528060408501511660808401525060018060a01b0360608401511660a0830152608083015160a060c084015261435460e0840182614100565b95945050505050565b61ffff87811682528681166020830152851660408201526001600160a01b038416606082015260a0608082018190526000906142e99083018486613bfd565b6000602082840312156143ae57600080fd5b815161390e8161384f565b600060208083850312156143cc57600080fd5b825167ffffffffffffffff808211156143e457600080fd5b9084019060a082870312156143f857600080fd5b614400613eb7565b825161440b81613a2b565b81528284015161441a81613a2b565b81850152604083015161442c81613a2b565b6040820152606083015161443f8161384f565b606082015260808301518281111561445657600080fd5b80840193505086601f84011261446b57600080fd5b82518281111561447d5761447d613e77565b61448f601f8201601f19168601613eda565b925080835287858286010111156144a557600080fd5b6144b4818685018787016140dc565b50608081019190915295945050505050565b6001600160a01b0383811682526040602083015260009083356144e88161384f565b1660408301526144fa60208401613867565b6001600160a01b0316606083015261451460408401613867565b6001600160a01b0316608083015261452f6060840184613bb0565b60e060a085015261454561012085018284613bfd565b9150506145556080850185613bb0565b603f19808685030160c087015261456d848385613bfd565b935061457b60a08801613867565b6001600160a01b03811660e0880152925061459960c0880188613bb0565b93509150808685030161010087015250613e45838383613bfd565b6000602082840312156145c657600080fd5b815161390e8161392e565b6000806000806000806000806000806000806101808d8f0312156145f457600080fd5b8c519b5060208d01519a5060408d0151995060608d0151985060808d0151975060a08d0151965060c08d0151955060e08d015194506101008d015193506101208d015192506101408d0151915061464e6101608e01613f8e565b90509295989b509295989b509295989b56fea26469706673582212202350ae38ca4fb8fd3e4dd58abc0b86a60d756c1e06a3d18d20b52d2197f0dc8764736f6c63430008140033",
  "deployedBytecode": "0x608060405234801561001057600080fd5b50600436106101cf5760003560e01c80637af635a611610104578063aeb4fcc1116100a2578063d14a098311610071578063d14a0983146103b8578063d4fe3f99146103cb578063f213ef0e146103de578063fd08c25d146103f157600080fd5b8063aeb4fcc11461036c578063b736aaeb1461037f578063c19d61e414610392578063c4d66de8146103a557600080fd5b80638a751a60116100de5780638a751a601461032057806396e957c414610333578063a7fa83b714610346578063ad4e64321461035957600080fd5b80637af635a6146102e05780637c4e560b146102fa5780638a4936761461030d57600080fd5b806348d9fba91161017157806363c9b8601161014b57806363c9b86014610294578063682cf264146102a75780637626cde3146102ba5780637641f3d9146102cd57600080fd5b806348d9fba91461025b5780634b4e67531461026e578063571f03e51461028157600080fd5b80631df970bd116101ad5780631df970bd1461020f57806326d2cec2146102225780633036b4391461023557806338ae0cc31461024857600080fd5b806302fb45e6146101d4578063145f5892146101e95780631d2118f9146101fc575b600080fd5b6101e76101e23660046137da565b610404565b005b6101e76101f7366004613877565b6104c8565b6101e761020a3660046138a3565b610607565b6101e761021d3660046138f1565b610733565b6101e7610230366004613877565b61091b565b6101e7610243366004613915565b610a8a565b6101e761025636600461393c565b610bd3565b6101e761026936600461393c565b610d03565b6101e761027c366004613877565b610e34565b6101e761028f366004613877565b610fa3565b6101e76102a236600461396a565b6110d8565b6101e76102b536600461393c565b611176565b6101e76102c8366004613987565b6112e5565b6101e76102db3660046139c2565b611364565b6102e8600181565b60405190815260200160405180910390f35b6101e76103083660046139df565b611458565b6101e761031b3660046138f1565b6116b3565b6101e761032e36600461393c565b61188a565b6101e761034136600461393c565b6119fd565b6101e761035436600461393c565b611b21565b6101e7610367366004613987565b611c73565b6101e761037a366004613877565b611cbf565b6101e761038d36600461393c565b611e72565b6101e76103a0366004613a3b565b611fa4565b6101e76103b336600461396a565b612407565b6101e76103c6366004613877565b612558565b6101e76103d9366004613b09565b61268d565b6101e76103ec36600461393c565b612898565b6101e76103ff366004613b3e565b6129bc565b61040c612a08565b6035546001600160a01b031660005b828110156104c25773__$3ddc574512022f331a6a4c7e4bbb5c67b6$__63df59b8b28386868581811061045057610450613b79565b90506020028101906104629190613b8f565b6040518363ffffffff1660e01b815260040161047f929190613c26565b60006040518083038186803b15801561049757600080fd5b505af41580156104ab573d6000803e3d6000fd5b5050505080806104ba90613e50565b91505061041b565b50505050565b6104d0612b8a565b60355460405163c44b11f760e01b81526001600160a01b038481166004830152600092169063c44b11f790602401602060405180830381865afa15801561051b573d6000803e3d6000fd5b505050506040513d601f19601f8201168201806040525081019061053f9190613f4d565b805190915060b01c640fffffffff166105588284612d09565b60355460405163f51e435b60e01b81526001600160a01b039091169063f51e435b9061058a9087908690600401613f69565b600060405180830381600087803b1580156105a457600080fd5b505af11580156105b8573d6000803e3d6000fd5b505060408051848152602081018790526001600160a01b03881693507f09808b1fc5abde94edf02fdde393bea0d2e4795999ba31695472848638b5c29f9250015b60405180910390a250505050565b61060f612b8a565b6035546040516335ea6a7560e01b81526001600160a01b03848116600483015260009216906335ea6a75906024016101e060405180830381865afa15801561065b573d6000803e3d6000fd5b505050506040513d601f19601f8201168201806040525081019061067f9190613fb9565b610160810151603554604051631d2118f960e01b81526001600160a01b038781166004830152868116602483015293945091921690631d2118f990604401600060405180830381600087803b1580156106d757600080fd5b505af11580156106eb573d6000803e3d6000fd5b5050604080516001600160a01b0385811682528781166020830152881693507fdb8dada53709ce4988154324196790c2e4a60c377e1256790946f83b87db3c339250016105f9565b61073b612d61565b604080518082019091526002815261313960f01b60208201526127106001600160801b03831611156107895760405162461bcd60e51b8152600401610780919061412c565b60405180910390fd5b506035546040805163354ce01b60e11b815290516000926001600160a01b031691636a99c0369160048083019260209291908290030181865afa1580156107d4573d6000803e3d6000fd5b505050506040513d601f19601f820116820180604052508101906107f8919061413f565b6035546040805163074b2e4360e01b815290519293506001600160a01b039091169163bcb6e52291839163074b2e43916004808201926020929091908290030181865afa15801561084d573d6000803e3d6000fd5b505050506040513d601f19601f82011682018060405250810190610871919061413f565b6040516001600160e01b031960e084901b1681526001600160801b0391821660048201529085166024820152604401600060405180830381600087803b1580156108ba57600080fd5b505af11580156108ce573d6000803e3d6000fd5b5050604080516001600160801b038086168252861660208201527fe7e0c75e1fc2d0bd83dc85d59f085b3e763107c392fb368e85572b292f1f557693500190505b60405180910390a15050565b610923612b8a565b604080518082019091526002815261037360f41b602082015261271082111561095f5760405162461bcd60e51b8152600401610780919061412c565b5060355460405163c44b11f760e01b81526001600160a01b038481166004830152600092169063c44b11f790602401602060405180830381865afa1580156109ab573d6000803e3d6000fd5b505050506040513d601f19601f820116820180604052508101906109cf9190613f4d565b805190915060981c61ffff166109e58284612e72565b60355460405163f51e435b60e01b81526001600160a01b039091169063f51e435b90610a179087908690600401613f69565b600060405180830381600087803b158015610a3157600080fd5b505af1158015610a45573d6000803e3d6000fd5b505060408051848152602081018790526001600160a01b03881693507fb5b0a963825337808b6e3154de8e98027595a5cad4219bb3a9bc55b192f4b3919250016105f9565b610a92612d61565b604080518082019091526002815261191960f11b6020820152612710821115610ace5760405162461bcd60e51b8152600401610780919061412c565b5060355460408051631396c83960e11b815290516000926001600160a01b03169163272d90729160048083019260209291908290030181865afa158015610b19573d6000803e3d6000fd5b505050506040513d601f19601f82011682018060405250810190610b3d919061415c565b603554604051633036b43960e01b8152600481018590529192506001600160a01b031690633036b43990602401600060405180830381600087803b158015610b8457600080fd5b505af1158015610b98573d6000803e3d6000fd5b505060408051848152602081018690527f30b17cb587a89089d003457c432f73e22aeee93de425e92224ba01080260ecd9935001905061090f565b610bdb612b8a565b60355460405163c44b11f760e01b81526001600160a01b038481166004830152600092169063c44b11f790602401602060405180830381865afa158015610c26573d6000803e3d6000fd5b505050506040513d601f19601f82011682018060405250810190610c4a9190613f4d565b9050610c568183612ec4565b60355460405163f51e435b60e01b81526001600160a01b039091169063f51e435b90610c889086908590600401613f69565b600060405180830381600087803b158015610ca257600080fd5b505af1158015610cb6573d6000803e3d6000fd5b5050604080516001600160a01b038716815285151560208201527f74adf6aaf58c08bc4f993640385e136522375ea3d1589a10d02adbb906c67d1c935001905060405180910390a1505050565b610d0b612ef2565b60355460405163c44b11f760e01b81526001600160a01b038481166004830152600092169063c44b11f790602401602060405180830381865afa158015610d56573d6000803e3d6000fd5b505050506040513d601f19601f82011682018060405250810190610d7a9190613f4d565b9050610d868183613071565b60355460405163f51e435b60e01b81526001600160a01b039091169063f51e435b90610db89086908590600401613f69565b600060405180830381600087803b158015610dd257600080fd5b505af1158015610de6573d6000803e3d6000fd5b50505050826001600160a01b03167fe188d542a5f11925d3a3af33703cdd30a43cb3e8066a3cf68b1b57f61a5a94b583604051610e27911515815260200190565b60405180910390a2505050565b610e3c612b8a565b604080518082019091526002815261363760f01b6020820152612710821115610e785760405162461bcd60e51b8152600401610780919061412c565b5060355460405163c44b11f760e01b81526001600160a01b038481166004830152600092169063c44b11f790602401602060405180830381865afa158015610ec4573d6000803e3d6000fd5b505050506040513d601f19601f82011682018060405250810190610ee89190613f4d565b805190915060401c61ffff16610efe828461309f565b60355460405163f51e435b60e01b81526001600160a01b039091169063f51e435b90610f309087908690600401613f69565b600060405180830381600087803b158015610f4a57600080fd5b505af1158015610f5e573d6000803e3d6000fd5b505060408051848152602081018790526001600160a01b03881693507fb46e2b82b0c2cf3d7d9dece53635e165c53e0eaa7a44f904d61a2b7174826aef9250016105f9565b610fab612b8a565b60355460405163c44b11f760e01b81526001600160a01b038481166004830152600092169063c44b11f790602401602060405180830381865afa158015610ff6573d6000803e3d6000fd5b505050506040513d601f19601f8201168201806040525081019061101a9190613f4d565b805190915060741c640fffffffff1661103382846130f6565b60355460405163f51e435b60e01b81526001600160a01b039091169063f51e435b906110659087908690600401613f69565b600060405180830381600087803b15801561107f57600080fd5b505af1158015611093573d6000803e3d6000fd5b505060408051848152602081018790526001600160a01b03881693507f0263602682188540a2d633561c0b4453b7d8566285e99f9f6018b8ef2facef499250016105f9565b6110e0612d61565b60355460405163031e4dc360e51b81526001600160a01b038381166004830152909116906363c9b86090602401600060405180830381600087803b15801561112757600080fd5b505af115801561113b573d6000803e3d6000fd5b50506040516001600160a01b03841692507feeec4c06f7adad215cbdb4d2960896c83c26aedce02dde76d36fa28588d62da49150600090a250565b61117e612b8a565b60355460405163c44b11f760e01b81526001600160a01b038481166004830152600092169063c44b11f790602401602060405180830381865afa1580156111c9573d6000803e3d6000fd5b505050506040513d601f19601f820116820180604052508101906111ed9190613f4d565b90508161123a578051604080518082019091526002815261070760f31b60208201529067080000000000000016156112385760405162461bcd60e51b8152600401610780919061412c565b505b611244818361314e565b60355460405163f51e435b60e01b81526001600160a01b039091169063f51e435b906112769086908590600401613f69565b600060405180830381600087803b15801561129057600080fd5b505af11580156112a4573d6000803e3d6000fd5b50505050826001600160a01b03167f2443ba28e8d1d88d531a3d90b981816a4f3b3c7f1fd4085c6029e81d1b7a570d83604051610e27911515815260200190565b6112ed612d61565b603554604051630f5b50e760e41b815273__$3ddc574512022f331a6a4c7e4bbb5c67b6$__9163f5b50e7091611331916001600160a01b0316908590600401614175565b60006040518083038186803b15801561134957600080fd5b505af415801561135d573d6000803e3d6000fd5b5050505050565b61136c61317c565b603554604080516334651b6f60e21b815290516000926001600160a01b03169163d1946dbc91600480830192869291908290030181865afa1580156113b5573d6000803e3d6000fd5b505050506040513d6000823e601f3d908101601f191682016040526113dd9190810190614243565b905060005b81518110156114535760006001600160a01b031682828151811061140857611408613b79565b60200260200101516001600160a01b0316146114415761144182828151811061143357611433613b79565b602002602001015184610d03565b8061144b81613e50565b9150506113e2565b505050565b611460612b8a565b604080518082019091526002815261032360f41b60208201528284111561149a5760405162461bcd60e51b8152600401610780919061412c565b5060355460405163c44b11f760e01b81526001600160a01b038681166004830152600092169063c44b11f790602401602060405180830381865afa1580156114e6573d6000803e3d6000fd5b505050506040513d601f19601f8201168201806040525081019061150a9190613f4d565b9050821561159c57604080518082019091526002815261032360f41b6020820152612710831161154d5760405162461bcd60e51b8152600401610780919061412c565b5061271061155b848461328d565b111560405180604001604052806002815260200161032360f41b815250906115965760405162461bcd60e51b8152600401610780919061412c565b506115de565b604080518082019091526002815261032360f41b602082015282156115d45760405162461bcd60e51b8152600401610780919061412c565b506115de856132b3565b6115e881856133ef565b6115f28184613438565b6115fc8183613489565b60355460405163f51e435b60e01b81526001600160a01b039091169063f51e435b9061162e9088908590600401613f69565b600060405180830381600087803b15801561164857600080fd5b505af115801561165c573d6000803e3d6000fd5b505060408051878152602081018790529081018590526001600160a01b03881692507f637febbda9275aea2e85c0ff690444c8d87eb2e8339bbede9715abcc89cb0995915060600160405180910390a25050505050565b6116bb612d61565b604080518082019091526002815261313960f01b60208201526127106001600160801b03831611156117005760405162461bcd60e51b8152600401610780919061412c565b506035546040805163074b2e4360e01b815290516000926001600160a01b03169163074b2e439160048083019260209291908290030181865afa15801561174b573d6000803e3d6000fd5b505050506040513d601f19601f8201168201806040525081019061176f919061413f565b6035546040805163354ce01b60e11b815290519293506001600160a01b039091169163bcb6e5229185918491636a99c0369160048083019260209291908290030181865afa1580156117c5573d6000803e3d6000fd5b505050506040513d601f19601f820116820180604052508101906117e9919061413f565b6040516001600160e01b031960e085901b1681526001600160801b03928316600482015291166024820152604401600060405180830381600087803b15801561183157600080fd5b505af1158015611845573d6000803e3d6000fd5b5050604080516001600160801b038086168252861660208201527f71aba182c9d0529b516de7a78bed74d49c207ef7e152f52f7ea5d8730138f643935001905061090f565b611892612b8a565b60355460405163c44b11f760e01b81526001600160a01b038481166004830152600092169063c44b11f790602401602060405180830381865afa1580156118dd573d6000803e3d6000fd5b505050506040513d601f19601f820116820180604052508101906119019190613f4d565b9050811561195257805167040000000000000016151560405180604001604052806002815260200161033360f41b815250906119505760405162461bcd60e51b8152600401610780919061412c565b505b61195c81836134dc565b60355460405163f51e435b60e01b81526001600160a01b039091169063f51e435b9061198e9086908590600401613f69565b600060405180830381600087803b1580156119a857600080fd5b505af11580156119bc573d6000803e3d6000fd5b50505050826001600160a01b03167f0b64d0941719acd363f1a6be3d8525d8ec9d71738f7445aabcd88d7939b472e783604051610e27911515815260200190565b611a05612b8a565b60355460405163c44b11f760e01b81526001600160a01b038481166004830152600092169063c44b11f790602401602060405180830381865afa158015611a50573d6000803e3d6000fd5b505050506040513d601f19601f82011682018060405250810190611a749190613f4d565b9050611a80818361350a565b60355460405163f51e435b60e01b81526001600160a01b039091169063f51e435b90611ab29086908590600401613f69565b600060405180830381600087803b158015611acc57600080fd5b505af1158015611ae0573d6000803e3d6000fd5b50505050826001600160a01b03167f0c4443d258a350d27dc50c378b2ebf165e6469725f786d21b30cab16823f558783604051610e27911515815260200190565b611b29612b8a565b8015611b3857611b3882613538565b60355460405163c44b11f760e01b81526001600160a01b038481166004830152600092169063c44b11f790602401602060405180830381865afa158015611b83573d6000803e3d6000fd5b505050506040513d601f19601f82011682018060405250810190611ba79190613f4d565b90506000611bbf825167400000000000000016151590565b9050611bcb828461364d565b60355460405163f51e435b60e01b81526001600160a01b039091169063f51e435b90611bfd9087908690600401613f69565b600060405180830381600087803b158015611c1757600080fd5b505af1158015611c2b573d6000803e3d6000fd5b505060408051841515815286151560208201526001600160a01b03881693507f842a280b07e8e502a9101f32a3b768ebaba3655556dd674f0831900861fc674b9250016105f9565b611c7b612d61565b60355460405163b0f0935560e01b815273__$3ddc574512022f331a6a4c7e4bbb5c67b6$__9163b0f0935591611331916001600160a01b0316908590600401614175565b611cc7612b8a565b60355460405163c44b11f760e01b81526001600160a01b038481166004830152600092169063c44b11f790602401602060405180830381865afa158015611d12573d6000803e3d6000fd5b505050506040513d601f19601f82011682018060405250810190611d369190613f4d565b805190915060009060d41c64ffffffffff16905080600003611d5b57611d5b846132b3565b611d65828461367b565b60355460405163f51e435b60e01b81526001600160a01b039091169063f51e435b90611d979087908690600401613f69565b600060405180830381600087803b158015611db157600080fd5b505af1158015611dc5573d6000803e3d6000fd5b5050505082600003611e315760355460405163e43e88a160e01b81526001600160a01b0386811660048301529091169063e43e88a190602401600060405180830381600087803b158015611e1857600080fd5b505af1158015611e2c573d6000803e3d6000fd5b505050505b60408051828152602081018590526001600160a01b038616917f6824a6c7fbc10d2979b1f1ccf2dd4ed0436541679a661dedb5c10bd4be83068291016105f9565b611e7a612d61565b80611e8857611e88826132b3565b60355460405163c44b11f760e01b81526001600160a01b038481166004830152600092169063c44b11f790602401602060405180830381865afa158015611ed3573d6000803e3d6000fd5b505050506040513d601f19601f82011682018060405250810190611ef79190613f4d565b9050611f0381836136d6565b60355460405163f51e435b60e01b81526001600160a01b039091169063f51e435b90611f359086908590600401613f69565b600060405180830381600087803b158015611f4f57600080fd5b505af1158015611f63573d6000803e3d6000fd5b50505050826001600160a01b03167fc36c7d11ba01a5869d52aa4a3781939dab851cbc9ee6e7fdcedc7d58898a3f1e83604051610e27911515815260200190565b611fac612b8a565b604080518082019091526002815261323160f01b602082015261ffff8716611fe75760405162461bcd60e51b8152600401610780919061412c565b50604080518082019091526002815261323160f01b602082015261ffff86166120235760405162461bcd60e51b8152600401610780919061412c565b508461ffff168661ffff16111560405180604001604052806002815260200161323160f01b815250906120695760405162461bcd60e51b8152600401610780919061412c565b50604080518082019091526002815261323160f01b602082015261271061ffff8616116120a95760405162461bcd60e51b8152600401610780919061412c565b506127106120be61ffff87811690871661328d565b111560405180604001604052806002815260200161323160f01b815250906120f95760405162461bcd60e51b8152600401610780919061412c565b50603554604080516334651b6f60e21b815290516000926001600160a01b03169163d1946dbc91600480830192869291908290030181865afa158015612143573d6000803e3d6000fd5b505050506040513d6000823e601f3d908101601f1916820160405261216b9190810190614243565b905060005b81518110156122ce5760355482516000916001600160a01b03169063c44b11f7908590859081106121a3576121a3613b79565b60200260200101516040518263ffffffff1660e01b81526004016121d691906001600160a01b0391909116815260200190565b602060405180830381865afa1580156121f3573d6000803e3d6000fd5b505050506040513d601f19601f820116820180604052508101906122179190613f4d565b805190915060a81c60ff168a60ff16036122bb57805161ffff168961ffff161160405180604001604052806002815260200161323160f01b815250906122705760405162461bcd60e51b8152600401610780919061412c565b50805160101c61ffff168861ffff161160405180604001604052806002815260200161323160f01b815250906122b95760405162461bcd60e51b8152600401610780919061412c565b505b50806122c681613e50565b915050612170565b50603560009054906101000a90046001600160a01b03166001600160a01b031663d579ea7d896040518060a001604052808b61ffff1681526020018a61ffff1681526020018961ffff168152602001886001600160a01b0316815260200187878080601f01602080910402602001604051908101604052809392919081815260200183838082843760009201919091525050509152506040516001600160e01b031960e085901b1681526123869291906004016142f5565b600060405180830381600087803b1580156123a057600080fd5b505af11580156123b4573d6000803e3d6000fd5b505050508760ff167f0acf8b4a3cace10779798a89a206a0ae73a71b63acdd3be2801d39c2ef7ab3cb8888888888886040516123f59695949392919061435d565b60405180910390a25050505050505050565b6001805460ff16806124185750303b155b80612424575060005481115b6124875760405162461bcd60e51b815260206004820152602e60248201527f436f6e747261637420696e7374616e63652068617320616c726561647920626560448201526d195b881a5b9a5d1a585b1a5e995960921b6064820152608401610780565b60015460ff161580156124a6576001805460ff19168117905560008290555b603480546001600160a01b0319166001600160a01b0385169081179091556040805163026b1d5f60e01b8152905163026b1d5f916004808201926020929091908290030181865afa1580156124ff573d6000803e3d6000fd5b505050506040513d601f19601f82011682018060405250810190612523919061439c565b603580546001600160a01b0319166001600160a01b03929092169190911790558015611453576001805460ff19169055505050565b612560612b8a565b60355460405163c44b11f760e01b81526001600160a01b038481166004830152600092169063c44b11f790602401602060405180830381865afa1580156125ab573d6000803e3d6000fd5b505050506040513d601f19601f820116820180604052508101906125cf9190613f4d565b805190915060501c640fffffffff166125e88284613704565b60355460405163f51e435b60e01b81526001600160a01b039091169063f51e435b9061261a9087908690600401613f69565b600060405180830381600087803b15801561263457600080fd5b505af1158015612648573d6000803e3d6000fd5b505060408051848152602081018790526001600160a01b03881693507fc51aca575985d521c5072ad11549bad77013bb786d57f30f94b40ed8f8dc9bc49250016105f9565b612695612b8a565b60355460405163c44b11f760e01b81526001600160a01b038481166004830152600092169063c44b11f790602401602060405180830381865afa1580156126e0573d6000803e3d6000fd5b505050506040513d601f19601f820116820180604052508101906127049190613f4d565b905060ff8216156127d557603554604051636c6f6ae160e01b815260ff841660048201526000916001600160a01b031690636c6f6ae190602401600060405180830381865afa15801561275b573d6000803e3d6000fd5b505050506040513d6000823e601f3d908101601f1916820160405261278391908101906143b9565b825190915060101c61ffff16816020015161ffff161160405180604001604052806002815260200161313760f01b815250906127d25760405162461bcd60e51b8152600401610780919061412c565b50505b805160009060a81c60ff1690506127ef8260ff851661375c565b60355460405163f51e435b60e01b81526001600160a01b039091169063f51e435b906128219087908690600401613f69565b600060405180830381600087803b15801561283b57600080fd5b505af115801561284f573d6000803e3d6000fd5b50506040805160ff8086168252871660208201526001600160a01b03881693507f5bb69795b6a2ea222d73a5f8939c23471a1f85a99c7ca43c207f1b71f10c62649250016105f9565b6128a0612b8a565b60355460405163c44b11f760e01b81526001600160a01b038481166004830152600092169063c44b11f790602401602060405180830381865afa1580156128eb573d6000803e3d6000fd5b505050506040513d601f19601f8201168201806040525081019061290f9190613f4d565b905061291b81836137ac565b60355460405163f51e435b60e01b81526001600160a01b039091169063f51e435b9061294d9086908590600401613f69565b600060405180830381600087803b15801561296757600080fd5b505af115801561297b573d6000803e3d6000fd5b50505050826001600160a01b03167fc8ff3cc5b0fddaa3e6ebbbd7438f43393e4ea30e88b80ad016c1bc094655034d83604051610e27911515815260200190565b6129c4612d61565b603554604051635391c16d60e01b815273__$3ddc574512022f331a6a4c7e4bbb5c67b6$__91635391c16d91611331916001600160a01b03169085906004016144c6565b6034546040805163383e6b8b60e11b815290516000926001600160a01b03169163707cd7169160048083019260209291908290030181865afa158015612a52573d6000803e3d6000fd5b505050506040513d601f19601f82011682018060405250810190612a76919061439c565b604051629f719760e51b81523360048201529091506001600160a01b038216906313ee32e090602401602060405180830381865afa158015612abc573d6000803e3d6000fd5b505050506040513d601f19601f82011682018060405250810190612ae091906145b4565b80612b4e5750604051637be53ca160e01b81523360048201526001600160a01b03821690637be53ca190602401602060405180830381865afa158015612b2a573d6000803e3d6000fd5b505050506040513d601f19601f82011682018060405250810190612b4e91906145b4565b604051806040016040528060018152602001603560f81b81525090612b865760405162461bcd60e51b8152600401610780919061412c565b5050565b6034546040805163383e6b8b60e11b815290516000926001600160a01b03169163707cd7169160048083019260209291908290030181865afa158015612bd4573d6000803e3d6000fd5b505050506040513d601f19601f82011682018060405250810190612bf8919061439c565b60405163674b5e4d60e01b81523360048201529091506001600160a01b0382169063674b5e4d90602401602060405180830381865afa158015612c3f573d6000803e3d6000fd5b505050506040513d601f19601f82011682018060405250810190612c6391906145b4565b80612cd15750604051637be53ca160e01b81523360048201526001600160a01b03821690637be53ca190602401602060405180830381865afa158015612cad573d6000803e3d6000fd5b505050506040513d601f19601f82011682018060405250810190612cd191906145b4565b604051806040016040528060018152602001600d60fa1b81525090612b865760405162461bcd60e51b8152600401610780919061412c565b6040805180820190915260028152611b9960f11b6020820152640fffffffff821115612d485760405162461bcd60e51b8152600401610780919061412c565b508151640fffffffff60b01b191660b09190911b179052565b6034546040805163383e6b8b60e11b815290516000926001600160a01b03169163707cd7169160048083019260209291908290030181865afa158015612dab573d6000803e3d6000fd5b505050506040513d601f19601f82011682018060405250810190612dcf919061439c565b604051637be53ca160e01b81523360048201529091506001600160a01b03821690637be53ca190602401602060405180830381865afa158015612e16573d6000803e3d6000fd5b505050506040513d601f19601f82011682018060405250810190612e3a91906145b4565b604051806040016040528060018152602001603160f81b81525090612b865760405162461bcd60e51b8152600401610780919061412c565b604080518082019091526002815261037360f41b602082015261ffff821115612eae5760405162461bcd60e51b8152600401610780919061412c565b50815161ffff60981b191660989190911b179052565b603d81612ed2576000612ed5565b60015b8351672000000000000000191660ff9190911690911b1790915250565b6034546040805163383e6b8b60e11b815290516000926001600160a01b03169163707cd7169160048083019260209291908290030181865afa158015612f3c573d6000803e3d6000fd5b505050506040513d601f19601f82011682018060405250810190612f60919061439c565b604051637be53ca160e01b81523360048201529091506001600160a01b03821690637be53ca190602401602060405180830381865afa158015612fa7573d6000803e3d6000fd5b505050506040513d601f19601f82011682018060405250810190612fcb91906145b4565b806130395750604051631280795b60e11b81523360048201526001600160a01b03821690632500f2b690602401602060405180830381865afa158015613015573d6000803e3d6000fd5b505050506040513d601f19601f8201168201806040525081019061303991906145b4565b604051806040016040528060018152602001603360f81b81525090612b865760405162461bcd60e51b8152600401610780919061412c565b603c8161307f576000613082565b60015b8351671000000000000000191660ff9190911690911b1790915250565b604080518082019091526002815261363760f01b602082015261ffff8211156130db5760405162461bcd60e51b8152600401610780919061412c565b50815169ffff0000000000000000191660409190911b179052565b604080518082019091526002815261363960f01b6020820152640fffffffff8211156131355760405162461bcd60e51b8152600401610780919061412c565b508151640fffffffff60741b191660749190911b179052565b603a8161315c57600061315f565b60015b8351670400000000000000191660ff9190911690911b1790915250565b6034546040805163383e6b8b60e11b815290516000926001600160a01b03169163707cd7169160048083019260209291908290030181865afa1580156131c6573d6000803e3d6000fd5b505050506040513d601f19601f820116820180604052508101906131ea919061439c565b604051631280795b60e11b81523360048201529091506001600160a01b03821690632500f2b690602401602060405180830381865afa158015613231573d6000803e3d6000fd5b505050506040513d601f19601f8201168201806040525081019061325591906145b4565b604051806040016040528060018152602001601960f91b81525090612b865760405162461bcd60e51b8152600401610780919061412c565b6000811561138819839004841115176132a557600080fd5b506127109102611388010490565b600080603460009054906101000a90046001600160a01b03166001600160a01b031663e860accb6040518163ffffffff1660e01b8152600401602060405180830381865afa158015613309573d6000803e3d6000fd5b505050506040513d601f19601f8201168201806040525081019061332d919061439c565b6040516335ea6a7560e01b81526001600160a01b03858116600483015291909116906335ea6a759060240161018060405180830381865afa158015613376573d6000803e3d6000fd5b505050506040513d601f19601f8201168201806040525081019061339a91906145d1565b50505050505050505092509250508060001480156133b6575081155b60405180604001604052806002815260200161062760f31b815250906104c25760405162461bcd60e51b8152600401610780919061412c565b604080518082019091526002815261363360f01b602082015261ffff82111561342b5760405162461bcd60e51b8152600401610780919061412c565b50815161ffff1916179052565b6040805180820190915260028152610d8d60f21b602082015261ffff8211156134745760405162461bcd60e51b8152600401610780919061412c565b50815163ffff0000191660109190911b179052565b604080518082019091526002815261363560f01b602082015261ffff8211156134c55760405162461bcd60e51b8152600401610780919061412c565b50815165ffff00000000191660209190911b179052565b603b816134ea5760006134ed565b60015b8351670800000000000000191660ff9190911690911b1790915250565b60398161351857600061351b565b60015b8351670200000000000000191660ff9190911690911b1790915250565b6034546040805163e860accb60e01b815290516000926001600160a01b03169163e860accb9160048083019260209291908290030181865afa158015613582573d6000803e3d6000fd5b505050506040513d601f19601f820116820180604052508101906135a6919061439c565b604051634d44ac4f60e01b81526001600160a01b0384811660048301529190911690634d44ac4f90602401602060405180830381865afa1580156135ee573d6000803e3d6000fd5b505050506040513d601f19601f82011682018060405250810190613612919061415c565b604080518082019091526002815261039360f41b602082015290915081156114535760405162461bcd60e51b8152600401610780919061412c565b603e8161365b57600061365e565b60015b8351674000000000000000191660ff9190911690911b1790915250565b604080518082019091526002815261373360f01b602082015264ffffffffff8211156136ba5760405162461bcd60e51b8152600401610780919061412c565b5081516001650f000000000160d41b031660d49190911b179052565b6038816136e45760006136e7565b60015b8351670100000000000000191660ff9190911690911b1790915250565b60408051808201909152600281526106c760f31b6020820152640fffffffff8211156137435760405162461bcd60e51b8152600401610780919061412c565b508151640fffffffff60501b191660509190911b179052565b604080518082019091526002815261373160f01b602082015260ff8211156137975760405162461bcd60e51b8152600401610780919061412c565b50815160ff60a81b191660a89190911b179052565b603f816137ba5760006137bd565b60015b8351678000000000000000191660ff9190911690911b1790915250565b600080602083850312156137ed57600080fd5b823567ffffffffffffffff8082111561380557600080fd5b818501915085601f83011261381957600080fd5b81358181111561382857600080fd5b8660208260051b850101111561383d57600080fd5b60209290920196919550909350505050565b6001600160a01b038116811461386457600080fd5b50565b80356138728161384f565b919050565b6000806040838503121561388a57600080fd5b82356138958161384f565b946020939093013593505050565b600080604083850312156138b657600080fd5b82356138c18161384f565b915060208301356138d18161384f565b809150509250929050565b6001600160801b038116811461386457600080fd5b60006020828403121561390357600080fd5b813561390e816138dc565b9392505050565b60006020828403121561392757600080fd5b5035919050565b801515811461386457600080fd5b6000806040838503121561394f57600080fd5b823561395a8161384f565b915060208301356138d18161392e565b60006020828403121561397c57600080fd5b813561390e8161384f565b60006020828403121561399957600080fd5b813567ffffffffffffffff8111156139b057600080fd5b820160c0818503121561390e57600080fd5b6000602082840312156139d457600080fd5b813561390e8161392e565b600080600080608085870312156139f557600080fd5b8435613a008161384f565b966020860135965060408601359560600135945092505050565b803560ff8116811461387257600080fd5b61ffff8116811461386457600080fd5b600080600080600080600060c0888a031215613a5657600080fd5b613a5f88613a1a565b96506020880135613a6f81613a2b565b95506040880135613a7f81613a2b565b94506060880135613a8f81613a2b565b93506080880135613a9f8161384f565b925060a088013567ffffffffffffffff80821115613abc57600080fd5b818a0191508a601f830112613ad057600080fd5b813581811115613adf57600080fd5b8b6020828501011115613af157600080fd5b60208301945080935050505092959891949750929550565b60008060408385031215613b1c57600080fd5b8235613b278161384f565b9150613b3560208401613a1a565b90509250929050565b600060208284031215613b5057600080fd5b813567ffffffffffffffff811115613b6757600080fd5b820160e0818503121561390e57600080fd5b634e487b7160e01b600052603260045260246000fd5b600082356101de19833603018112613ba657600080fd5b9190910192915050565b6000808335601e19843603018112613bc757600080fd5b830160208101925035905067ffffffffffffffff811115613be757600080fd5b803603821315613bf657600080fd5b9250929050565b81835281816020850137506000828201602090810191909152601f909101601f19169091010190565b6001600160a01b0383168152604060208201819052613c57908201613c4a84613867565b6001600160a01b03169052565b6000613c6560208401613867565b6001600160a01b03166060830152613c7f60408401613867565b6001600160a01b03166080830152613c9960608401613a1a565b60ff1660a0830152613cad60808401613867565b6001600160a01b031660c0830152613cc760a08401613867565b6001600160a01b031660e0830152613ce160c08401613867565b610100613cf8818501836001600160a01b03169052565b613d0460e08601613867565b9150610120613d1d818601846001600160a01b03169052565b613d2982870187613bb0565b935091506101e06101408181880152613d4761022088018686613bfd565b9450613d5583890189613bb0565b94509250603f196101608189880301818a0152613d73878787613bfd565b9650613d81838b018b613bb0565b9650945061018092508189880301838a0152613d9e878787613bfd565b9650613dac818b018b613bb0565b96509450506101a08189880301818a0152613dc8878787613bfd565b9650613dd6838b018b613bb0565b965094506101c092508189880301838a0152613df3878787613bfd565b9650613e01818b018b613bb0565b9650945050808887030183890152613e1a868686613bfd565b9550613e28828a018a613bb0565b955093508088870301610200890152505050613e45838383613bfd565b979650505050505050565b600060018201613e7057634e487b7160e01b600052601160045260246000fd5b5060010190565b634e487b7160e01b600052604160045260246000fd5b6040516101e0810167ffffffffffffffff81118282101715613eb157613eb1613e77565b60405290565b60405160a0810167ffffffffffffffff81118282101715613eb157613eb1613e77565b604051601f8201601f1916810167ffffffffffffffff81118282101715613f0357613f03613e77565b604052919050565b600060208284031215613f1d57600080fd5b6040516020810181811067ffffffffffffffff82111715613f4057613f40613e77565b6040529151825250919050565b600060208284031215613f5f57600080fd5b61390e8383613f0b565b6001600160a01b0392909216825251602082015260400190565b8051613872816138dc565b805164ffffffffff8116811461387257600080fd5b805161387281613a2b565b80516138728161384f565b60006101e08284031215613fcc57600080fd5b613fd4613e8d565b613fde8484613f0b565b8152613fec60208401613f83565b6020820152613ffd60408401613f83565b604082015261400e60608401613f83565b606082015261401f60808401613f83565b608082015261403060a08401613f83565b60a082015261404160c08401613f8e565b60c082015261405260e08401613fa3565b60e0820152610100614065818501613fae565b90820152610120614077848201613fae565b90820152610140614089848201613fae565b9082015261016061409b848201613fae565b908201526101806140ad848201613f83565b908201526101a06140bf848201613f83565b908201526101c06140d1848201613f83565b908201529392505050565b60005b838110156140f75781810151838201526020016140df565b50506000910152565b600081518084526141188160208601602086016140dc565b601f01601f19169290920160200192915050565b60208152600061390e6020830184614100565b60006020828403121561415157600080fd5b815161390e816138dc565b60006020828403121561416e57600080fd5b5051919050565b6001600160a01b0383811682526040602083015260009083356141978161384f565b8116604084015260208401356141ac8161384f565b1660608301526141bf6040840184613bb0565b60c060808501526141d561010085018284613bfd565b9150506141e56060850185613bb0565b603f19808685030160a08701526141fd848385613bfd565b935061420b60808801613867565b6001600160a01b03811660c0880152925061422960a0880188613bb0565b93509150808685030160e087015250613e45838383613bfd565b6000602080838503121561425657600080fd5b825167ffffffffffffffff8082111561426e57600080fd5b818501915085601f83011261428257600080fd5b81518181111561429457614294613e77565b8060051b91506142a5848301613eda565b81815291830184019184810190888411156142bf57600080fd5b938501935b838510156142e957845192506142d98361384f565b82825293850193908501906142c4565b98975050505050505050565b60ff8316815260406020820152600061ffff8084511660408401528060208501511660608401528060408501511660808401525060018060a01b0360608401511660a0830152608083015160a060c084015261435460e0840182614100565b95945050505050565b61ffff87811682528681166020830152851660408201526001600160a01b038416606082015260a0608082018190526000906142e99083018486613bfd565b6000602082840312156143ae57600080fd5b815161390e8161384f565b600060208083850312156143cc57600080fd5b825167ffffffffffffffff808211156143e457600080fd5b9084019060a082870312156143f857600080fd5b614400613eb7565b825161440b81613a2b565b81528284015161441a81613a2b565b81850152604083015161442c81613a2b565b6040820152606083015161443f8161384f565b606082015260808301518281111561445657600080fd5b80840193505086601f84011261446b57600080fd5b82518281111561447d5761447d613e77565b61448f601f8201601f19168601613eda565b925080835287858286010111156144a557600080fd5b6144b4818685018787016140dc565b50608081019190915295945050505050565b6001600160a01b0383811682526040602083015260009083356144e88161384f565b1660408301526144fa60208401613867565b6001600160a01b0316606083015261451460408401613867565b6001600160a01b0316608083015261452f6060840184613bb0565b60e060a085015261454561012085018284613bfd565b9150506145556080850185613bb0565b603f19808685030160c087015261456d848385613bfd565b935061457b60a08801613867565b6001600160a01b03811660e0880152925061459960c0880188613bb0565b93509150808685030161010087015250613e45838383613bfd565b6000602082840312156145c657600080fd5b815161390e8161392e565b6000806000806000806000806000806000806101808d8f0312156145f457600080fd5b8c519b5060208d01519a5060408d0151995060608d0151985060808d0151975060a08d0151965060c08d0151955060e08d015194506101008d015193506101208d015192506101408d0151915061464e6101608e01613f8e565b90509295989b509295989b509295989b56fea26469706673582212202350ae38ca4fb8fd3e4dd58abc0b86a60d756c1e06a3d18d20b52d2197f0dc8764736f6c63430008140033",
  "libraries": {
    "ConfiguratorLogic": "0x4ed7c70F96B99c776995fB64377f0d4aB3B0e1C1"
  },
  "devdoc": {
    "author": "Aave",
    "details": "Implements the configuration methods for the Aave protocol",
    "events": {
      "BTokenUpgraded(address,address,address)": {
        "details": "Emitted when an btoken implementation is upgraded.",
        "params": {
          "asset": "The address of the underlying asset of the reserve",
          "implementation": "The new btoken implementation",
          "proxy": "The btoken proxy address"
        }
      },
      "BorrowCapChanged(address,uint256,uint256)": {
        "details": "Emitted when the borrow cap of a reserve is updated.",
        "params": {
          "asset": "The address of the underlying asset of the reserve",
          "newBorrowCap": "The new borrow cap",
          "oldBorrowCap": "The old borrow cap"
        }
      },
      "BorrowableInIsolationChanged(address,bool)": {
        "details": "Emitted when the reserve is set as borrowable/non borrowable in isolation mode.",
        "params": {
          "asset": "The address of the underlying asset of the reserve",
          "borrowable": "True if the reserve is borrowable in isolation, false otherwise"
        }
      },
      "BridgeProtocolFeeUpdated(uint256,uint256)": {
        "details": "Emitted when the bridge protocol fee is updated.",
        "params": {
          "newBridgeProtocolFee": "The new protocol fee, expressed in bps",
          "oldBridgeProtocolFee": "The old protocol fee, expressed in bps"
        }
      },
      "CollateralConfigurationChanged(address,uint256,uint256,uint256)": {
        "details": "Emitted when the collateralization risk parameters for the specified asset are updated.",
        "params": {
          "asset": "The address of the underlying asset of the reserve",
          "liquidationBonus": "The bonus liquidators receive to liquidate this asset",
          "liquidationThreshold": "The threshold at which loans using this asset as collateral will be considered undercollateralized",
          "ltv": "The loan to value of the asset when used as collateral"
        }
      },
      "DebtCeilingChanged(address,uint256,uint256)": {
        "details": "Emitted when the debt ceiling of an asset is set.",
        "params": {
          "asset": "The address of the underlying asset of the reserve",
          "newDebtCeiling": "The new debt ceiling",
          "oldDebtCeiling": "The old debt ceiling"
        }
      },
      "EModeAssetCategoryChanged(address,uint8,uint8)": {
        "details": "Emitted when the category of an asset in eMode is changed.",
        "params": {
          "asset": "The address of the underlying asset of the reserve",
          "newCategoryId": "The new eMode asset category",
          "oldCategoryId": "The old eMode asset category"
        }
      },
      "EModeCategoryAdded(uint8,uint256,uint256,uint256,address,string)": {
        "details": "Emitted when a new eMode category is added.",
        "params": {
          "categoryId": "The new eMode category id",
          "label": "A human readable identifier for the category",
          "liquidationBonus": "The liquidationBonus for the asset category in eMode",
          "liquidationThreshold": "The liquidationThreshold for the asset category in eMode",
          "ltv": "The ltv for the asset category in eMode",
          "oracle": "The optional address of the price oracle specific for this category"
        }
      },
      "FlashloanPremiumToProtocolUpdated(uint128,uint128)": {
        "details": "Emitted when the part of the premium that goes to protocol is updated.",
        "params": {
          "newFlashloanPremiumToProtocol": "The new premium, expressed in bps",
          "oldFlashloanPremiumToProtocol": "The old premium, expressed in bps"
        }
      },
      "FlashloanPremiumTotalUpdated(uint128,uint128)": {
        "details": "Emitted when the total premium on flashloans is updated.",
        "params": {
          "newFlashloanPremiumTotal": "The new premium, expressed in bps",
          "oldFlashloanPremiumTotal": "The old premium, expressed in bps"
        }
      },
      "LiquidationProtocolFeeChanged(address,uint256,uint256)": {
        "details": "Emitted when the liquidation protocol fee of a reserve is updated.",
        "params": {
          "asset": "The address of the underlying asset of the reserve",
          "newFee": "The new liquidation protocol fee, expressed in bps",
          "oldFee": "The old liquidation protocol fee, expressed in bps"
        }
      },
      "ReserveActive(address,bool)": {
        "details": "Emitted when a reserve is activated or deactivated",
        "params": {
          "active": "True if reserve is active, false otherwise",
          "asset": "The address of the underlying asset of the reserve"
        }
      },
      "ReserveBorrowing(address,bool)": {
        "details": "Emitted when borrowing is enabled or disabled on a reserve.",
        "params": {
          "asset": "The address of the underlying asset of the reserve",
          "enabled": "True if borrowing is enabled, false otherwise"
        }
      },
      "ReserveDropped(address)": {
        "details": "Emitted when a reserve is dropped.",
        "params": {
          "asset": "The address of the underlying asset of the reserve"
        }
      },
      "ReserveFactorChanged(address,uint256,uint256)": {
        "details": "Emitted when a reserve factor is updated.",
        "params": {
          "asset": "The address of the underlying asset of the reserve",
          "newReserveFactor": "The new reserve factor, expressed in bps",
          "oldReserveFactor": "The old reserve factor, expressed in bps"
        }
      },
      "ReserveFlashLoaning(address,bool)": {
        "details": "Emitted when flashloans are enabled or disabled on a reserve.",
        "params": {
          "asset": "The address of the underlying asset of the reserve",
          "enabled": "True if flashloans are enabled, false otherwise"
        }
      },
      "ReserveFrozen(address,bool)": {
        "details": "Emitted when a reserve is frozen or unfrozen",
        "params": {
          "asset": "The address of the underlying asset of the reserve",
          "frozen": "True if reserve is frozen, false otherwise"
        }
      },
      "ReserveInitialized(address,address,address,address,address)": {
        "details": "Emitted when a reserve is initialized.",
        "params": {
          "asset": "The address of the underlying asset of the reserve",
          "btoken": "The address of the associated btoken contract",
          "interestRateStrategyAddress": "The address of the interest rate strategy for the reserve",
          "stableDebtToken": "The address of the associated stable rate debt token",
          "variableDebtToken": "The address of the associated variable rate debt token"
        }
      },
      "ReserveInterestRateStrategyChanged(address,address,address)": {
        "details": "Emitted when a reserve interest strategy contract is updated.",
        "params": {
          "asset": "The address of the underlying asset of the reserve",
          "newStrategy": "The address of the new interest strategy contract",
          "oldStrategy": "The address of the old interest strategy contract"
        }
      },
      "ReservePaused(address,bool)": {
        "details": "Emitted when a reserve is paused or unpaused",
        "params": {
          "asset": "The address of the underlying asset of the reserve",
          "paused": "True if reserve is paused, false otherwise"
        }
      },
      "ReserveStableRateBorrowing(address,bool)": {
        "details": "Emitted when stable rate borrowing is enabled or disabled on a reserve",
        "params": {
          "asset": "The address of the underlying asset of the reserve",
          "enabled": "True if stable rate borrowing is enabled, false otherwise"
        }
      },
      "SiloedBorrowingChanged(address,bool,bool)": {
        "details": "Emitted when the the siloed borrowing state for an asset is changed.",
        "params": {
          "asset": "The address of the underlying asset of the reserve",
          "newState": "The new siloed borrowing state",
          "oldState": "The old siloed borrowing state"
        }
      },
      "StableDebtTokenUpgraded(address,address,address)": {
        "details": "Emitted when the implementation of a stable debt token is upgraded.",
        "params": {
          "asset": "The address of the underlying asset of the reserve",
          "implementation": "The new bToken implementation",
          "proxy": "The stable debt token proxy address"
        }
      },
      "SupplyCapChanged(address,uint256,uint256)": {
        "details": "Emitted when the supply cap of a reserve is updated.",
        "params": {
          "asset": "The address of the underlying asset of the reserve",
          "newSupplyCap": "The new supply cap",
          "oldSupplyCap": "The old supply cap"
        }
      },
      "UnbackedMintCapChanged(address,uint256,uint256)": {
        "details": "Emitted when the unbacked mint cap of a reserve is updated.",
        "params": {
          "asset": "The address of the underlying asset of the reserve",
          "newUnbackedMintCap": "The new unbacked mint cap",
          "oldUnbackedMintCap": "The old unbacked mint cap"
        }
      },
      "VariableDebtTokenUpgraded(address,address,address)": {
        "details": "Emitted when the implementation of a variable debt token is upgraded.",
        "params": {
          "asset": "The address of the underlying asset of the reserve",
          "implementation": "The new bToken implementation",
          "proxy": "The variable debt token proxy address"
        }
      }
    },
    "kind": "dev",
    "methods": {
      "configureReserveAsCollateral(address,uint256,uint256,uint256)": {
        "details": "All the values are expressed in bps. A value of 10000, results in 100.00%The `liquidationBonus` is always above 100%. A value of 105% means the liquidator will receive a 5% bonus",
        "params": {
          "asset": "The address of the underlying asset of the reserve",
          "liquidationBonus": "The bonus liquidators receive to liquidate this asset",
          "liquidationThreshold": "The threshold at which loans using this asset as collateral will be considered undercollateralized",
          "ltv": "The loan to value of the asset when used as collateral"
        }
      },
      "dropReserve(address)": {
        "params": {
          "asset": "The address of the reserve to drop"
        }
      },
      "initReserves((address,address,address,uint8,address,address,address,address,string,string,string,string,string,string,bytes)[])": {
        "params": {
          "input": "The array of initialization parameters"
        }
      },
      "setAssetEModeCategory(address,uint8)": {
        "params": {
          "asset": "The address of the underlying asset of the reserve",
          "newCategoryId": "The new category id of the asset"
        }
      },
      "setBorrowCap(address,uint256)": {
        "params": {
          "asset": "The address of the underlying asset of the reserve",
          "newBorrowCap": "The new borrow cap of the reserve"
        }
      },
      "setBorrowableInIsolation(address,bool)": {
        "details": "When this flag is set to true, the asset will be borrowable against isolated collaterals and the borrowed amount will be accumulated in the isolated collateral's total debt exposureOnly assets of the same family (e.g. USD stablecoins) should be borrowable in isolation mode to keep consistency in the debt ceiling calculations",
        "params": {
          "asset": "The address of the underlying asset of the reserve",
          "borrowable": "True if the asset should be borrowable in isolation, false otherwise"
        }
      },
      "setDebtCeiling(address,uint256)": {
        "params": {
          "newDebtCeiling": "The new debt ceiling"
        }
      },
      "setEModeCategory(uint8,uint16,uint16,uint16,address,string)": {
        "details": "If zero is provided as oracle address, the default asset oracles will be used to compute the overall debt and overcollateralization of the users using this category.The new ltv and liquidation threshold must be greater than the base ltvs and liquidation thresholds of all assets within the eMode category",
        "params": {
          "categoryId": "The id of the category to be configured",
          "label": "A label identifying the category",
          "liquidationBonus": "The liquidation bonus associated with the category",
          "liquidationThreshold": "The liquidation threshold associated with the category",
          "ltv": "The ltv associated with the category",
          "oracle": "The oracle associated with the category"
        }
      },
      "setLiquidationProtocolFee(address,uint256)": {
        "params": {
          "asset": "The address of the underlying asset of the reserve",
          "newFee": "The new liquidation protocol fee of the reserve, expressed in bps"
        }
      },
      "setPoolPause(bool)": {
        "params": {
          "paused": "True if protocol needs to be paused, false otherwise"
        }
      },
      "setReserveActive(address,bool)": {
        "params": {
          "active": "True if the reserve needs to be active, false otherwise",
          "asset": "The address of the underlying asset of the reserve"
        }
      },
      "setReserveBorrowing(address,bool)": {
        "details": "Can only be disabled (set to false) if stable borrowing is disabled",
        "params": {
          "asset": "The address of the underlying asset of the reserve",
          "enabled": "True if borrowing needs to be enabled, false otherwise"
        }
      },
      "setReserveFactor(address,uint256)": {
        "params": {
          "asset": "The address of the underlying asset of the reserve",
          "newReserveFactor": "The new reserve factor of the reserve"
        }
      },
      "setReserveFlashLoaning(address,bool)": {
        "params": {
          "asset": "The address of the underlying asset of the reserve",
          "enabled": "True if flashloans need to be enabled, false otherwise"
        }
      },
      "setReserveFreeze(address,bool)": {
        "params": {
          "asset": "The address of the underlying asset of the reserve",
          "freeze": "True if the reserve needs to be frozen, false otherwise"
        }
      },
      "setReserveInterestRateStrategyAddress(address,address)": {
        "params": {
          "asset": "The address of the underlying asset of the reserve",
          "newRateStrategyAddress": "The address of the new interest strategy contract"
        }
      },
      "setReservePause(address,bool)": {
        "params": {
          "asset": "The address of the underlying asset of the reserve",
          "paused": "True if pausing the reserve, false if unpausing"
        }
      },
      "setReserveStableRateBorrowing(address,bool)": {
        "details": "Can only be enabled (set to true) if borrowing is enabled",
        "params": {
          "asset": "The address of the underlying asset of the reserve",
          "enabled": "True if stable rate borrowing needs to be enabled, false otherwise"
        }
      },
      "setSiloedBorrowing(address,bool)": {
        "params": {
          "siloed": "The new siloed borrowing state"
        }
      },
      "setSupplyCap(address,uint256)": {
        "params": {
          "asset": "The address of the underlying asset of the reserve",
          "newSupplyCap": "The new supply cap of the reserve"
        }
      },
      "setUnbackedMintCap(address,uint256)": {
        "params": {
          "asset": "The address of the underlying asset of the reserve",
          "newUnbackedMintCap": "The new unbacked mint cap of the reserve"
        }
      },
      "updateBToken((address,address,address,string,string,address,bytes))": {
        "details": "Updates the bToken implementation for the reserve.",
        "params": {
          "input": "The bToken update parameters"
        }
      },
      "updateBridgeProtocolFee(uint256)": {
        "params": {
          "newBridgeProtocolFee": "The part of the fee sent to the protocol treasury, expressed in bps"
        }
      },
      "updateFlashloanPremiumToProtocol(uint128)": {
        "details": "Expressed in bpsThe premium to protocol is calculated on the total flashloan premium",
        "params": {
          "newFlashloanPremiumToProtocol": "The part of the flashloan premium sent to the protocol treasury"
        }
      },
      "updateFlashloanPremiumTotal(uint128)": {
        "details": "Expressed in bpsThe premium is calculated on the total amount borrowed",
        "params": {
          "newFlashloanPremiumTotal": "The total flashloan premium"
        }
      },
      "updateStableDebtToken((address,address,string,string,address,bytes))": {
        "params": {
          "input": "The stableDebtToken update parameters"
        }
      },
      "updateVariableDebtToken((address,address,string,string,address,bytes))": {
        "params": {
          "input": "The variableDebtToken update parameters"
        }
      }
    },
    "title": "PoolConfigurator",
    "version": 1
  },
  "userdoc": {
    "kind": "user",
    "methods": {
      "configureReserveAsCollateral(address,uint256,uint256,uint256)": {
        "notice": "Configures the reserve collateralization parameters."
      },
      "dropReserve(address)": {
        "notice": "Drops a reserve entirely."
      },
      "initReserves((address,address,address,uint8,address,address,address,address,string,string,string,string,string,string,bytes)[])": {
        "notice": "Initializes multiple reserves."
      },
      "setAssetEModeCategory(address,uint8)": {
        "notice": "Assign an efficiency mode (eMode) category to asset."
      },
      "setBorrowCap(address,uint256)": {
        "notice": "Updates the borrow cap of a reserve."
      },
      "setBorrowableInIsolation(address,bool)": {
        "notice": "Sets the borrowable in isolation flag for the reserve."
      },
      "setDebtCeiling(address,uint256)": {
        "notice": "Sets the debt ceiling for an asset."
      },
      "setEModeCategory(uint8,uint16,uint16,uint16,address,string)": {
        "notice": "Adds a new efficiency mode (eMode) category."
      },
      "setLiquidationProtocolFee(address,uint256)": {
        "notice": "Updates the liquidation protocol fee of reserve."
      },
      "setPoolPause(bool)": {
        "notice": "Pauses or unpauses all the protocol reserves. In the paused state all the protocol interactions are suspended."
      },
      "setReserveActive(address,bool)": {
        "notice": "Activate or deactivate a reserve"
      },
      "setReserveBorrowing(address,bool)": {
        "notice": "Configures borrowing on a reserve."
      },
      "setReserveFactor(address,uint256)": {
        "notice": "Updates the reserve factor of a reserve."
      },
      "setReserveFlashLoaning(address,bool)": {
        "notice": "Enable or disable flashloans on a reserve"
      },
      "setReserveFreeze(address,bool)": {
        "notice": "Freeze or unfreeze a reserve. A frozen reserve doesn't allow any new supply, borrow or rate swap but allows repayments, liquidations, rate rebalances and withdrawals."
      },
      "setReserveInterestRateStrategyAddress(address,address)": {
        "notice": "Sets the interest rate strategy of a reserve."
      },
      "setReservePause(address,bool)": {
        "notice": "Pauses a reserve. A paused reserve does not allow any interaction (supply, borrow, repay, swap interest rate, liquidate, btoken transfers)."
      },
      "setReserveStableRateBorrowing(address,bool)": {
        "notice": "Enable or disable stable rate borrowing on a reserve."
      },
      "setSiloedBorrowing(address,bool)": {
        "notice": "Sets siloed borrowing for an asset"
      },
      "setSupplyCap(address,uint256)": {
        "notice": "Updates the supply cap of a reserve."
      },
      "setUnbackedMintCap(address,uint256)": {
        "notice": "Updates the unbacked mint cap of reserve."
      },
      "updateBridgeProtocolFee(uint256)": {
        "notice": "Updates the bridge fee collected by the protocol reserves."
      },
      "updateFlashloanPremiumToProtocol(uint128)": {
        "notice": "Updates the flash loan premium collected by protocol reserves"
      },
      "updateFlashloanPremiumTotal(uint128)": {
        "notice": "Updates the total flash loan premium. Total flash loan premium consists of two parts: - A part is sent to btoken holders as extra balance - A part is collected by the protocol reserves"
      },
      "updateStableDebtToken((address,address,string,string,address,bytes))": {
        "notice": "Updates the stable debt token implementation for the reserve."
      },
      "updateVariableDebtToken((address,address,string,string,address,bytes))": {
        "notice": "Updates the variable debt token implementation for the asset."
      }
    },
    "version": 1
  },
  "storageLayout": {
    "storage": [
      {
        "astId": 36854,
        "contract": "contracts/protocol/pool/PoolConfigurator.sol:PoolConfigurator",
        "label": "lastInitializedRevision",
        "offset": 0,
        "slot": "0",
        "type": "t_uint256"
      },
      {
        "astId": 36857,
        "contract": "contracts/protocol/pool/PoolConfigurator.sol:PoolConfigurator",
        "label": "initializing",
        "offset": 0,
        "slot": "1",
        "type": "t_bool"
      },
      {
        "astId": 36927,
        "contract": "contracts/protocol/pool/PoolConfigurator.sol:PoolConfigurator",
        "label": "______gap",
        "offset": 0,
        "slot": "2",
        "type": "t_array(t_uint256)50_storage"
      },
      {
        "astId": 39329,
        "contract": "contracts/protocol/pool/PoolConfigurator.sol:PoolConfigurator",
        "label": "_addressesProvider",
        "offset": 0,
        "slot": "52",
        "type": "t_contract(IPoolAddressesProvider)5206"
      },
      {
        "astId": 39332,
        "contract": "contracts/protocol/pool/PoolConfigurator.sol:PoolConfigurator",
        "label": "_pool",
        "offset": 0,
        "slot": "53",
        "type": "t_contract(IPool)4997"
      }
    ],
    "types": {
      "t_array(t_uint256)50_storage": {
        "base": "t_uint256",
        "encoding": "inplace",
        "label": "uint256[50]",
        "numberOfBytes": "1600"
      },
      "t_bool": {
        "encoding": "inplace",
        "label": "bool",
        "numberOfBytes": "1"
      },
      "t_contract(IPool)4997": {
        "encoding": "inplace",
        "label": "contract IPool",
        "numberOfBytes": "20"
      },
      "t_contract(IPoolAddressesProvider)5206": {
        "encoding": "inplace",
        "label": "contract IPoolAddressesProvider",
        "numberOfBytes": "20"
      },
      "t_uint256": {
        "encoding": "inplace",
        "label": "uint256",
        "numberOfBytes": "32"
      }
    }
  }
}