{
  "address": "0x9fE46736679d2D9a65F0992F2272dE9f3c7fa6e0",
  "abi": [
    {
      "anonymous": false,
      "inputs": [
        {
          "indexed": true,
          "internalType": "uint256",
          "name": "streamId",
          "type": "uint256"
        },
        {
          "indexed": true,
          "internalType": "address",
          "name": "sender",
          "type": "address"
        },
        {
          "indexed": true,
          "internalType": "address",
          "name": "recipient",
          "type": "address"
        },
        {
          "indexed": false,
          "internalType": "uint256",
          "name": "senderBalance",
          "type": "uint256"
        },
        {
          "indexed": false,
          "internalType": "uint256",
          "name": "recipientBalance",
          "type": "uint256"
        }
      ],
      "name": "CancelStream",
      "type": "event"
    },
    {
      "anonymous": false,
      "inputs": [
        {
          "indexed": true,
          "internalType": "uint256",
          "name": "streamId",
          "type": "uint256"
        },
        {
          "indexed": true,
          "internalType": "address",
          "name": "sender",
          "type": "address"
        },
        {
          "indexed": true,
          "internalType": "address",
          "name": "recipient",
          "type": "address"
        },
        {
          "indexed": false,
          "internalType": "uint256",
          "name": "deposit",
          "type": "uint256"
        },
        {
          "indexed": false,
          "internalType": "address",
          "name": "tokenAddress",
          "type": "address"
        },
        {
          "indexed": false,
          "internalType": "uint256",
          "name": "startTime",
          "type": "uint256"
        },
        {
          "indexed": false,
          "internalType": "uint256",
          "name": "stopTime",
          "type": "uint256"
        }
      ],
      "name": "CreateStream",
      "type": "event"
    },
    {
      "anonymous": false,
      "inputs": [
        {
          "indexed": true,
          "internalType": "address",
          "name": "fundsAdmin",
          "type": "address"
        }
      ],
      "name": "NewFundsAdmin",
      "type": "event"
    },
    {
      "anonymous": false,
      "inputs": [
        {
          "indexed": true,
          "internalType": "uint256",
          "name": "streamId",
          "type": "uint256"
        },
        {
          "indexed": true,
          "internalType": "address",
          "name": "recipient",
          "type": "address"
        },
        {
          "indexed": false,
          "internalType": "uint256",
          "name": "amount",
          "type": "uint256"
        }
      ],
      "name": "WithdrawFromStream",
      "type": "event"
    },
    {
      "inputs": [],
      "name": "ETH_MOCK_ADDRESS",
      "outputs": [
        {
          "internalType": "address",
          "name": "",
          "type": "address"
        }
      ],
      "stateMutability": "view",
      "type": "function"
    },
    {
      "inputs": [],
      "name": "REVISION",
      "outputs": [
        {
          "internalType": "uint256",
          "name": "",
          "type": "uint256"
        }
      ],
      "stateMutability": "view",
      "type": "function"
    },
    {
      "inputs": [
        {
          "internalType": "contract IERC20",
          "name": "token",
          "type": "address"
        },
        {
          "internalType": "address",
          "name": "recipient",
          "type": "address"
        },
        {
          "internalType": "uint256",
          "name": "amount",
          "type": "uint256"
        }
      ],
      "name": "approve",
      "outputs": [],
      "stateMutability": "nonpayable",
      "type": "function"
    },
    {
      "inputs": [
        {
          "internalType": "uint256",
          "name": "streamId",
          "type": "uint256"
        },
        {
          "internalType": "address",
          "name": "who",
          "type": "address"
        }
      ],
      "name": "balanceOf",
      "outputs": [
        {
          "internalType": "uint256",
          "name": "balance",
          "type": "uint256"
        }
      ],
      "stateMutability": "view",
      "type": "function"
    },
    {
      "inputs": [
        {
          "internalType": "uint256",
          "name": "streamId",
          "type": "uint256"
        }
      ],
      "name": "cancelStream",
      "outputs": [
        {
          "internalType": "bool",
          "name": "",
          "type": "bool"
        }
      ],
      "stateMutability": "nonpayable",
      "type": "function"
    },
    {
      "inputs": [
        {
          "internalType": "address",
          "name": "recipient",
          "type": "address"
        },
        {
          "internalType": "uint256",
          "name": "deposit",
          "type": "uint256"
        },
        {
          "internalType": "address",
          "name": "tokenAddress",
          "type": "address"
        },
        {
          "internalType": "uint256",
          "name": "startTime",
          "type": "uint256"
        },
        {
          "internalType": "uint256",
          "name": "stopTime",
          "type": "uint256"
        }
      ],
      "name": "createStream",
      "outputs": [
        {
          "internalType": "uint256",
          "name": "",
          "type": "uint256"
        }
      ],
      "stateMutability": "nonpayable",
      "type": "function"
    },
    {
      "inputs": [
        {
          "internalType": "uint256",
          "name": "streamId",
          "type": "uint256"
        }
      ],
      "name": "deltaOf",
      "outputs": [
        {
          "internalType": "uint256",
          "name": "delta",
          "type": "uint256"
        }
      ],
      "stateMutability": "view",
      "type": "function"
    },
    {
      "inputs": [],
      "name": "getFundsAdmin",
      "outputs": [
        {
          "internalType": "address",
          "name": "",
          "type": "address"
        }
      ],
      "stateMutability": "view",
      "type": "function"
    },
    {
      "inputs": [],
      "name": "getNextStreamId",
      "outputs": [
        {
          "internalType": "uint256",
          "name": "",
          "type": "uint256"
        }
      ],
      "stateMutability": "view",
      "type": "function"
    },
    {
      "inputs": [
        {
          "internalType": "uint256",
          "name": "streamId",
          "type": "uint256"
        }
      ],
      "name": "getStream",
      "outputs": [
        {
          "internalType": "address",
          "name": "sender",
          "type": "address"
        },
        {
          "internalType": "address",
          "name": "recipient",
          "type": "address"
        },
        {
          "internalType": "uint256",
          "name": "deposit",
          "type": "uint256"
        },
        {
          "internalType": "address",
          "name": "tokenAddress",
          "type": "address"
        },
        {
          "internalType": "uint256",
          "name": "startTime",
          "type": "uint256"
        },
        {
          "internalType": "uint256",
          "name": "stopTime",
          "type": "uint256"
        },
        {
          "internalType": "uint256",
          "name": "remainingBalance",
          "type": "uint256"
        },
        {
          "internalType": "uint256",
          "name": "ratePerSecond",
          "type": "uint256"
        }
      ],
      "stateMutability": "view",
      "type": "function"
    },
    {
      "inputs": [
        {
          "internalType": "address",
          "name": "fundsAdmin",
          "type": "address"
        }
      ],
      "name": "initialize",
      "outputs": [],
      "stateMutability": "nonpayable",
      "type": "function"
    },
    {
      "inputs": [
        {
          "internalType": "contract IERC20",
          "name": "token",
          "type": "address"
        },
        {
          "internalType": "address",
          "name": "recipient",
          "type": "address"
        },
        {
          "internalType": "uint256",
          "name": "amount",
          "type": "uint256"
        }
      ],
      "name": "transfer",
      "outputs": [],
      "stateMutability": "nonpayable",
      "type": "function"
    },
    {
      "inputs": [
        {
          "internalType": "uint256",
          "name": "streamId",
          "type": "uint256"
        },
        {
          "internalType": "uint256",
          "name": "amount",
          "type": "uint256"
        }
      ],
      "name": "withdrawFromStream",
      "outputs": [
        {
          "internalType": "bool",
          "name": "",
          "type": "bool"
        }
      ],
      "stateMutability": "nonpayable",
      "type": "function"
    },
    {
      "stateMutability": "payable",
      "type": "receive"
    }
  ],
  "transactionHash": "0x4ab8707699e6546a933bd3f68d6717709820c73b647ede086837b0a340043e28",
  "args": [],
  "numDeployments": 1,
  "solcInputHash": "c351ce62b62f76bd5a8479a8f9cf6c24",
  "bytecode": "0x60806040526000805534801561001457600080fd5b506001603455611b00806100296000396000f3fe6080604052600436106100c65760003560e01c8063894e9a0d1161007f578063c4d66de811610059578063c4d66de81461026d578063cc1b4bf61461028d578063dde43cba146102ad578063e1f21c67146102c257600080fd5b8063894e9a0d146101c0578063a82ccd4d1461022b578063beabacc81461024b57600080fd5b806306bc2ee0146100d25780630932f92b146101095780633656eec21461012857806351ee886b146101485780636db9241b146101705780637a9b2c6c146101a057600080fd5b366100cd57005b600080fd5b3480156100de57600080fd5b506033546001600160a01b03165b6040516001600160a01b0390911681526020015b60405180910390f35b34801561011557600080fd5b506035545b604051908152602001610100565b34801561013457600080fd5b5061011a6101433660046117ab565b6102e2565b34801561015457600080fd5b506100ec73eeeeeeeeeeeeeeeeeeeeeeeeeeeeeeeeeeeeeeee81565b34801561017c57600080fd5b5061019061018b3660046117db565b610491565b6040519015158152602001610100565b3480156101ac57600080fd5b506101906101bb3660046117f4565b61071b565b3480156101cc57600080fd5b506101e06101db3660046117db565b610a42565b604080516001600160a01b03998a1681529789166020890152870195909552959092166060850152608084015260a083015260c082019290925260e081019190915261010001610100565b34801561023757600080fd5b5061011a6102463660046117db565b610aeb565b34801561025757600080fd5b5061026b610266366004611816565b610c06565b005b34801561027957600080fd5b5061026b610288366004611857565b610cce565b34801561029957600080fd5b5061011a6102a8366004611874565b610d52565b3480156102b957600080fd5b5061011a600181565b3480156102ce57600080fd5b5061026b6102dd366004611816565b611225565b6000828152603660205260408120600701548390600160a01b900460ff166103255760405162461bcd60e51b815260040161031c906118c6565b60405180910390fd5b60008481526036602090815260408083208151610120810183528154815260018201548185015260028201548184015260038201546060808301919091526004830154608083015260058301546001600160a01b0390811660a08401526006840154811660c084015260079093015492831660e0830152600160a01b90920460ff16151561010082015282519182018352848252928101849052908101929092529060006103d287610aeb565b90508260200151816103e4919061190b565b825260408301518351111561041a57604083015183516104049190611928565b6020830181905282516104179190611928565b82525b8260a001516001600160a01b0316866001600160a01b031603610442575051925061048a9050565b8260c001516001600160a01b0316866001600160a01b03160361048257815160408401516104709190611928565b604090920182905250925061048a9050565b600094505050505b5092915050565b60006002603454036104e55760405162461bcd60e51b815260206004820152601f60248201527f5265656e7472616e637947756172643a207265656e7472616e742063616c6c00604482015260640161031c565b60026034556000828152603660205260409020600701548290600160a01b900460ff166105245760405162461bcd60e51b815260040161031c906118c6565b60335483906001600160a01b031633148061055857506000818152603660205260409020600501546001600160a01b031633145b6105745760405162461bcd60e51b815260040161031c9061193b565b600084815260366020908152604080832081516101208101835281548152600182015493810193909352600281015491830191909152600381015460608301526004810154608083015260058101546001600160a01b0390811660a08401526006820154811660c0840181905260079092015490811660e0840152600160a01b900460ff16151561010083015290919061060f9087906102e2565b90506000610621878460a001516102e2565b600088815260366020526040812081815560018101829055600281018290556003810182905560048101919091556005810180546001600160a01b0319908116909155600682018054909116905560070180546001600160a81b031916905560e084015190915081156106a85760a08401516106a8906001600160a01b0383169084611263565b8360a001516001600160a01b03168460c001516001600160a01b0316897fca3e6079b726e7728802a0537949e2d1c7762304fa641fb06eb56daf2ba8c6b986866040516106ff929190918252602082015260400190565b60405180910390a4600196505050505050506001603455919050565b600060026034540361076f5760405162461bcd60e51b815260206004820152601f60248201527f5265656e7472616e637947756172643a207265656e7472616e742063616c6c00604482015260640161031c565b60026034556000838152603660205260409020600701548390600160a01b900460ff166107ae5760405162461bcd60e51b815260040161031c906118c6565b60335484906001600160a01b03163314806107e257506000818152603660205260409020600501546001600160a01b031633145b6107fe5760405162461bcd60e51b815260040161031c9061193b565b6000841161083f5760405162461bcd60e51b815260206004820152600e60248201526d616d6f756e74206973207a65726f60901b604482015260640161031c565b600085815260366020908152604080832081516101208101835281548152600182015493810193909352600281015491830191909152600381015460608301526004810154608083015260058101546001600160a01b0390811660a084018190526006830154821660c085015260079092015490811660e0840152600160a01b900460ff1615156101008301529091906108da9088906102e2565b9050858110156109385760405162461bcd60e51b8152602060048201526024808201527f616d6f756e7420657863656564732074686520617661696c61626c652062616c604482015263616e636560e01b606482015260840161031c565b8582604001516109489190611928565b6000888152603660205260408120600201829055036109c157600087815260366020526040812081815560018101829055600281018290556003810182905560048101919091556005810180546001600160a01b0319908116909155600682018054909116905560070180546001600160a81b03191690555b6109e78260a00151878460e001516001600160a01b03166112639092919063ffffffff16565b8160a001516001600160a01b0316877f36c3ab437e6a424ed25dc4bfdeb62706aa06558660fab2dab229d2555adaf89c88604051610a2791815260200190565b60405180910390a36001945050505050600160345592915050565b600080600080600080600080886036600082815260200190815260200160002060070160149054906101000a900460ff16610a8f5760405162461bcd60e51b815260040161031c906118c6565b5050506000968752505060366020525050604090922060068101546005820154825460078401546003850154600486015460028701546001909701546001600160a01b039687169a958716995093975091909416949092909190565b6000818152603660205260408120600701548290600160a01b900460ff16610b255760405162461bcd60e51b815260040161031c906118c6565b600083815260366020908152604091829020825161012081018452815481526001820154928101929092526002810154928201929092526003820154606082018190526004830154608083015260058301546001600160a01b0390811660a08401526006840154811660c084015260079093015492831660e0830152600160a01b90920460ff161515610100820152904211610bc5576000925050610c00565b8060800151421015610be8576060810151610be09042611928565b925050610c00565b80606001518160800151610bfc9190611928565b9250505b50919050565b6033546001600160a01b03163314610c305760405162461bcd60e51b815260040161031c90611998565b6001600160a01b038216610c7d5760405162461bcd60e51b81526020600482015260146024820152731253959053125117cc1617d49150d2541251539560621b604482015260640161031c565b73eeeeeeeeeeeeeeeeeeeeeeeeeeeeeeeeeeeeeeed196001600160a01b03841601610cba57610cb56001600160a01b038316826112c6565b505050565b610cb56001600160a01b0384168383611263565b6000546001908111610d395760405162461bcd60e51b815260206004820152602e60248201527f436f6e747261637420696e7374616e63652068617320616c726561647920626560448201526d195b881a5b9a5d1a585b1a5e995960921b606482015260840161031c565b6000819055620186a0603555610d4e826113df565b5050565b6033546000906001600160a01b03163314610d7f5760405162461bcd60e51b815260040161031c90611998565b6001600160a01b038616610dd55760405162461bcd60e51b815260206004820152601a60248201527f73747265616d20746f20746865207a65726f2061646472657373000000000000604482015260640161031c565b306001600160a01b03871603610e2d5760405162461bcd60e51b815260206004820152601d60248201527f73747265616d20746f2074686520636f6e747261637420697473656c66000000604482015260640161031c565b336001600160a01b03871603610e7c5760405162461bcd60e51b815260206004820152601460248201527339ba3932b0b6903a37903a34329031b0b63632b960611b604482015260640161031c565b60008511610ebe5760405162461bcd60e51b815260206004820152600f60248201526e6465706f736974206973207a65726f60881b604482015260640161031c565b42831015610f185760405162461bcd60e51b815260206004820152602160248201527f73746172742074696d65206265666f726520626c6f636b2e74696d657374616d6044820152600760fc1b606482015260840161031c565b828211610f675760405162461bcd60e51b815260206004820152601f60248201527f73746f702074696d65206265666f7265207468652073746172742074696d6500604482015260640161031c565b6040805180820190915260008082526020820152610f858484611928565b808252861015610fd75760405162461bcd60e51b815260206004820152601f60248201527f6465706f73697420736d616c6c6572207468616e2074696d652064656c746100604482015260640161031c565b8051610fe390876119db565b1561103b5760405162461bcd60e51b815260206004820152602260248201527f6465706f736974206e6f74206d756c7469706c65206f662074696d652064656c604482015261746160f01b606482015260840161031c565b805161104790876119ef565b8160200181815250506000603554905060405180610120016040528088815260200183602001518152602001888152602001868152602001858152602001896001600160a01b03168152602001306001600160a01b03168152602001876001600160a01b031681526020016001151581525060366000838152602001908152602001600020600082015181600001556020820151816001015560408201518160020155606082015181600301556080820151816004015560a08201518160050160006101000a8154816001600160a01b0302191690836001600160a01b0316021790555060c08201518160060160006101000a8154816001600160a01b0302191690836001600160a01b0316021790555060e08201518160070160006101000a8154816001600160a01b0302191690836001600160a01b031602179055506101008201518160070160146101000a81548160ff021916908315150217905550905050603560008154809291906111bc90611a03565b9091555050604080518881526001600160a01b0388811660208301529181018790526060810186905290891690309083907f7b01d409597969366dc268d7f957a990d1ca3d3449baf8fb45db67351aecfe789060800160405180910390a4979650505050505050565b6033546001600160a01b0316331461124f5760405162461bcd60e51b815260040161031c90611998565b610cb56001600160a01b0384168383611429565b6040516001600160a01b038316602482015260448101829052610cb590849063a9059cbb60e01b906064015b60408051601f198184030181529190526020810180516001600160e01b03166001600160e01b03199093169290921790915261153e565b804710156113165760405162461bcd60e51b815260206004820152601d60248201527f416464726573733a20696e73756666696369656e742062616c616e6365000000604482015260640161031c565b6000826001600160a01b03168260405160006040518083038185875af1925050503d8060008114611363576040519150601f19603f3d011682016040523d82523d6000602084013e611368565b606091505b5050905080610cb55760405162461bcd60e51b815260206004820152603a60248201527f416464726573733a20756e61626c6520746f2073656e642076616c75652c207260448201527f6563697069656e74206d61792068617665207265766572746564000000000000606482015260840161031c565b603380546001600160a01b0319166001600160a01b0383169081179091556040517f1ab77a654795da4cfe37c33188e862203ade9a5c7f1a9d4957669b3ccbec9e1190600090a250565b8015806114a35750604051636eb1769f60e11b81523060048201526001600160a01b03838116602483015284169063dd62ed3e90604401602060405180830381865afa15801561147d573d6000803e3d6000fd5b505050506040513d601f19601f820116820180604052508101906114a19190611a1c565b155b61150e5760405162461bcd60e51b815260206004820152603660248201527f5361666545524332303a20617070726f76652066726f6d206e6f6e2d7a65726f60448201527520746f206e6f6e2d7a65726f20616c6c6f77616e636560501b606482015260840161031c565b6040516001600160a01b038316602482015260448101829052610cb590849063095ea7b360e01b9060640161128f565b6000611593826040518060400160405280602081526020017f5361666545524332303a206c6f772d6c6576656c2063616c6c206661696c6564815250856001600160a01b03166116109092919063ffffffff16565b805190915015610cb557808060200190518101906115b19190611a35565b610cb55760405162461bcd60e51b815260206004820152602a60248201527f5361666545524332303a204552433230206f7065726174696f6e20646964206e6044820152691bdd081cdd58d8d9595960b21b606482015260840161031c565b606061161f8484600085611629565b90505b9392505050565b60608247101561168a5760405162461bcd60e51b815260206004820152602660248201527f416464726573733a20696e73756666696369656e742062616c616e636520666f6044820152651c8818d85b1b60d21b606482015260840161031c565b6001600160a01b0385163b6116e15760405162461bcd60e51b815260206004820152601d60248201527f416464726573733a2063616c6c20746f206e6f6e2d636f6e7472616374000000604482015260640161031c565b600080866001600160a01b031685876040516116fd9190611a7b565b60006040518083038185875af1925050503d806000811461173a576040519150601f19603f3d011682016040523d82523d6000602084013e61173f565b606091505b509150915061174f82828661175a565b979650505050505050565b60608315611769575081611622565b8251156117795782518084602001fd5b8160405162461bcd60e51b815260040161031c9190611a97565b6001600160a01b03811681146117a857600080fd5b50565b600080604083850312156117be57600080fd5b8235915060208301356117d081611793565b809150509250929050565b6000602082840312156117ed57600080fd5b5035919050565b6000806040838503121561180757600080fd5b50508035926020909101359150565b60008060006060848603121561182b57600080fd5b833561183681611793565b9250602084013561184681611793565b929592945050506040919091013590565b60006020828403121561186957600080fd5b813561162281611793565b600080600080600060a0868803121561188c57600080fd5b853561189781611793565b94506020860135935060408601356118ae81611793565b94979396509394606081013594506080013592915050565b6020808252601590820152741cdd1c99585b48191bd95cc81b9bdd08195e1a5cdd605a1b604082015260600190565b634e487b7160e01b600052601160045260246000fd5b8082028115828204841417611922576119226118f5565b92915050565b81810381811115611922576119226118f5565b6020808252603c908201527f63616c6c6572206973206e6f74207468652066756e64732061646d696e206f7260408201527f2074686520726563697069656e74206f66207468652073747265616d00000000606082015260800190565b60208082526013908201527227a7262cafa12cafa32aa72229afa0a226a4a760691b604082015260600190565b634e487b7160e01b600052601260045260246000fd5b6000826119ea576119ea6119c5565b500690565b6000826119fe576119fe6119c5565b500490565b600060018201611a1557611a156118f5565b5060010190565b600060208284031215611a2e57600080fd5b5051919050565b600060208284031215611a4757600080fd5b8151801515811461162257600080fd5b60005b83811015611a72578181015183820152602001611a5a565b50506000910152565b60008251611a8d818460208701611a57565b9190910192915050565b6020815260008251806020840152611ab6816040850160208701611a57565b601f01601f1916919091016040019291505056fea2646970667358221220ea41fd03c618a8d2ca81f43e6c4c0842c1c542e49222f9eb88c217f2c22e6ebe64736f6c63430008140033",
  "devdoc": {
    "author": "BGD Labs*",
    "events": {
      "NewFundsAdmin(address)": {
        "params": {
          "fundsAdmin": "The new funds admin*"
        }
      }
    },
    "kind": "dev",
    "methods": {
      "approve(address,address,uint256)": {
        "details": "Function for the funds admin to give ERC20 allowance to other parties",
        "params": {
          "amount": "Allowance to approve*",
          "recipient": "Allowance's recipient",
          "token": "The address of the token to give allowance from"
        }
      },
      "balanceOf(uint256,address)": {
        "details": "Throws if the id does not point to a valid stream.",
        "params": {
          "streamId": "The id of the stream for which to query the balance.",
          "who": "The address for which to query the balance."
        }
      },
      "cancelStream(uint256)": {
        "details": "Throws if the id does not point to a valid stream.  Throws if the caller is not the funds admin or the recipient of the stream.  Throws if there is a token transfer failure.",
        "params": {
          "streamId": "The id of the stream to cancel."
        }
      },
      "createStream(address,uint256,address,uint256,uint256)": {
        "details": "Throws if the recipient is the zero address, the contract itself or the caller.  Throws if the deposit is 0.  Throws if the start time is before `block.timestamp`.  Throws if the stop time is before the start time.  Throws if the duration calculation has a math error.  Throws if the deposit is smaller than the duration.  Throws if the deposit is not a multiple of the duration.  Throws if the rate calculation has a math error.  Throws if the next stream id calculation has a math error.  Throws if the contract is not allowed to transfer enough tokens.  Throws if there is a token transfer failure.",
        "params": {
          "deposit": "The amount of money to be streamed.",
          "recipient": "The address towards which the money is streamed.",
          "startTime": "The unix timestamp for when the stream starts.",
          "stopTime": "The unix timestamp for when the stream stops.",
          "tokenAddress": "The ERC20 token to use as streaming currency."
        }
      },
      "deltaOf(uint256)": {
        "details": "Throws if the id does not point to a valid stream.",
        "params": {
          "streamId": "The id of the stream for which to query the delta."
        }
      },
      "getFundsAdmin()": {
        "returns": {
          "_0": "address The address of the funds admin*"
        }
      },
      "getStream(uint256)": {
        "details": "Throws if the id does not point to a valid stream.",
        "params": {
          "streamId": "The id of the stream to query."
        }
      },
      "transfer(address,address,uint256)": {
        "params": {
          "amount": "Amount to transfer*",
          "recipient": "Transfer's recipient",
          "token": "The address of the token to transfer"
        }
      },
      "withdrawFromStream(uint256,uint256)": {
        "details": "Throws if the id does not point to a valid stream.  Throws if the caller is not the funds admin or the recipient of the stream.  Throws if the amount exceeds the available balance.  Throws if there is a token transfer failure.",
        "params": {
          "amount": "The amount of tokens to withdraw.",
          "streamId": "The id of the stream to withdraw tokens from."
        }
      }
    },
    "title": "AaveEcosystemReserve v2",
    "version": 1
  },
  "userdoc": {
    "events": {
      "NewFundsAdmin(address)": {
        "notice": "Emitted when the funds admin changes"
      }
    },
    "kind": "user",
    "methods": {
      "ETH_MOCK_ADDRESS()": {
        "notice": "Returns the mock ETH reference address"
      },
      "balanceOf(uint256,address)": {
        "notice": "Returns the available funds for the given stream id and address.Returns the total funds allocated to `who` as uint256."
      },
      "cancelStream(uint256)": {
        "notice": "Cancels the stream and transfers the tokens back on a pro rata basis.Returns bool true=success, otherwise false."
      },
      "createStream(address,uint256,address,uint256,uint256)": {
        "notice": "Creates a new stream funded by this contracts itself and paid towards `recipient`.Returns the uint256 id of the newly created stream."
      },
      "deltaOf(uint256)": {
        "notice": "Returns either the delta in seconds between `block.timestamp` and `startTime` or  between `stopTime` and `startTime, whichever is smaller. If `block.timestamp` is before  `startTime`, it returns 0.Returns the time delta in seconds."
      },
      "getFundsAdmin()": {
        "notice": "Return the funds admin, only entity to be able to interact with this contract (controller of reserve)"
      },
      "getNextStreamId()": {
        "notice": "Returns the next available stream idReturns the stream id."
      },
      "getStream(uint256)": {
        "notice": "Returns the stream with all its properties.Returns the stream object."
      },
      "transfer(address,address,uint256)": {
        "notice": "Function for the funds admin to transfer ERC20 tokens to other parties"
      },
      "withdrawFromStream(uint256,uint256)": {
        "notice": "Withdraws from the contract to the recipient's account."
      }
    },
    "notice": "Stores ERC20 tokens of an ecosystem reserve, adding streaming capabilities. Modification of Sablier https://github.com/sablierhq/sablier/blob/develop/packages/protocol/contracts/Sablier.sol Original can be found also deployed on https://etherscan.io/address/0xCD18eAa163733Da39c232722cBC4E8940b1D8888 Modifications: - Sablier \"pulls\" the funds from the creator of the stream at creation. In the Aave case, we already have the funds. - Anybody can create streams on Sablier. Here, only the funds admin (Aave governance via controller) can - Adapted codebase to Solidity 0.8.11, mainly removing SafeMath and CarefulMath to use native safe math - Same as with creation, on Sablier the `sender` and `recipient` can cancel a stream. Here, only fund admin and recipient",
    "version": 1
  },
  "storageLayout": {
    "storage": [
      {
        "astId": 23771,
        "contract": "contracts/periphery/treasury/EcosystemReserveV2.sol:EcosystemReserveV2",
        "label": "lastInitializedRevision",
        "offset": 0,
        "slot": "0",
        "type": "t_uint256"
      },
      {
        "astId": 23802,
        "contract": "contracts/periphery/treasury/EcosystemReserveV2.sol:EcosystemReserveV2",
        "label": "______gap",
        "offset": 0,
        "slot": "1",
        "type": "t_array(t_uint256)50_storage"
      },
      {
        "astId": 21775,
        "contract": "contracts/periphery/treasury/EcosystemReserveV2.sol:EcosystemReserveV2",
        "label": "_fundsAdmin",
        "offset": 0,
        "slot": "51",
        "type": "t_address"
      },
      {
        "astId": 23509,
        "contract": "contracts/periphery/treasury/EcosystemReserveV2.sol:EcosystemReserveV2",
        "label": "_status",
        "offset": 0,
        "slot": "52",
        "type": "t_uint256"
      },
      {
        "astId": 22291,
        "contract": "contracts/periphery/treasury/EcosystemReserveV2.sol:EcosystemReserveV2",
        "label": "_nextStreamId",
        "offset": 0,
        "slot": "53",
        "type": "t_uint256"
      },
      {
        "astId": 22297,
        "contract": "contracts/periphery/treasury/EcosystemReserveV2.sol:EcosystemReserveV2",
        "label": "_streams",
        "offset": 0,
        "slot": "54",
        "type": "t_mapping(t_uint256,t_struct(Stream)23100_storage)"
      }
    ],
    "types": {
      "t_address": {
        "encoding": "inplace",
        "label": "address",
        "numberOfBytes": "20"
      },
      "t_array(t_uint256)50_storage": {
        "base": "t_uint256",
        "encoding": "inplace",
        "label": "uint256[50]",
        "numberOfBytes": "1600"
      },
      "t_bool": {
        "encoding": "inplace",
        "label": "bool",
        "numberOfBytes": "1"
      },
      "t_mapping(t_uint256,t_struct(Stream)23100_storage)": {
        "encoding": "mapping",
        "key": "t_uint256",
        "label": "mapping(uint256 => struct IStreamable.Stream)",
        "numberOfBytes": "32",
        "value": "t_struct(Stream)23100_storage"
      },
      "t_struct(Stream)23100_storage": {
        "encoding": "inplace",
        "label": "struct IStreamable.Stream",
        "members": [
          {
            "astId": 23083,
            "contract": "contracts/periphery/treasury/EcosystemReserveV2.sol:EcosystemReserveV2",
            "label": "deposit",
            "offset": 0,
            "slot": "0",
            "type": "t_uint256"
          },
          {
            "astId": 23085,
            "contract": "contracts/periphery/treasury/EcosystemReserveV2.sol:EcosystemReserveV2",
            "label": "ratePerSecond",
            "offset": 0,
            "slot": "1",
            "type": "t_uint256"
          },
          {
            "astId": 23087,
            "contract": "contracts/periphery/treasury/EcosystemReserveV2.sol:EcosystemReserveV2",
            "label": "remainingBalance",
            "offset": 0,
            "slot": "2",
            "type": "t_uint256"
          },
          {
            "astId": 23089,
            "contract": "contracts/periphery/treasury/EcosystemReserveV2.sol:EcosystemReserveV2",
            "label": "startTime",
            "offset": 0,
            "slot": "3",
            "type": "t_uint256"
          },
          {
            "astId": 23091,
            "contract": "contracts/periphery/treasury/EcosystemReserveV2.sol:EcosystemReserveV2",
            "label": "stopTime",
            "offset": 0,
            "slot": "4",
            "type": "t_uint256"
          },
          {
            "astId": 23093,
            "contract": "contracts/periphery/treasury/EcosystemReserveV2.sol:EcosystemReserveV2",
            "label": "recipient",
            "offset": 0,
            "slot": "5",
            "type": "t_address"
          },
          {
            "astId": 23095,
            "contract": "contracts/periphery/treasury/EcosystemReserveV2.sol:EcosystemReserveV2",
            "label": "sender",
            "offset": 0,
            "slot": "6",
            "type": "t_address"
          },
          {
            "astId": 23097,
            "contract": "contracts/periphery/treasury/EcosystemReserveV2.sol:EcosystemReserveV2",
            "label": "tokenAddress",
            "offset": 0,
            "slot": "7",
            "type": "t_address"
          },
          {
            "astId": 23099,
            "contract": "contracts/periphery/treasury/EcosystemReserveV2.sol:EcosystemReserveV2",
            "label": "isEntity",
            "offset": 20,
            "slot": "7",
            "type": "t_bool"
          }
        ],
        "numberOfBytes": "256"
      },
      "t_uint256": {
        "encoding": "inplace",
        "label": "uint256",
        "numberOfBytes": "32"
      }
    }
  }
}