{
  "address": "0xe7f1725E7734CE288F8367e1Bb143E90bb3F0512",
  "abi": [
    {
      "inputs": [
        {
          "internalType": "address",
          "name": "aaveGovShortTimelock",
          "type": "address"
        }
      ],
      "stateMutability": "nonpayable",
      "type": "constructor"
    },
    {
      "anonymous": false,
      "inputs": [
        {
          "indexed": true,
          "internalType": "address",
          "name": "previousOwner",
          "type": "address"
        },
        {
          "indexed": true,
          "internalType": "address",
          "name": "newOwner",
          "type": "address"
        }
      ],
      "name": "OwnershipTransferred",
      "type": "event"
    },
    {
      "inputs": [
        {
          "internalType": "address",
          "name": "collector",
          "type": "address"
        },
        {
          "internalType": "contract IERC20",
          "name": "token",
          "type": "address"
        },
        {
          "internalType": "address",
          "name": "recipient",
          "type": "address"
        },
        {
          "internalType": "uint256",
          "name": "amount",
          "type": "uint256"
        }
      ],
      "name": "approve",
      "outputs": [],
      "stateMutability": "nonpayable",
      "type": "function"
    },
    {
      "inputs": [
        {
          "internalType": "address",
          "name": "collector",
          "type": "address"
        },
        {
          "internalType": "uint256",
          "name": "streamId",
          "type": "uint256"
        }
      ],
      "name": "cancelStream",
      "outputs": [
        {
          "internalType": "bool",
          "name": "",
          "type": "bool"
        }
      ],
      "stateMutability": "nonpayable",
      "type": "function"
    },
    {
      "inputs": [
        {
          "internalType": "address",
          "name": "collector",
          "type": "address"
        },
        {
          "internalType": "address",
          "name": "recipient",
          "type": "address"
        },
        {
          "internalType": "uint256",
          "name": "deposit",
          "type": "uint256"
        },
        {
          "internalType": "contract IERC20",
          "name": "tokenAddress",
          "type": "address"
        },
        {
          "internalType": "uint256",
          "name": "startTime",
          "type": "uint256"
        },
        {
          "internalType": "uint256",
          "name": "stopTime",
          "type": "uint256"
        }
      ],
      "name": "createStream",
      "outputs": [
        {
          "internalType": "uint256",
          "name": "",
          "type": "uint256"
        }
      ],
      "stateMutability": "nonpayable",
      "type": "function"
    },
    {
      "inputs": [],
      "name": "owner",
      "outputs": [
        {
          "internalType": "address",
          "name": "",
          "type": "address"
        }
      ],
      "stateMutability": "view",
      "type": "function"
    },
    {
      "inputs": [],
      "name": "renounceOwnership",
      "outputs": [],
      "stateMutability": "nonpayable",
      "type": "function"
    },
    {
      "inputs": [
        {
          "internalType": "address",
          "name": "collector",
          "type": "address"
        },
        {
          "internalType": "contract IERC20",
          "name": "token",
          "type": "address"
        },
        {
          "internalType": "address",
          "name": "recipient",
          "type": "address"
        },
        {
          "internalType": "uint256",
          "name": "amount",
          "type": "uint256"
        }
      ],
      "name": "transfer",
      "outputs": [],
      "stateMutability": "nonpayable",
      "type": "function"
    },
    {
      "inputs": [
        {
          "internalType": "address",
          "name": "newOwner",
          "type": "address"
        }
      ],
      "name": "transferOwnership",
      "outputs": [],
      "stateMutability": "nonpayable",
      "type": "function"
    },
    {
      "inputs": [
        {
          "internalType": "address",
          "name": "collector",
          "type": "address"
        },
        {
          "internalType": "uint256",
          "name": "streamId",
          "type": "uint256"
        },
        {
          "internalType": "uint256",
          "name": "funds",
          "type": "uint256"
        }
      ],
      "name": "withdrawFromStream",
      "outputs": [
        {
          "internalType": "bool",
          "name": "",
          "type": "bool"
        }
      ],
      "stateMutability": "nonpayable",
      "type": "function"
    }
  ],
  "transactionHash": "0x15fe9fcc03ddd34a28d2965e3d27138bc97c48fde07bd1b6b681a40c206f0251",
  "args": [
    "0xf39Fd6e51aad88F6F4ce6aB8827279cffFb92266"
  ],
  "numDeployments": 1,
  "solcInputHash": "c351ce62b62f76bd5a8479a8f9cf6c24",
  "bytecode": "0x608060405234801561001057600080fd5b5060405161097c38038061097c83398101604081905261002f9161017a565b600080546001600160a01b0319163390811782556040519091829160008051602061095c833981519152908290a3506100678161006d565b506101aa565b6000546001600160a01b031633146100cc5760405162461bcd60e51b815260206004820181905260248201527f4f776e61626c653a2063616c6c6572206973206e6f7420746865206f776e657260448201526064015b60405180910390fd5b6001600160a01b0381166101315760405162461bcd60e51b815260206004820152602660248201527f4f776e61626c653a206e6577206f776e657220697320746865207a65726f206160448201526564647265737360d01b60648201526084016100c3565b600080546040516001600160a01b038085169392169160008051602061095c83398151915291a3600080546001600160a01b0319166001600160a01b0392909216919091179055565b60006020828403121561018c57600080fd5b81516001600160a01b03811681146101a357600080fd5b9392505050565b6107a3806101b96000396000f3fe608060405234801561001057600080fd5b50600436106100885760003560e01c80638da5cb5b1161005b5780638da5cb5b146100e5578063f18d03cc14610100578063f2fde38b14610113578063fd59e1341461012657600080fd5b80632f436bfa1461008d57806359eba454146100b5578063715018a6146100ca5780637dc14a8e146100d2575b600080fd5b6100a061009b3660046105c9565b610147565b60405190151581526020015b60405180910390f35b6100c86100c33660046105fe565b6101f5565b005b6100c8610290565b6100a06100e036600461064f565b610304565b6000546040516001600160a01b0390911681526020016100ac565b6100c861010e3660046105fe565b6103a1565b6100c861012136600461067b565b610408565b610139610134366004610698565b6104f2565b6040519081526020016100ac565b600080546001600160a01b0316331461017b5760405162461bcd60e51b8152600401610172906106fd565b60405180910390fd5b604051631ea6cb1b60e21b815260048101849052602481018390526001600160a01b03851690637a9b2c6c906044016020604051808303816000875af11580156101c9573d6000803e3d6000fd5b505050506040513d601f19601f820116820180604052508101906101ed9190610732565b949350505050565b6000546001600160a01b0316331461021f5760405162461bcd60e51b8152600401610172906106fd565b60405163e1f21c6760e01b81526001600160a01b03848116600483015283811660248301526044820183905285169063e1f21c67906064015b600060405180830381600087803b15801561027257600080fd5b505af1158015610286573d6000803e3d6000fd5b5050505050505050565b6000546001600160a01b031633146102ba5760405162461bcd60e51b8152600401610172906106fd565b600080546040516001600160a01b03909116907f8be0079c531659141344cd1fd0a4f28419497f9722a3daafe3b4186f6b6457e0908390a3600080546001600160a01b0319169055565b600080546001600160a01b0316331461032f5760405162461bcd60e51b8152600401610172906106fd565b604051636db9241b60e01b8152600481018390526001600160a01b03841690636db9241b906024016020604051808303816000875af1158015610376573d6000803e3d6000fd5b505050506040513d601f19601f8201168201806040525081019061039a9190610732565b9392505050565b6000546001600160a01b031633146103cb5760405162461bcd60e51b8152600401610172906106fd565b6040516317d5759960e31b81526001600160a01b03848116600483015283811660248301526044820183905285169063beabacc890606401610258565b6000546001600160a01b031633146104325760405162461bcd60e51b8152600401610172906106fd565b6001600160a01b0381166104975760405162461bcd60e51b815260206004820152602660248201527f4f776e61626c653a206e6577206f776e657220697320746865207a65726f206160448201526564647265737360d01b6064820152608401610172565b600080546040516001600160a01b03808516939216917f8be0079c531659141344cd1fd0a4f28419497f9722a3daafe3b4186f6b6457e091a3600080546001600160a01b0319166001600160a01b0392909216919091179055565b600080546001600160a01b0316331461051d5760405162461bcd60e51b8152600401610172906106fd565b60405163660da5fb60e11b81526001600160a01b038781166004830152602482018790528581166044830152606482018590526084820184905288169063cc1b4bf69060a4016020604051808303816000875af1158015610582573d6000803e3d6000fd5b505050506040513d601f19601f820116820180604052508101906105a69190610754565b979650505050505050565b6001600160a01b03811681146105c657600080fd5b50565b6000806000606084860312156105de57600080fd5b83356105e9816105b1565b95602085013595506040909401359392505050565b6000806000806080858703121561061457600080fd5b843561061f816105b1565b9350602085013561062f816105b1565b9250604085013561063f816105b1565b9396929550929360600135925050565b6000806040838503121561066257600080fd5b823561066d816105b1565b946020939093013593505050565b60006020828403121561068d57600080fd5b813561039a816105b1565b60008060008060008060c087890312156106b157600080fd5b86356106bc816105b1565b955060208701356106cc816105b1565b94506040870135935060608701356106e3816105b1565b9598949750929560808101359460a0909101359350915050565b6020808252818101527f4f776e61626c653a2063616c6c6572206973206e6f7420746865206f776e6572604082015260600190565b60006020828403121561074457600080fd5b8151801515811461039a57600080fd5b60006020828403121561076657600080fd5b505191905056fea26469706673582212206b933e109531e6ac913c40365161eb68e8b2ed96e2b79e6b256f716b25e0beeb64736f6c634300081400338be0079c531659141344cd1fd0a4f28419497f9722a3daafe3b4186f6b6457e0",
  "devdoc": {
    "kind": "dev",
    "methods": {
      "approve(address,address,address,uint256)": {
        "params": {
          "amount": "Allowance to approve*",
          "collector": "The collector contract with funds (Aave ecosystem reserve)",
          "recipient": "Allowance's recipient",
          "token": "The asset address"
        }
      },
      "cancelStream(address,uint256)": {
        "params": {
          "collector": "The collector contract with funds (Aave ecosystem reserve)",
          "streamId": "The id of the stream to cancel"
        },
        "returns": {
          "_0": "bool If the cancellation happened correctly*"
        }
      },
      "constructor": {
        "params": {
          "aaveGovShortTimelock": "The address of the Aave's governance executor, owning this contract"
        }
      },
      "createStream(address,address,uint256,address,uint256,uint256)": {
        "params": {
          "collector": "The collector contract with funds (Aave ecosystem reserve)",
          "deposit": "Total amount to be streamed",
          "recipient": "The recipient of the stream of token",
          "startTime": "The unix timestamp for when the stream starts",
          "stopTime": "The unix timestamp for when the stream stops",
          "tokenAddress": "The ERC20 token to use as streaming asset"
        },
        "returns": {
          "_0": "uint256 The stream id created*"
        }
      },
      "owner()": {
        "details": "Returns the address of the current owner."
      },
      "renounceOwnership()": {
        "details": "Leaves the contract without owner. It will not be possible to call `onlyOwner` functions anymore. Can only be called by the current owner. NOTE: Renouncing ownership will leave the contract without an owner, thereby removing any functionality that is only available to the owner."
      },
      "transfer(address,address,address,uint256)": {
        "params": {
          "amount": "Amount to transfer*",
          "collector": "The collector contract with funds (Aave ecosystem reserve)",
          "recipient": "Transfer's recipient",
          "token": "The asset address"
        }
      },
      "transferOwnership(address)": {
        "details": "Transfers ownership of the contract to a new account (`newOwner`). Can only be called by the current owner."
      },
      "withdrawFromStream(address,uint256,uint256)": {
        "params": {
          "collector": "The collector contract with funds (Aave ecosystem reserve)",
          "funds": "Amount to withdraw",
          "streamId": "The id of the stream to withdraw tokens from"
        },
        "returns": {
          "_0": "bool If the withdrawal finished properly*"
        }
      }
    },
    "version": 1
  },
  "userdoc": {
    "kind": "user",
    "methods": {
      "approve(address,address,address,uint256)": {
        "notice": "Proxy function for ERC20's approve(), pointing to a specific collector contract"
      },
      "cancelStream(address,uint256)": {
        "notice": "Proxy function to cancel a stream of token on a specific collector contract"
      },
      "constructor": {
        "notice": "Constructor."
      },
      "createStream(address,address,uint256,address,uint256,uint256)": {
        "notice": "Proxy function to create a stream of token on a specific collector contract"
      },
      "transfer(address,address,address,uint256)": {
        "notice": "Proxy function for ERC20's transfer(), pointing to a specific collector contract"
      },
      "withdrawFromStream(address,uint256,uint256)": {
        "notice": "Proxy function to withdraw from a stream of token on a specific collector contract"
      }
    },
    "version": 1
  },
  "storageLayout": {
    "storage": [
      {
        "astId": 1472,
        "contract": "contracts/periphery/treasury/EcosystemReserveController.sol:EcosystemReserveController",
        "label": "_owner",
        "offset": 0,
        "slot": "0",
        "type": "t_address"
      }
    ],
    "types": {
      "t_address": {
        "encoding": "inplace",
        "label": "address",
        "numberOfBytes": "20"
      }
    }
  }
}