{
  "address": "0x610178dA211FEF7D417bC0e6FeD39F05609AD788",
  "abi": [
    {
      "inputs": [
        {
          "internalType": "string",
          "name": "mockName",
          "type": "string"
        },
        {
          "internalType": "string",
          "name": "mockSymbol",
          "type": "string"
        },
        {
          "internalType": "address",
          "name": "owner",
          "type": "address"
        }
      ],
      "stateMutability": "nonpayable",
      "type": "constructor"
    },
    {
      "anonymous": false,
      "inputs": [
        {
          "indexed": true,
          "internalType": "address",
          "name": "src",
          "type": "address"
        },
        {
          "indexed": true,
          "internalType": "address",
          "name": "guy",
          "type": "address"
        },
        {
          "indexed": false,
          "internalType": "uint256",
          "name": "wad",
          "type": "uint256"
        }
      ],
      "name": "Approval",
      "type": "event"
    },
    {
      "anonymous": false,
      "inputs": [
        {
          "indexed": true,
          "internalType": "address",
          "name": "dst",
          "type": "address"
        },
        {
          "indexed": false,
          "internalType": "uint256",
          "name": "wad",
          "type": "uint256"
        }
      ],
      "name": "Deposit",
      "type": "event"
    },
    {
      "anonymous": false,
      "inputs": [
        {
          "indexed": true,
          "internalType": "address",
          "name": "previousOwner",
          "type": "address"
        },
        {
          "indexed": true,
          "internalType": "address",
          "name": "newOwner",
          "type": "address"
        }
      ],
      "name": "OwnershipTransferred",
      "type": "event"
    },
    {
      "anonymous": false,
      "inputs": [
        {
          "indexed": true,
          "internalType": "address",
          "name": "src",
          "type": "address"
        },
        {
          "indexed": true,
          "internalType": "address",
          "name": "dst",
          "type": "address"
        },
        {
          "indexed": false,
          "internalType": "uint256",
          "name": "wad",
          "type": "uint256"
        }
      ],
      "name": "Transfer",
      "type": "event"
    },
    {
      "anonymous": false,
      "inputs": [
        {
          "indexed": true,
          "internalType": "address",
          "name": "src",
          "type": "address"
        },
        {
          "indexed": false,
          "internalType": "uint256",
          "name": "wad",
          "type": "uint256"
        }
      ],
      "name": "Withdrawal",
      "type": "event"
    },
    {
      "inputs": [
        {
          "internalType": "address",
          "name": "",
          "type": "address"
        },
        {
          "internalType": "address",
          "name": "",
          "type": "address"
        }
      ],
      "name": "allowance",
      "outputs": [
        {
          "internalType": "uint256",
          "name": "",
          "type": "uint256"
        }
      ],
      "stateMutability": "view",
      "type": "function"
    },
    {
      "inputs": [
        {
          "internalType": "address",
          "name": "guy",
          "type": "address"
        },
        {
          "internalType": "uint256",
          "name": "wad",
          "type": "uint256"
        }
      ],
      "name": "approve",
      "outputs": [
        {
          "internalType": "bool",
          "name": "",
          "type": "bool"
        }
      ],
      "stateMutability": "nonpayable",
      "type": "function"
    },
    {
      "inputs": [
        {
          "internalType": "address",
          "name": "",
          "type": "address"
        }
      ],
      "name": "balanceOf",
      "outputs": [
        {
          "internalType": "uint256",
          "name": "",
          "type": "uint256"
        }
      ],
      "stateMutability": "view",
      "type": "function"
    },
    {
      "inputs": [],
      "name": "decimals",
      "outputs": [
        {
          "internalType": "uint8",
          "name": "",
          "type": "uint8"
        }
      ],
      "stateMutability": "view",
      "type": "function"
    },
    {
      "inputs": [],
      "name": "deposit",
      "outputs": [],
      "stateMutability": "payable",
      "type": "function"
    },
    {
      "inputs": [
        {
          "internalType": "address",
          "name": "account",
          "type": "address"
        },
        {
          "internalType": "uint256",
          "name": "value",
          "type": "uint256"
        }
      ],
      "name": "mint",
      "outputs": [
        {
          "internalType": "bool",
          "name": "",
          "type": "bool"
        }
      ],
      "stateMutability": "nonpayable",
      "type": "function"
    },
    {
      "inputs": [],
      "name": "name",
      "outputs": [
        {
          "internalType": "string",
          "name": "",
          "type": "string"
        }
      ],
      "stateMutability": "view",
      "type": "function"
    },
    {
      "inputs": [],
      "name": "owner",
      "outputs": [
        {
          "internalType": "address",
          "name": "",
          "type": "address"
        }
      ],
      "stateMutability": "view",
      "type": "function"
    },
    {
      "inputs": [],
      "name": "renounceOwnership",
      "outputs": [],
      "stateMutability": "nonpayable",
      "type": "function"
    },
    {
      "inputs": [],
      "name": "symbol",
      "outputs": [
        {
          "internalType": "string",
          "name": "",
          "type": "string"
        }
      ],
      "stateMutability": "view",
      "type": "function"
    },
    {
      "inputs": [],
      "name": "totalSupply",
      "outputs": [
        {
          "internalType": "uint256",
          "name": "",
          "type": "uint256"
        }
      ],
      "stateMutability": "view",
      "type": "function"
    },
    {
      "inputs": [
        {
          "internalType": "address",
          "name": "dst",
          "type": "address"
        },
        {
          "internalType": "uint256",
          "name": "wad",
          "type": "uint256"
        }
      ],
      "name": "transfer",
      "outputs": [
        {
          "internalType": "bool",
          "name": "",
          "type": "bool"
        }
      ],
      "stateMutability": "nonpayable",
      "type": "function"
    },
    {
      "inputs": [
        {
          "internalType": "address",
          "name": "src",
          "type": "address"
        },
        {
          "internalType": "address",
          "name": "dst",
          "type": "address"
        },
        {
          "internalType": "uint256",
          "name": "wad",
          "type": "uint256"
        }
      ],
      "name": "transferFrom",
      "outputs": [
        {
          "internalType": "bool",
          "name": "",
          "type": "bool"
        }
      ],
      "stateMutability": "nonpayable",
      "type": "function"
    },
    {
      "inputs": [
        {
          "internalType": "address",
          "name": "newOwner",
          "type": "address"
        }
      ],
      "name": "transferOwnership",
      "outputs": [],
      "stateMutability": "nonpayable",
      "type": "function"
    },
    {
      "inputs": [
        {
          "internalType": "uint256",
          "name": "wad",
          "type": "uint256"
        }
      ],
      "name": "withdraw",
      "outputs": [],
      "stateMutability": "nonpayable",
      "type": "function"
    },
    {
      "stateMutability": "payable",
      "type": "receive"
    }
  ],
  "transactionHash": "0xca2e6ed8333fa0635c953afc08d0650ced1f67074fafe7eef08e0660c5072ffa",
  "args": [
    "WBTC",
    "WBTC",
    "0x5FC8d32690cc91D4c39d9d3abcBD16989F875707"
  ],
  "numDeployments": 1,
  "solcInputHash": "c351ce62b62f76bd5a8479a8f9cf6c24",
  "bytecode": "0x60c0604052600d60809081526c2bb930b83832b21022ba3432b960991b60a0526000906200002e9082620002b2565b506040805180820190915260048152630ae8aa8960e31b6020820152600190620000599082620002b2565b506002805460ff191660121790553480156200007457600080fd5b5060405162000fa638038062000fa683398101604081905262000097916200042d565b600580546001600160a01b03191633908117909155604051819060009060008051602062000f86833981519152908290a3506000620000d78482620002b2565b506001620000e68382620002b2565b50620000f281620000fb565b505050620004ba565b6005546001600160a01b031633146200015b5760405162461bcd60e51b815260206004820181905260248201527f4f776e61626c653a2063616c6c6572206973206e6f7420746865206f776e657260448201526064015b60405180910390fd5b6001600160a01b038116620001c25760405162461bcd60e51b815260206004820152602660248201527f4f776e61626c653a206e6577206f776e657220697320746865207a65726f206160448201526564647265737360d01b606482015260840162000152565b6005546040516001600160a01b0380841692169060008051602062000f8683398151915290600090a3600580546001600160a01b0319166001600160a01b0392909216919091179055565b634e487b7160e01b600052604160045260246000fd5b600181811c908216806200023857607f821691505b6020821081036200025957634e487b7160e01b600052602260045260246000fd5b50919050565b601f821115620002ad57600081815260208120601f850160051c81016020861015620002885750805b601f850160051c820191505b81811015620002a95782815560010162000294565b5050505b505050565b81516001600160401b03811115620002ce57620002ce6200020d565b620002e681620002df845462000223565b846200025f565b602080601f8311600181146200031e5760008415620003055750858301515b600019600386901b1c1916600185901b178555620002a9565b600085815260208120601f198616915b828110156200034f578886015182559484019460019091019084016200032e565b50858210156200036e5787850151600019600388901b60f8161c191681555b5050505050600190811b01905550565b600082601f8301126200039057600080fd5b81516001600160401b0380821115620003ad57620003ad6200020d565b604051601f8301601f19908116603f01168101908282118183101715620003d857620003d86200020d565b81604052838152602092508683858801011115620003f557600080fd5b600091505b83821015620004195785820183015181830184015290820190620003fa565b600093810190920192909252949350505050565b6000806000606084860312156200044357600080fd5b83516001600160401b03808211156200045b57600080fd5b62000469878388016200037e565b945060208601519150808211156200048057600080fd5b506200048f868287016200037e565b604086015190935090506001600160a01b0381168114620004af57600080fd5b809150509250925092565b610abc80620004ca6000396000f3fe6080604052600436106100ec5760003560e01c806370a082311161008a578063a9059cbb11610059578063a9059cbb14610283578063d0e30db0146102a3578063dd62ed3e146102ab578063f2fde38b146102e357600080fd5b806370a0823114610204578063715018a6146102315780638da5cb5b1461024657806395d89b411461026e57600080fd5b806323b872dd116100c657806323b872dd146101785780632e1a7d4d14610198578063313ce567146101b857806340c10f19146101e457600080fd5b806306fdde0314610100578063095ea7b31461012b57806318160ddd1461015b57600080fd5b366100fb576100f9610303565b005b600080fd5b34801561010c57600080fd5b5061011561035e565b60405161012291906108a4565b60405180910390f35b34801561013757600080fd5b5061014b61014636600461090e565b6103ec565b6040519015158152602001610122565b34801561016757600080fd5b50475b604051908152602001610122565b34801561018457600080fd5b5061014b610193366004610938565b610459565b3480156101a457600080fd5b506100f96101b3366004610974565b6105dd565b3480156101c457600080fd5b506002546101d29060ff1681565b60405160ff9091168152602001610122565b3480156101f057600080fd5b5061014b6101ff36600461090e565b610683565b34801561021057600080fd5b5061016a61021f36600461098d565b60036020526000908152604090205481565b34801561023d57600080fd5b506100f9610724565b34801561025257600080fd5b506005546040516001600160a01b039091168152602001610122565b34801561027a57600080fd5b50610115610798565b34801561028f57600080fd5b5061014b61029e36600461090e565b6107a5565b6100f9610303565b3480156102b757600080fd5b5061016a6102c63660046109a8565b600460209081526000928352604080842090915290825290205481565b3480156102ef57600080fd5b506100f96102fe36600461098d565b6107b9565b33600090815260036020526040812080543492906103229084906109f1565b909155505060405134815233907fe1fffcc4923d04b559f4d29a8bfc6cda04eb5b0d3c460751c2402c5c5cc9109c9060200160405180910390a2565b6000805461036b90610a04565b80601f016020809104026020016040519081016040528092919081815260200182805461039790610a04565b80156103e45780601f106103b9576101008083540402835291602001916103e4565b820191906000526020600020905b8154815290600101906020018083116103c757829003601f168201915b505050505081565b3360008181526004602090815260408083206001600160a01b038716808552925280832085905551919290917f8c5be1e5ebec7d5bd14f71427d1e84f3dd0314c0f7b2291e5b200ac8c7c3b925906104479086815260200190565b60405180910390a35060015b92915050565b6001600160a01b03831660009081526003602052604081205482111561047e57600080fd5b6001600160a01b03841633148015906104bc57506001600160a01b038416600090815260046020908152604080832033845290915290205460001914155b1561052a576001600160a01b03841660009081526004602090815260408083203384529091529020548211156104f157600080fd5b6001600160a01b038416600090815260046020908152604080832033845290915281208054849290610524908490610a3e565b90915550505b6001600160a01b03841660009081526003602052604081208054849290610552908490610a3e565b90915550506001600160a01b0383166000908152600360205260408120805484929061057f9084906109f1565b92505081905550826001600160a01b0316846001600160a01b03167fddf252ad1be2c89b69c2b068fc378daa952ba7f163c4a11628f55a4df523b3ef846040516105cb91815260200190565b60405180910390a35060019392505050565b336000908152600360205260409020548111156105f957600080fd5b3360009081526003602052604081208054839290610618908490610a3e565b9091555050604051339082156108fc029083906000818181858888f1935050505015801561064a573d6000803e3d6000fd5b5060405181815233907f7fcf532c15f0a6db0bd6d0e038bea71d30d808c7d98cb3bf7268a95bf5081b659060200160405180910390a250565b6005546000906001600160a01b031633146106b95760405162461bcd60e51b81526004016106b090610a51565b60405180910390fd5b6001600160a01b038316600090815260036020526040812080548492906106e19084906109f1565b90915550506040518281526001600160a01b038416906000907fddf252ad1be2c89b69c2b068fc378daa952ba7f163c4a11628f55a4df523b3ef90602001610447565b6005546001600160a01b0316331461074e5760405162461bcd60e51b81526004016106b090610a51565b6005546040516000916001600160a01b0316907f8be0079c531659141344cd1fd0a4f28419497f9722a3daafe3b4186f6b6457e0908390a3600580546001600160a01b0319169055565b6001805461036b90610a04565b60006107b2338484610459565b9392505050565b6005546001600160a01b031633146107e35760405162461bcd60e51b81526004016106b090610a51565b6001600160a01b0381166108485760405162461bcd60e51b815260206004820152602660248201527f4f776e61626c653a206e6577206f776e657220697320746865207a65726f206160448201526564647265737360d01b60648201526084016106b0565b6005546040516001600160a01b038084169216907f8be0079c531659141344cd1fd0a4f28419497f9722a3daafe3b4186f6b6457e090600090a3600580546001600160a01b0319166001600160a01b0392909216919091179055565b600060208083528351808285015260005b818110156108d1578581018301518582016040015282016108b5565b506000604082860101526040601f19601f8301168501019250505092915050565b80356001600160a01b038116811461090957600080fd5b919050565b6000806040838503121561092157600080fd5b61092a836108f2565b946020939093013593505050565b60008060006060848603121561094d57600080fd5b610956846108f2565b9250610964602085016108f2565b9150604084013590509250925092565b60006020828403121561098657600080fd5b5035919050565b60006020828403121561099f57600080fd5b6107b2826108f2565b600080604083850312156109bb57600080fd5b6109c4836108f2565b91506109d2602084016108f2565b90509250929050565b634e487b7160e01b600052601160045260246000fd5b80820180821115610453576104536109db565b600181811c90821680610a1857607f821691505b602082108103610a3857634e487b7160e01b600052602260045260246000fd5b50919050565b81810381811115610453576104536109db565b6020808252818101527f4f776e61626c653a2063616c6c6572206973206e6f7420746865206f776e657260408201526060019056fea2646970667358221220e72b46a1d2688be4bcea1f52e25707c42a834841e72aaf4e1e13be26d8cbaa9b64736f6c634300081400338be0079c531659141344cd1fd0a4f28419497f9722a3daafe3b4186f6b6457e0",
  "devdoc": {
    "kind": "dev",
    "methods": {
      "owner()": {
        "details": "Returns the address of the current owner."
      },
      "renounceOwnership()": {
        "details": "Leaves the contract without owner. It will not be possible to call `onlyOwner` functions anymore. Can only be called by the current owner. NOTE: Renouncing ownership will leave the contract without an owner, thereby removing any functionality that is only available to the owner."
      },
      "transferOwnership(address)": {
        "details": "Transfers ownership of the contract to a new account (`newOwner`). Can only be called by the current owner."
      }
    },
    "version": 1
  },
  "userdoc": {
    "kind": "user",
    "methods": {},
    "version": 1
  },
  "storageLayout": {
    "storage": [
      {
        "astId": 3109,
        "contract": "contracts/periphery/mocks/WETH9Mock.sol:WETH9Mock",
        "label": "name",
        "offset": 0,
        "slot": "0",
        "type": "t_string_storage"
      },
      {
        "astId": 3112,
        "contract": "contracts/periphery/mocks/WETH9Mock.sol:WETH9Mock",
        "label": "symbol",
        "offset": 0,
        "slot": "1",
        "type": "t_string_storage"
      },
      {
        "astId": 3115,
        "contract": "contracts/periphery/mocks/WETH9Mock.sol:WETH9Mock",
        "label": "decimals",
        "offset": 0,
        "slot": "2",
        "type": "t_uint8"
      },
      {
        "astId": 3147,
        "contract": "contracts/periphery/mocks/WETH9Mock.sol:WETH9Mock",
        "label": "balanceOf",
        "offset": 0,
        "slot": "3",
        "type": "t_mapping(t_address,t_uint256)"
      },
      {
        "astId": 3153,
        "contract": "contracts/periphery/mocks/WETH9Mock.sol:WETH9Mock",
        "label": "allowance",
        "offset": 0,
        "slot": "4",
        "type": "t_mapping(t_address,t_mapping(t_address,t_uint256))"
      },
      {
        "astId": 1472,
        "contract": "contracts/periphery/mocks/WETH9Mock.sol:WETH9Mock",
        "label": "_owner",
        "offset": 0,
        "slot": "5",
        "type": "t_address"
      }
    ],
    "types": {
      "t_address": {
        "encoding": "inplace",
        "label": "address",
        "numberOfBytes": "20"
      },
      "t_mapping(t_address,t_mapping(t_address,t_uint256))": {
        "encoding": "mapping",
        "key": "t_address",
        "label": "mapping(address => mapping(address => uint256))",
        "numberOfBytes": "32",
        "value": "t_mapping(t_address,t_uint256)"
      },
      "t_mapping(t_address,t_uint256)": {
        "encoding": "mapping",
        "key": "t_address",
        "label": "mapping(address => uint256)",
        "numberOfBytes": "32",
        "value": "t_uint256"
      },
      "t_string_storage": {
        "encoding": "bytes",
        "label": "string",
        "numberOfBytes": "32"
      },
      "t_uint256": {
        "encoding": "inplace",
        "label": "uint256",
        "numberOfBytes": "32"
      },
      "t_uint8": {
        "encoding": "inplace",
        "label": "uint8",
        "numberOfBytes": "1"
      }
    }
  }
}