{
  "address": "0x8A791620dd6260079BF849Dc5567aDC3F2FdC318",
  "abi": [
    {
      "inputs": [
        {
          "internalType": "string",
          "name": "name",
          "type": "string"
        },
        {
          "internalType": "string",
          "name": "symbol",
          "type": "string"
        },
        {
          "internalType": "uint8",
          "name": "decimals",
          "type": "uint8"
        },
        {
          "internalType": "address",
          "name": "owner",
          "type": "address"
        }
      ],
      "stateMutability": "nonpayable",
      "type": "constructor"
    },
    {
      "anonymous": false,
      "inputs": [
        {
          "indexed": true,
          "internalType": "address",
          "name": "owner",
          "type": "address"
        },
        {
          "indexed": true,
          "internalType": "address",
          "name": "spender",
          "type": "address"
        },
        {
          "indexed": false,
          "internalType": "uint256",
          "name": "value",
          "type": "uint256"
        }
      ],
      "name": "Approval",
      "type": "event"
    },
    {
      "anonymous": false,
      "inputs": [
        {
          "indexed": true,
          "internalType": "address",
          "name": "previousOwner",
          "type": "address"
        },
        {
          "indexed": true,
          "internalType": "address",
          "name": "newOwner",
          "type": "address"
        }
      ],
      "name": "OwnershipTransferred",
      "type": "event"
    },
    {
      "anonymous": false,
      "inputs": [
        {
          "indexed": true,
          "internalType": "address",
          "name": "from",
          "type": "address"
        },
        {
          "indexed": true,
          "internalType": "address",
          "name": "to",
          "type": "address"
        },
        {
          "indexed": false,
          "internalType": "uint256",
          "name": "value",
          "type": "uint256"
        }
      ],
      "name": "Transfer",
      "type": "event"
    },
    {
      "inputs": [],
      "name": "DOMAIN_SEPARATOR",
      "outputs": [
        {
          "internalType": "bytes32",
          "name": "",
          "type": "bytes32"
        }
      ],
      "stateMutability": "view",
      "type": "function"
    },
    {
      "inputs": [],
      "name": "EIP712_REVISION",
      "outputs": [
        {
          "internalType": "bytes",
          "name": "",
          "type": "bytes"
        }
      ],
      "stateMutability": "view",
      "type": "function"
    },
    {
      "inputs": [],
      "name": "PERMIT_TYPEHASH",
      "outputs": [
        {
          "internalType": "bytes32",
          "name": "",
          "type": "bytes32"
        }
      ],
      "stateMutability": "view",
      "type": "function"
    },
    {
      "inputs": [
        {
          "internalType": "address",
          "name": "owner",
          "type": "address"
        },
        {
          "internalType": "address",
          "name": "spender",
          "type": "address"
        }
      ],
      "name": "allowance",
      "outputs": [
        {
          "internalType": "uint256",
          "name": "",
          "type": "uint256"
        }
      ],
      "stateMutability": "view",
      "type": "function"
    },
    {
      "inputs": [
        {
          "internalType": "address",
          "name": "spender",
          "type": "address"
        },
        {
          "internalType": "uint256",
          "name": "amount",
          "type": "uint256"
        }
      ],
      "name": "approve",
      "outputs": [
        {
          "internalType": "bool",
          "name": "",
          "type": "bool"
        }
      ],
      "stateMutability": "nonpayable",
      "type": "function"
    },
    {
      "inputs": [
        {
          "internalType": "address",
          "name": "account",
          "type": "address"
        }
      ],
      "name": "balanceOf",
      "outputs": [
        {
          "internalType": "uint256",
          "name": "",
          "type": "uint256"
        }
      ],
      "stateMutability": "view",
      "type": "function"
    },
    {
      "inputs": [],
      "name": "decimals",
      "outputs": [
        {
          "internalType": "uint8",
          "name": "",
          "type": "uint8"
        }
      ],
      "stateMutability": "view",
      "type": "function"
    },
    {
      "inputs": [
        {
          "internalType": "address",
          "name": "spender",
          "type": "address"
        },
        {
          "internalType": "uint256",
          "name": "subtractedValue",
          "type": "uint256"
        }
      ],
      "name": "decreaseAllowance",
      "outputs": [
        {
          "internalType": "bool",
          "name": "",
          "type": "bool"
        }
      ],
      "stateMutability": "nonpayable",
      "type": "function"
    },
    {
      "inputs": [
        {
          "internalType": "address",
          "name": "spender",
          "type": "address"
        },
        {
          "internalType": "uint256",
          "name": "addedValue",
          "type": "uint256"
        }
      ],
      "name": "increaseAllowance",
      "outputs": [
        {
          "internalType": "bool",
          "name": "",
          "type": "bool"
        }
      ],
      "stateMutability": "nonpayable",
      "type": "function"
    },
    {
      "inputs": [
        {
          "internalType": "address",
          "name": "account",
          "type": "address"
        },
        {
          "internalType": "uint256",
          "name": "value",
          "type": "uint256"
        }
      ],
      "name": "mint",
      "outputs": [
        {
          "internalType": "bool",
          "name": "",
          "type": "bool"
        }
      ],
      "stateMutability": "nonpayable",
      "type": "function"
    },
    {
      "inputs": [
        {
          "internalType": "uint256",
          "name": "value",
          "type": "uint256"
        }
      ],
      "name": "mint",
      "outputs": [
        {
          "internalType": "bool",
          "name": "",
          "type": "bool"
        }
      ],
      "stateMutability": "nonpayable",
      "type": "function"
    },
    {
      "inputs": [],
      "name": "name",
      "outputs": [
        {
          "internalType": "string",
          "name": "",
          "type": "string"
        }
      ],
      "stateMutability": "view",
      "type": "function"
    },
    {
      "inputs": [
        {
          "internalType": "address",
          "name": "owner",
          "type": "address"
        }
      ],
      "name": "nonces",
      "outputs": [
        {
          "internalType": "uint256",
          "name": "",
          "type": "uint256"
        }
      ],
      "stateMutability": "view",
      "type": "function"
    },
    {
      "inputs": [],
      "name": "owner",
      "outputs": [
        {
          "internalType": "address",
          "name": "",
          "type": "address"
        }
      ],
      "stateMutability": "view",
      "type": "function"
    },
    {
      "inputs": [
        {
          "internalType": "address",
          "name": "owner",
          "type": "address"
        },
        {
          "internalType": "address",
          "name": "spender",
          "type": "address"
        },
        {
          "internalType": "uint256",
          "name": "value",
          "type": "uint256"
        },
        {
          "internalType": "uint256",
          "name": "deadline",
          "type": "uint256"
        },
        {
          "internalType": "uint8",
          "name": "v",
          "type": "uint8"
        },
        {
          "internalType": "bytes32",
          "name": "r",
          "type": "bytes32"
        },
        {
          "internalType": "bytes32",
          "name": "s",
          "type": "bytes32"
        }
      ],
      "name": "permit",
      "outputs": [],
      "stateMutability": "nonpayable",
      "type": "function"
    },
    {
      "inputs": [],
      "name": "renounceOwnership",
      "outputs": [],
      "stateMutability": "nonpayable",
      "type": "function"
    },
    {
      "inputs": [],
      "name": "symbol",
      "outputs": [
        {
          "internalType": "string",
          "name": "",
          "type": "string"
        }
      ],
      "stateMutability": "view",
      "type": "function"
    },
    {
      "inputs": [],
      "name": "totalSupply",
      "outputs": [
        {
          "internalType": "uint256",
          "name": "",
          "type": "uint256"
        }
      ],
      "stateMutability": "view",
      "type": "function"
    },
    {
      "inputs": [
        {
          "internalType": "address",
          "name": "recipient",
          "type": "address"
        },
        {
          "internalType": "uint256",
          "name": "amount",
          "type": "uint256"
        }
      ],
      "name": "transfer",
      "outputs": [
        {
          "internalType": "bool",
          "name": "",
          "type": "bool"
        }
      ],
      "stateMutability": "nonpayable",
      "type": "function"
    },
    {
      "inputs": [
        {
          "internalType": "address",
          "name": "sender",
          "type": "address"
        },
        {
          "internalType": "address",
          "name": "recipient",
          "type": "address"
        },
        {
          "internalType": "uint256",
          "name": "amount",
          "type": "uint256"
        }
      ],
      "name": "transferFrom",
      "outputs": [
        {
          "internalType": "bool",
          "name": "",
          "type": "bool"
        }
      ],
      "stateMutability": "nonpayable",
      "type": "function"
    },
    {
      "inputs": [
        {
          "internalType": "address",
          "name": "newOwner",
          "type": "address"
        }
      ],
      "name": "transferOwnership",
      "outputs": [],
      "stateMutability": "nonpayable",
      "type": "function"
    }
  ],
  "transactionHash": "0x7177ba0f33362aa6e2045dffbdc3a26aa6708e74ca0379625aa2ec938b8db66b",
  "args": [
    "WETH",
    "WETH",
    "18",
    "0x5FC8d32690cc91D4c39d9d3abcBD16989F875707"
  ],
  "numDeployments": 1,
  "solcInputHash": "c351ce62b62f76bd5a8479a8f9cf6c24",
  "bytecode": "0x60806040523480156200001157600080fd5b506040516200159738038062001597833981016040819052620000349162000376565b83836003620000448382620004a9565b506004620000538282620004a9565b50506005805460ff191660121790555060006200006d3390565b60058054610100600160a81b0319166101006001600160a01b038416908102919091179091556040519192509060009060008051602062001577833981519152908290a350835160208086019190912060408051808201825260018152603160f81b9084015280517f8b73c3c69bb8fe3d512ecc4cf759cc79239f7b179b0ffacaa9a75d522b39400f938101939093528201527fc89efdaa54c0f20c7adf612882df0950f5a951637e0307cdcb4c672f298b8bc6606082015246608082018190523060a08301529060c00160408051808303601f1901815291905280516020909101206007556005805460ff851660ff199091161790556001600160a01b0382166200017857600080fd5b62000183826200018e565b505050505062000575565b6005546001600160a01b03610100909104163314620001f45760405162461bcd60e51b815260206004820181905260248201527f4f776e61626c653a2063616c6c6572206973206e6f7420746865206f776e657260448201526064015b60405180910390fd5b6001600160a01b0381166200025b5760405162461bcd60e51b815260206004820152602660248201527f4f776e61626c653a206e6577206f776e657220697320746865207a65726f206160448201526564647265737360d01b6064820152608401620001eb565b6005546040516001600160a01b0380841692610100900416906000805160206200157783398151915290600090a3600580546001600160a01b0390921661010002610100600160a81b0319909216919091179055565b634e487b7160e01b600052604160045260246000fd5b600082601f830112620002d957600080fd5b81516001600160401b0380821115620002f657620002f6620002b1565b604051601f8301601f19908116603f01168101908282118183101715620003215762000321620002b1565b816040528381526020925086838588010111156200033e57600080fd5b600091505b8382101562000362578582018301518183018401529082019062000343565b600093810190920192909252949350505050565b600080600080608085870312156200038d57600080fd5b84516001600160401b0380821115620003a557600080fd5b620003b388838901620002c7565b95506020870151915080821115620003ca57600080fd5b50620003d987828801620002c7565b935050604085015160ff81168114620003f157600080fd5b60608601519092506001600160a01b03811681146200040f57600080fd5b939692955090935050565b600181811c908216806200042f57607f821691505b6020821081036200045057634e487b7160e01b600052602260045260246000fd5b50919050565b601f821115620004a457600081815260208120601f850160051c810160208610156200047f5750805b601f850160051c820191505b81811015620004a0578281556001016200048b565b5050505b505050565b81516001600160401b03811115620004c557620004c5620002b1565b620004dd81620004d684546200041a565b8462000456565b602080601f831160018114620005155760008415620004fc5750858301515b600019600386901b1c1916600185901b178555620004a0565b600085815260208120601f198616915b82811015620005465788860151825594840194600190910190840162000525565b5085821015620005655787850151600019600388901b60f8161c191681555b5050505050600190811b01905550565b610ff280620005856000396000f3fe608060405234801561001057600080fd5b50600436106101375760003560e01c8063715018a6116100b8578063a0712d681161007c578063a0712d68146102ba578063a457c2d7146102cd578063a9059cbb146102e0578063d505accf146102f3578063dd62ed3e14610306578063f2fde38b1461033f57600080fd5b8063715018a61461023657806378160376146102405780637ecebe00146102605780638da5cb5b1461028957806395d89b41146102b257600080fd5b8063313ce567116100ff578063313ce567146101c95780633644e515146101de57806339509351146101e757806340c10f19146101fa57806370a082311461020d57600080fd5b806306fdde031461013c578063095ea7b31461015a57806318160ddd1461017d57806323b872dd1461018f57806330adf81f146101a2575b600080fd5b610144610352565b6040516101519190610d48565b60405180910390f35b61016d610168366004610d79565b6103e4565b6040519015158152602001610151565b6002545b604051908152602001610151565b61016d61019d366004610da3565b6103fb565b6101817f6e71edae12b1b97f4d1f60370fef10105fa2faae0126114a169c64845d6126c981565b60055460405160ff9091168152602001610151565b61018160075481565b61016d6101f5366004610d79565b610464565b61016d610208366004610d79565b61049a565b61018161021b366004610ddf565b6001600160a01b031660009081526020819052604090205490565b61023e6104e0565b005b610144604051806040016040528060018152602001603160f81b81525081565b61018161026e366004610ddf565b6001600160a01b031660009081526006602052604090205490565b60055461010090046001600160a01b03166040516001600160a01b039091168152602001610151565b610144610560565b61016d6102c8366004610dfa565b61056f565b61016d6102db366004610d79565b6105b5565b61016d6102ee366004610d79565b610604565b61023e610301366004610e13565b610611565b610181610314366004610e86565b6001600160a01b03918216600090815260016020908152604080832093909416825291909152205490565b61023e61034d366004610ddf565b610843565b60606003805461036190610eb9565b80601f016020809104026020016040519081016040528092919081815260200182805461038d90610eb9565b80156103da5780601f106103af576101008083540402835291602001916103da565b820191906000526020600020905b8154815290600101906020018083116103bd57829003601f168201915b5050505050905090565b60006103f133848461093f565b5060015b92915050565b6000610408848484610a64565b61045a843361045585604051806060016040528060288152602001610f70602891396001600160a01b038a1660009081526001602090815260408083203384529091529020549190610be7565b61093f565b5060019392505050565b3360008181526001602090815260408083206001600160a01b038716845290915281205490916103f19185906104559086610c14565b6005546000906001600160a01b036101009091041633146104d65760405162461bcd60e51b81526004016104cd90610ef3565b60405180910390fd5b6103f18383610c24565b6005546001600160a01b036101009091041633146105105760405162461bcd60e51b81526004016104cd90610ef3565b60055460405160009161010090046001600160a01b0316907f8be0079c531659141344cd1fd0a4f28419497f9722a3daafe3b4186f6b6457e0908390a360058054610100600160a81b0319169055565b60606004805461036190610eb9565b6005546000906001600160a01b036101009091041633146105a25760405162461bcd60e51b81526004016104cd90610ef3565b6105ac3383610c24565b5060015b919050565b60006103f1338461045585604051806060016040528060258152602001610f98602591393360009081526001602090815260408083206001600160a01b038d1684529091529020549190610be7565b60006103f1338484610a64565b6001600160a01b0387166106575760405162461bcd60e51b815260206004820152600d60248201526c24a72b20a624a22fa7aba722a960991b60448201526064016104cd565b8342111561069c5760405162461bcd60e51b815260206004820152601260248201527124a72b20a624a22fa2ac2824a920aa24a7a760711b60448201526064016104cd565b6001600160a01b0387811660008181526006602090815260408083205460075482517f6e71edae12b1b97f4d1f60370fef10105fa2faae0126114a169c64845d6126c98186015280840196909652958c166060860152608085018b905260a0850181905260c08086018b90528251808703909101815260e086019092528151919092012061190160f01b610100850152610102840194909452610122830193909352906101420160408051601f1981840301815282825280516020918201206000845290830180835281905260ff8816918301919091526060820186905260808201859052915060019060a0016020604051602081039080840390855afa1580156107ab573d6000803e3d6000fd5b505050602060405103516001600160a01b0316896001600160a01b0316146108095760405162461bcd60e51b8152602060048201526011602482015270494e56414c49445f5349474e415455524560781b60448201526064016104cd565b610814826001610f28565b6001600160a01b038a1660009081526006602052604090205561083889898961093f565b505050505050505050565b6005546001600160a01b036101009091041633146108735760405162461bcd60e51b81526004016104cd90610ef3565b6001600160a01b0381166108d85760405162461bcd60e51b815260206004820152602660248201527f4f776e61626c653a206e6577206f776e657220697320746865207a65726f206160448201526564647265737360d01b60648201526084016104cd565b6005546040516001600160a01b0380841692610100900416907f8be0079c531659141344cd1fd0a4f28419497f9722a3daafe3b4186f6b6457e090600090a3600580546001600160a01b0390921661010002610100600160a81b0319909216919091179055565b6001600160a01b0383166109a15760405162461bcd60e51b8152602060048201526024808201527f45524332303a20617070726f76652066726f6d20746865207a65726f206164646044820152637265737360e01b60648201526084016104cd565b6001600160a01b038216610a025760405162461bcd60e51b815260206004820152602260248201527f45524332303a20617070726f766520746f20746865207a65726f206164647265604482015261737360f01b60648201526084016104cd565b6001600160a01b0383811660008181526001602090815260408083209487168084529482529182902085905590518481527f8c5be1e5ebec7d5bd14f71427d1e84f3dd0314c0f7b2291e5b200ac8c7c3b92591015b60405180910390a3505050565b6001600160a01b038316610ac85760405162461bcd60e51b815260206004820152602560248201527f45524332303a207472616e736665722066726f6d20746865207a65726f206164604482015264647265737360d81b60648201526084016104cd565b6001600160a01b038216610b2a5760405162461bcd60e51b815260206004820152602360248201527f45524332303a207472616e7366657220746f20746865207a65726f206164647260448201526265737360e81b60648201526084016104cd565b610b6781604051806060016040528060268152602001610f4a602691396001600160a01b0386166000908152602081905260409020549190610be7565b6001600160a01b038085166000908152602081905260408082209390935590841681522054610b969082610c14565b6001600160a01b038381166000818152602081815260409182902094909455518481529092918616917fddf252ad1be2c89b69c2b068fc378daa952ba7f163c4a11628f55a4df523b3ef9101610a57565b8183038184821115610c0c5760405162461bcd60e51b81526004016104cd9190610d48565b509392505050565b808201828110156103f557600080fd5b6001600160a01b038216610c7a5760405162461bcd60e51b815260206004820152601f60248201527f45524332303a206d696e7420746f20746865207a65726f20616464726573730060448201526064016104cd565b600254610c879082610c14565b6002556001600160a01b038216600090815260208190526040902054610cad9082610c14565b6001600160a01b038316600081815260208181526040808320949094559251848152919290917fddf252ad1be2c89b69c2b068fc378daa952ba7f163c4a11628f55a4df523b3ef910160405180910390a35050565b6000815180845260005b81811015610d2857602081850181015186830182015201610d0c565b506000602082860101526020601f19601f83011685010191505092915050565b602081526000610d5b6020830184610d02565b9392505050565b80356001600160a01b03811681146105b057600080fd5b60008060408385031215610d8c57600080fd5b610d9583610d62565b946020939093013593505050565b600080600060608486031215610db857600080fd5b610dc184610d62565b9250610dcf60208501610d62565b9150604084013590509250925092565b600060208284031215610df157600080fd5b610d5b82610d62565b600060208284031215610e0c57600080fd5b5035919050565b600080600080600080600060e0888a031215610e2e57600080fd5b610e3788610d62565b9650610e4560208901610d62565b95506040880135945060608801359350608088013560ff81168114610e6957600080fd5b9699959850939692959460a0840135945060c09093013592915050565b60008060408385031215610e9957600080fd5b610ea283610d62565b9150610eb060208401610d62565b90509250929050565b600181811c90821680610ecd57607f821691505b602082108103610eed57634e487b7160e01b600052602260045260246000fd5b50919050565b6020808252818101527f4f776e61626c653a2063616c6c6572206973206e6f7420746865206f776e6572604082015260600190565b808201808211156103f557634e487b7160e01b600052601160045260246000fdfe45524332303a207472616e7366657220616d6f756e7420657863656564732062616c616e636545524332303a207472616e7366657220616d6f756e74206578636565647320616c6c6f77616e636545524332303a2064656372656173656420616c6c6f77616e63652062656c6f77207a65726fa2646970667358221220da9b3e58dae16580af7a29f504a0746bbf4832f5c76b80359a87dab733644d0064736f6c634300081400338be0079c531659141344cd1fd0a4f28419497f9722a3daafe3b4186f6b6457e0",
  "devdoc": {
    "details": "ERC20 minting logic",
    "events": {
      "Approval(address,address,uint256)": {
        "details": "Emitted when the allowance of a `spender` for an `owner` is set by a call to {approve}. `value` is the new allowance."
      },
      "Transfer(address,address,uint256)": {
        "details": "Emitted when `value` tokens are moved from one account (`from`) to another (`to`). Note that `value` may be zero."
      }
    },
    "kind": "dev",
    "methods": {
      "allowance(address,address)": {
        "details": "See {IERC20-allowance}."
      },
      "approve(address,uint256)": {
        "details": "See {IERC20-approve}. Requirements: - `spender` cannot be the zero address."
      },
      "balanceOf(address)": {
        "details": "See {IERC20-balanceOf}."
      },
      "decimals()": {
        "details": "Returns the number of decimals used to get its user representation. For example, if `decimals` equals `2`, a balance of `505` tokens should be displayed to a user as `5,05` (`505 / 10 ** 2`). Tokens usually opt for a value of 18, imitating the relationship between Ether and Wei. This is the value {ERC20} uses, unless {_setupDecimals} is called. NOTE: This information is only used for _display_ purposes: it in no way affects any of the arithmetic of the contract, including {IERC20-balanceOf} and {IERC20-transfer}."
      },
      "decreaseAllowance(address,uint256)": {
        "details": "Atomically decreases the allowance granted to `spender` by the caller. This is an alternative to {approve} that can be used as a mitigation for problems described in {IERC20-approve}. Emits an {Approval} event indicating the updated allowance. Requirements: - `spender` cannot be the zero address. - `spender` must have allowance for the caller of at least `subtractedValue`."
      },
      "increaseAllowance(address,uint256)": {
        "details": "Atomically increases the allowance granted to `spender` by the caller. This is an alternative to {approve} that can be used as a mitigation for problems described in {IERC20-approve}. Emits an {Approval} event indicating the updated allowance. Requirements: - `spender` cannot be the zero address."
      },
      "mint(address,uint256)": {
        "details": "Function to mint tokens to address",
        "params": {
          "account": "The account to mint tokens.",
          "value": "The amount of tokens to mint."
        },
        "returns": {
          "_0": "A boolean that indicates if the operation was successful."
        }
      },
      "mint(uint256)": {
        "details": "Function to mint tokens",
        "params": {
          "value": "The amount of tokens to mint."
        },
        "returns": {
          "_0": "A boolean that indicates if the operation was successful."
        }
      },
      "name()": {
        "details": "Returns the name of the token."
      },
      "owner()": {
        "details": "Returns the address of the current owner."
      },
      "permit(address,address,uint256,uint256,uint8,bytes32,bytes32)": {
        "details": "implements the permit function as for https://github.com/ethereum/EIPs/blob/8a34d644aacf0f9f8f00815307fd7dd5da07655f/EIPS/eip-2612.md",
        "params": {
          "deadline": "The deadline timestamp, type(uint256).max for max deadline",
          "owner": "The owner of the funds",
          "r": "Signature param",
          "s": "Signature param",
          "spender": "The spender",
          "v": "Signature param",
          "value": "The amount"
        }
      },
      "renounceOwnership()": {
        "details": "Leaves the contract without owner. It will not be possible to call `onlyOwner` functions anymore. Can only be called by the current owner. NOTE: Renouncing ownership will leave the contract without an owner, thereby removing any functionality that is only available to the owner."
      },
      "symbol()": {
        "details": "Returns the symbol of the token, usually a shorter version of the name."
      },
      "totalSupply()": {
        "details": "See {IERC20-totalSupply}."
      },
      "transfer(address,uint256)": {
        "details": "See {IERC20-transfer}. Requirements: - `recipient` cannot be the zero address. - the caller must have a balance of at least `amount`."
      },
      "transferFrom(address,address,uint256)": {
        "details": "See {IERC20-transferFrom}. Emits an {Approval} event indicating the updated allowance. This is not required by the EIP. See the note at the beginning of {ERC20}; Requirements: - `sender` and `recipient` cannot be the zero address. - `sender` must have a balance of at least `amount`. - the caller must have allowance for ``sender``'s tokens of at least `amount`."
      },
      "transferOwnership(address)": {
        "details": "Transfers ownership of the contract to a new account (`newOwner`). Can only be called by the current owner."
      }
    },
    "title": "TestnetERC20",
    "version": 1
  },
  "userdoc": {
    "kind": "user",
    "methods": {
      "permit(address,address,uint256,uint256,uint8,bytes32,bytes32)": {
        "notice": "Allow passing a signed message to approve spending"
      }
    },
    "version": 1
  },
  "storageLayout": {
    "storage": [
      {
        "astId": 793,
        "contract": "contracts/periphery/mocks/testnet-helpers/TestnetERC20.sol:TestnetERC20",
        "label": "_balances",
        "offset": 0,
        "slot": "0",
        "type": "t_mapping(t_address,t_uint256)"
      },
      {
        "astId": 799,
        "contract": "contracts/periphery/mocks/testnet-helpers/TestnetERC20.sol:TestnetERC20",
        "label": "_allowances",
        "offset": 0,
        "slot": "1",
        "type": "t_mapping(t_address,t_mapping(t_address,t_uint256))"
      },
      {
        "astId": 801,
        "contract": "contracts/periphery/mocks/testnet-helpers/TestnetERC20.sol:TestnetERC20",
        "label": "_totalSupply",
        "offset": 0,
        "slot": "2",
        "type": "t_uint256"
      },
      {
        "astId": 803,
        "contract": "contracts/periphery/mocks/testnet-helpers/TestnetERC20.sol:TestnetERC20",
        "label": "_name",
        "offset": 0,
        "slot": "3",
        "type": "t_string_storage"
      },
      {
        "astId": 805,
        "contract": "contracts/periphery/mocks/testnet-helpers/TestnetERC20.sol:TestnetERC20",
        "label": "_symbol",
        "offset": 0,
        "slot": "4",
        "type": "t_string_storage"
      },
      {
        "astId": 807,
        "contract": "contracts/periphery/mocks/testnet-helpers/TestnetERC20.sol:TestnetERC20",
        "label": "_decimals",
        "offset": 0,
        "slot": "5",
        "type": "t_uint8"
      },
      {
        "astId": 1472,
        "contract": "contracts/periphery/mocks/testnet-helpers/TestnetERC20.sol:TestnetERC20",
        "label": "_owner",
        "offset": 1,
        "slot": "5",
        "type": "t_address"
      },
      {
        "astId": 17692,
        "contract": "contracts/periphery/mocks/testnet-helpers/TestnetERC20.sol:TestnetERC20",
        "label": "_nonces",
        "offset": 0,
        "slot": "6",
        "type": "t_mapping(t_address,t_uint256)"
      },
      {
        "astId": 17694,
        "contract": "contracts/periphery/mocks/testnet-helpers/TestnetERC20.sol:TestnetERC20",
        "label": "DOMAIN_SEPARATOR",
        "offset": 0,
        "slot": "7",
        "type": "t_bytes32"
      }
    ],
    "types": {
      "t_address": {
        "encoding": "inplace",
        "label": "address",
        "numberOfBytes": "20"
      },
      "t_bytes32": {
        "encoding": "inplace",
        "label": "bytes32",
        "numberOfBytes": "32"
      },
      "t_mapping(t_address,t_mapping(t_address,t_uint256))": {
        "encoding": "mapping",
        "key": "t_address",
        "label": "mapping(address => mapping(address => uint256))",
        "numberOfBytes": "32",
        "value": "t_mapping(t_address,t_uint256)"
      },
      "t_mapping(t_address,t_uint256)": {
        "encoding": "mapping",
        "key": "t_address",
        "label": "mapping(address => uint256)",
        "numberOfBytes": "32",
        "value": "t_uint256"
      },
      "t_string_storage": {
        "encoding": "bytes",
        "label": "string",
        "numberOfBytes": "32"
      },
      "t_uint256": {
        "encoding": "inplace",
        "label": "uint256",
        "numberOfBytes": "32"
      },
      "t_uint8": {
        "encoding": "inplace",
        "label": "uint8",
        "numberOfBytes": "1"
      }
    }
  }
}