{
  "address": "0x8842De10B5B5674Da9AE98b42a456088dF432aA9",
  "abi": [
    {
      "inputs": [
        {
          "internalType": "contract IPool",
          "name": "pool",
          "type": "address"
        }
      ],
      "stateMutability": "nonpayable",
      "type": "constructor"
    },
    {
      "anonymous": false,
      "inputs": [
        {
          "indexed": true,
          "internalType": "address",
          "name": "owner",
          "type": "address"
        },
        {
          "indexed": true,
          "internalType": "address",
          "name": "spender",
          "type": "address"
        },
        {
          "indexed": false,
          "internalType": "uint256",
          "name": "value",
          "type": "uint256"
        }
      ],
      "name": "Approval",
      "type": "event"
    },
    {
      "anonymous": false,
      "inputs": [
        {
          "indexed": true,
          "internalType": "address",
          "name": "fromUser",
          "type": "address"
        },
        {
          "indexed": true,
          "internalType": "address",
          "name": "toUser",
          "type": "address"
        },
        {
          "indexed": true,
          "internalType": "address",
          "name": "asset",
          "type": "address"
        },
        {
          "indexed": false,
          "internalType": "uint256",
          "name": "amount",
          "type": "uint256"
        }
      ],
      "name": "BorrowAllowanceDelegated",
      "type": "event"
    },
    {
      "anonymous": false,
      "inputs": [
        {
          "indexed": true,
          "internalType": "address",
          "name": "from",
          "type": "address"
        },
        {
          "indexed": true,
          "internalType": "address",
          "name": "target",
          "type": "address"
        },
        {
          "indexed": false,
          "internalType": "uint256",
          "name": "value",
          "type": "uint256"
        },
        {
          "indexed": false,
          "internalType": "uint256",
          "name": "balanceIncrease",
          "type": "uint256"
        },
        {
          "indexed": false,
          "internalType": "uint256",
          "name": "index",
          "type": "uint256"
        }
      ],
      "name": "Burn",
      "type": "event"
    },
    {
      "anonymous": false,
      "inputs": [
        {
          "indexed": true,
          "internalType": "address",
          "name": "underlyingAsset",
          "type": "address"
        },
        {
          "indexed": true,
          "internalType": "address",
          "name": "pool",
          "type": "address"
        },
        {
          "indexed": false,
          "internalType": "address",
          "name": "incentivesController",
          "type": "address"
        },
        {
          "indexed": false,
          "internalType": "uint8",
          "name": "debtTokenDecimals",
          "type": "uint8"
        },
        {
          "indexed": false,
          "internalType": "string",
          "name": "debtTokenName",
          "type": "string"
        },
        {
          "indexed": false,
          "internalType": "string",
          "name": "debtTokenSymbol",
          "type": "string"
        },
        {
          "indexed": false,
          "internalType": "bytes",
          "name": "params",
          "type": "bytes"
        }
      ],
      "name": "Initialized",
      "type": "event"
    },
    {
      "anonymous": false,
      "inputs": [
        {
          "indexed": true,
          "internalType": "address",
          "name": "caller",
          "type": "address"
        },
        {
          "indexed": true,
          "internalType": "address",
          "name": "onBehalfOf",
          "type": "address"
        },
        {
          "indexed": false,
          "internalType": "uint256",
          "name": "value",
          "type": "uint256"
        },
        {
          "indexed": false,
          "internalType": "uint256",
          "name": "balanceIncrease",
          "type": "uint256"
        },
        {
          "indexed": false,
          "internalType": "uint256",
          "name": "index",
          "type": "uint256"
        }
      ],
      "name": "Mint",
      "type": "event"
    },
    {
      "anonymous": false,
      "inputs": [
        {
          "indexed": true,
          "internalType": "address",
          "name": "from",
          "type": "address"
        },
        {
          "indexed": true,
          "internalType": "address",
          "name": "to",
          "type": "address"
        },
        {
          "indexed": false,
          "internalType": "uint256",
          "name": "value",
          "type": "uint256"
        }
      ],
      "name": "Transfer",
      "type": "event"
    },
    {
      "inputs": [],
      "name": "DEBT_TOKEN_REVISION",
      "outputs": [
        {
          "internalType": "uint256",
          "name": "",
          "type": "uint256"
        }
      ],
      "stateMutability": "view",
      "type": "function"
    },
    {
      "inputs": [],
      "name": "DELEGATION_WITH_SIG_TYPEHASH",
      "outputs": [
        {
          "internalType": "bytes32",
          "name": "",
          "type": "bytes32"
        }
      ],
      "stateMutability": "view",
      "type": "function"
    },
    {
      "inputs": [],
      "name": "DOMAIN_SEPARATOR",
      "outputs": [
        {
          "internalType": "bytes32",
          "name": "",
          "type": "bytes32"
        }
      ],
      "stateMutability": "view",
      "type": "function"
    },
    {
      "inputs": [],
      "name": "EIP712_REVISION",
      "outputs": [
        {
          "internalType": "bytes",
          "name": "",
          "type": "bytes"
        }
      ],
      "stateMutability": "view",
      "type": "function"
    },
    {
      "inputs": [],
      "name": "POOL",
      "outputs": [
        {
          "internalType": "contract IPool",
          "name": "",
          "type": "address"
        }
      ],
      "stateMutability": "view",
      "type": "function"
    },
    {
      "inputs": [],
      "name": "UNDERLYING_ASSET_ADDRESS",
      "outputs": [
        {
          "internalType": "address",
          "name": "",
          "type": "address"
        }
      ],
      "stateMutability": "view",
      "type": "function"
    },
    {
      "inputs": [
        {
          "internalType": "address",
          "name": "",
          "type": "address"
        },
        {
          "internalType": "address",
          "name": "",
          "type": "address"
        }
      ],
      "name": "allowance",
      "outputs": [
        {
          "internalType": "uint256",
          "name": "",
          "type": "uint256"
        }
      ],
      "stateMutability": "view",
      "type": "function"
    },
    {
      "inputs": [
        {
          "internalType": "address",
          "name": "",
          "type": "address"
        },
        {
          "internalType": "uint256",
          "name": "",
          "type": "uint256"
        }
      ],
      "name": "approve",
      "outputs": [
        {
          "internalType": "bool",
          "name": "",
          "type": "bool"
        }
      ],
      "stateMutability": "nonpayable",
      "type": "function"
    },
    {
      "inputs": [
        {
          "internalType": "address",
          "name": "delegatee",
          "type": "address"
        },
        {
          "internalType": "uint256",
          "name": "amount",
          "type": "uint256"
        }
      ],
      "name": "approveDelegation",
      "outputs": [],
      "stateMutability": "nonpayable",
      "type": "function"
    },
    {
      "inputs": [
        {
          "internalType": "address",
          "name": "user",
          "type": "address"
        }
      ],
      "name": "balanceOf",
      "outputs": [
        {
          "internalType": "uint256",
          "name": "",
          "type": "uint256"
        }
      ],
      "stateMutability": "view",
      "type": "function"
    },
    {
      "inputs": [
        {
          "internalType": "address",
          "name": "fromUser",
          "type": "address"
        },
        {
          "internalType": "address",
          "name": "toUser",
          "type": "address"
        }
      ],
      "name": "borrowAllowance",
      "outputs": [
        {
          "internalType": "uint256",
          "name": "",
          "type": "uint256"
        }
      ],
      "stateMutability": "view",
      "type": "function"
    },
    {
      "inputs": [
        {
          "internalType": "address",
          "name": "from",
          "type": "address"
        },
        {
          "internalType": "uint256",
          "name": "amount",
          "type": "uint256"
        },
        {
          "internalType": "uint256",
          "name": "index",
          "type": "uint256"
        }
      ],
      "name": "burn",
      "outputs": [
        {
          "internalType": "uint256",
          "name": "",
          "type": "uint256"
        }
      ],
      "stateMutability": "nonpayable",
      "type": "function"
    },
    {
      "inputs": [],
      "name": "decimals",
      "outputs": [
        {
          "internalType": "uint8",
          "name": "",
          "type": "uint8"
        }
      ],
      "stateMutability": "view",
      "type": "function"
    },
    {
      "inputs": [
        {
          "internalType": "address",
          "name": "",
          "type": "address"
        },
        {
          "internalType": "uint256",
          "name": "",
          "type": "uint256"
        }
      ],
      "name": "decreaseAllowance",
      "outputs": [
        {
          "internalType": "bool",
          "name": "",
          "type": "bool"
        }
      ],
      "stateMutability": "nonpayable",
      "type": "function"
    },
    {
      "inputs": [
        {
          "internalType": "address",
          "name": "delegator",
          "type": "address"
        },
        {
          "internalType": "address",
          "name": "delegatee",
          "type": "address"
        },
        {
          "internalType": "uint256",
          "name": "value",
          "type": "uint256"
        },
        {
          "internalType": "uint256",
          "name": "deadline",
          "type": "uint256"
        },
        {
          "internalType": "uint8",
          "name": "v",
          "type": "uint8"
        },
        {
          "internalType": "bytes32",
          "name": "r",
          "type": "bytes32"
        },
        {
          "internalType": "bytes32",
          "name": "s",
          "type": "bytes32"
        }
      ],
      "name": "delegationWithSig",
      "outputs": [],
      "stateMutability": "nonpayable",
      "type": "function"
    },
    {
      "inputs": [],
      "name": "getIncentivesController",
      "outputs": [
        {
          "internalType": "contract IIncentivesController",
          "name": "",
          "type": "address"
        }
      ],
      "stateMutability": "view",
      "type": "function"
    },
    {
      "inputs": [
        {
          "internalType": "address",
          "name": "user",
          "type": "address"
        }
      ],
      "name": "getPreviousIndex",
      "outputs": [
        {
          "internalType": "uint256",
          "name": "",
          "type": "uint256"
        }
      ],
      "stateMutability": "view",
      "type": "function"
    },
    {
      "inputs": [
        {
          "internalType": "address",
          "name": "user",
          "type": "address"
        }
      ],
      "name": "getScaledUserBalanceAndSupply",
      "outputs": [
        {
          "internalType": "uint256",
          "name": "",
          "type": "uint256"
        },
        {
          "internalType": "uint256",
          "name": "",
          "type": "uint256"
        }
      ],
      "stateMutability": "view",
      "type": "function"
    },
    {
      "inputs": [
        {
          "internalType": "address",
          "name": "",
          "type": "address"
        },
        {
          "internalType": "uint256",
          "name": "",
          "type": "uint256"
        }
      ],
      "name": "increaseAllowance",
      "outputs": [
        {
          "internalType": "bool",
          "name": "",
          "type": "bool"
        }
      ],
      "stateMutability": "nonpayable",
      "type": "function"
    },
    {
      "inputs": [
        {
          "internalType": "contract IPool",
          "name": "initializingPool",
          "type": "address"
        },
        {
          "internalType": "address",
          "name": "underlyingAsset",
          "type": "address"
        },
        {
          "internalType": "contract IIncentivesController",
          "name": "incentivesController",
          "type": "address"
        },
        {
          "internalType": "uint8",
          "name": "debtTokenDecimals",
          "type": "uint8"
        },
        {
          "internalType": "string",
          "name": "debtTokenName",
          "type": "string"
        },
        {
          "internalType": "string",
          "name": "debtTokenSymbol",
          "type": "string"
        },
        {
          "internalType": "bytes",
          "name": "params",
          "type": "bytes"
        }
      ],
      "name": "initialize",
      "outputs": [],
      "stateMutability": "nonpayable",
      "type": "function"
    },
    {
      "inputs": [
        {
          "internalType": "address",
          "name": "user",
          "type": "address"
        },
        {
          "internalType": "address",
          "name": "onBehalfOf",
          "type": "address"
        },
        {
          "internalType": "uint256",
          "name": "amount",
          "type": "uint256"
        },
        {
          "internalType": "uint256",
          "name": "index",
          "type": "uint256"
        }
      ],
      "name": "mint",
      "outputs": [
        {
          "internalType": "bool",
          "name": "",
          "type": "bool"
        },
        {
          "internalType": "uint256",
          "name": "",
          "type": "uint256"
        }
      ],
      "stateMutability": "nonpayable",
      "type": "function"
    },
    {
      "inputs": [],
      "name": "name",
      "outputs": [
        {
          "internalType": "string",
          "name": "",
          "type": "string"
        }
      ],
      "stateMutability": "view",
      "type": "function"
    },
    {
      "inputs": [
        {
          "internalType": "address",
          "name": "owner",
          "type": "address"
        }
      ],
      "name": "nonces",
      "outputs": [
        {
          "internalType": "uint256",
          "name": "",
          "type": "uint256"
        }
      ],
      "stateMutability": "view",
      "type": "function"
    },
    {
      "inputs": [
        {
          "internalType": "address",
          "name": "user",
          "type": "address"
        }
      ],
      "name": "scaledBalanceOf",
      "outputs": [
        {
          "internalType": "uint256",
          "name": "",
          "type": "uint256"
        }
      ],
      "stateMutability": "view",
      "type": "function"
    },
    {
      "inputs": [],
      "name": "scaledTotalSupply",
      "outputs": [
        {
          "internalType": "uint256",
          "name": "",
          "type": "uint256"
        }
      ],
      "stateMutability": "view",
      "type": "function"
    },
    {
      "inputs": [
        {
          "internalType": "contract IIncentivesController",
          "name": "controller",
          "type": "address"
        }
      ],
      "name": "setIncentivesController",
      "outputs": [],
      "stateMutability": "nonpayable",
      "type": "function"
    },
    {
      "inputs": [],
      "name": "symbol",
      "outputs": [
        {
          "internalType": "string",
          "name": "",
          "type": "string"
        }
      ],
      "stateMutability": "view",
      "type": "function"
    },
    {
      "inputs": [],
      "name": "totalSupply",
      "outputs": [
        {
          "internalType": "uint256",
          "name": "",
          "type": "uint256"
        }
      ],
      "stateMutability": "view",
      "type": "function"
    },
    {
      "inputs": [
        {
          "internalType": "address",
          "name": "",
          "type": "address"
        },
        {
          "internalType": "uint256",
          "name": "",
          "type": "uint256"
        }
      ],
      "name": "transfer",
      "outputs": [
        {
          "internalType": "bool",
          "name": "",
          "type": "bool"
        }
      ],
      "stateMutability": "nonpayable",
      "type": "function"
    },
    {
      "inputs": [
        {
          "internalType": "address",
          "name": "",
          "type": "address"
        },
        {
          "internalType": "address",
          "name": "",
          "type": "address"
        },
        {
          "internalType": "uint256",
          "name": "",
          "type": "uint256"
        }
      ],
      "name": "transferFrom",
      "outputs": [
        {
          "internalType": "bool",
          "name": "",
          "type": "bool"
        }
      ],
      "stateMutability": "nonpayable",
      "type": "function"
    }
  ],
  "numDeployments": 1,
  "solcInputHash": "c351ce62b62f76bd5a8479a8f9cf6c24",
  "bytecode": "0x60e0604052600080553480156200001557600080fd5b50604051620020a4380380620020a4833981016040819052620000389162000191565b806040518060400160405280601881526020017f5641524941424c455f444542545f544f4b454e5f494d504c00000000000000008152506040518060400160405280601881526020017f5641524941424c455f444542545f544f4b454e5f494d504c0000000000000000815250600083838383838383834660808181525050836001600160a01b0316630542975c6040518163ffffffff1660e01b8152600401602060405180830381865afa158015620000f6573d6000803e3d6000fd5b505050506040513d601f19601f820116820180604052508101906200011c919062000191565b6001600160a01b031660a052603b6200013684826200025d565b50603c6200014583826200025d565b50603d805460ff191660ff9290921691909117905550506001600160a01b031660c0525062000329975050505050505050565b6001600160a01b03811681146200018e57600080fd5b50565b600060208284031215620001a457600080fd5b8151620001b18162000178565b9392505050565b634e487b7160e01b600052604160045260246000fd5b600181811c90821680620001e357607f821691505b6020821081036200020457634e487b7160e01b600052602260045260246000fd5b50919050565b601f8211156200025857600081815260208120601f850160051c81016020861015620002335750805b601f850160051c820191505b8181101562000254578281556001016200023f565b5050505b505050565b81516001600160401b03811115620002795762000279620001b8565b62000291816200028a8454620001ce565b846200020a565b602080601f831160018114620002c95760008415620002b05750858301515b600019600386901b1c1916600185901b17855562000254565b600085815260208120601f198616915b82811015620002fa57888601518255948401946001909101908401620002d9565b5085821015620003195787850151600019600388901b60f8161c191681555b5050505050600190811b01905550565b60805160a05160c051611d216200038360003960008181610302015281816107e1015281816108ea0152818161099e01528181610ada01528181610ba90152610da901526000610c3d015260006108710152611d216000f3fe608060405234801561001057600080fd5b50600436106101da5760003560e01c80637ecebe0011610104578063b9a7b622116100a2578063e075398611610071578063e075398614610422578063e655dbd81461045b578063f3bfc7381461046e578063f5298aca1461049557600080fd5b8063b9a7b622146103e6578063c04a8a10146103ee578063c222ec8a14610401578063dd62ed3e1461041457600080fd5b8063a9059cbb116100de578063a9059cbb146101fd578063b16a19de146103a3578063b1bf962d146103b4578063b3f1c93d146103bc57600080fd5b80637ecebe001461037257806395d89b411461039b578063a457c2d7146101fd57600080fd5b8063313ce5671161017c57806370a082311161014b57806370a08231146102ea5780637535d246146102fd57806375d264131461033c578063781603761461035257600080fd5b8063313ce567146102945780633644e515146102a957806339509351146101fd5780636bd76d24146102b157600080fd5b80630b52d558116101b85780630b52d5581461024857806318160ddd1461025d5780631da24f3e1461027357806323b872dd1461028657600080fd5b806306fdde03146101df578063095ea7b3146101fd5780630afbcdc914610220575b600080fd5b6101e76104a8565b6040516101f49190611697565b60405180910390f35b61021061020b3660046116d2565b61053a565b60405190151581526020016101f4565b61023361022e3660046116fe565b610575565b604080519283526020830191909152016101f4565b61025b61025636600461172c565b61058d565b005b6102656107b8565b6040519081526020016101f4565b6102656102813660046116fe565b61085c565b61021061020b36600461179a565b603d5460405160ff90911681526020016101f4565b61026561086d565b6102656102bf3660046117db565b6001600160a01b03918216600090815260366020908152604080832093909416825291909152205490565b6102656102f83660046116fe565b6108a5565b6103247f000000000000000000000000000000000000000000000000000000000000000081565b6040516001600160a01b0390911681526020016101f4565b603d5461010090046001600160a01b0316610324565b6101e7604051806040016040528060018152602001603160f81b81525081565b6102656103803660046116fe565b6001600160a01b031660009081526034602052604090205490565b6101e7610963565b6037546001600160a01b0316610324565b610265610972565b6103cf6103ca366004611814565b61097d565b6040805192151583526020830191909152016101f4565b610265600181565b61025b6103fc3660046116d2565b610a2a565b61025b61040f366004611946565b610a39565b61026561020b3660046117db565b6102656104303660046116fe565b6001600160a01b0316600090815260386020526040902054600160801b90046001600160801b031690565b61025b6104693660046116fe565b610c39565b6102657f323db0410fecc107e39e2af5908671f4c8d106123b35a51501bb805c5fa36aa081565b6102656104a3366004611a1b565b610d8a565b6060603b80546104b790611a50565b80601f01602080910402602001604051908101604052809291908181526020018280546104e390611a50565b80156105305780601f1061050557610100808354040283529160200191610530565b820191906000526020600020905b81548152906001019060200180831161051357829003601f168201915b5050505050905090565b6040805180820182526002815261038360f41b6020820152905162461bcd60e51b815260009161056c91600401611697565b60405180910390fd5b60008061058183610e0d565b603a5491509150915091565b604080518082019091526002815261373760f01b60208201526001600160a01b0388166105cd5760405162461bcd60e51b815260040161056c9190611697565b50834211156040518060400160405280600281526020016106e760f31b8152509061060b5760405162461bcd60e51b815260040161056c9190611697565b506001600160a01b0387166000908152603460205260408120549061062e61086d565b604080517f323db0410fecc107e39e2af5908671f4c8d106123b35a51501bb805c5fa36aa060208201526001600160a01b038b1691810191909152606081018990526080810184905260a0810188905260c001604051602081830303815290604052805190602001206040516020016106be92919061190160f01b81526002810192909252602282015260420190565b60408051601f1981840301815282825280516020918201206000845290830180835281905260ff8816918301919091526060820186905260808201859052915060019060a0016020604051602081039080840390855afa158015610726573d6000803e3d6000fd5b505050602060405103516001600160a01b0316896001600160a01b03161460405180604001604052806002815260200161373960f01b8152509061077d5760405162461bcd60e51b815260040161056c9190611697565b50610789826001611aa0565b6001600160a01b038a166000908152603460205260409020556107ad898989610e31565b505050505050505050565b60375460405163386497fd60e01b81526001600160a01b039182166004820152600091610857917f00000000000000000000000000000000000000000000000000000000000000009091169063386497fd90602401602060405180830381865afa15801561082a573d6000803e3d6000fd5b505050506040513d601f19601f8201168201806040525081019061084e9190611ab3565b603a5490610e9b565b905090565b600061086782610e0d565b92915050565b60007f0000000000000000000000000000000000000000000000000000000000000000460361089d575060355490565b610857610edf565b6000806108b183610e0d565b9050806000036108c45750600092915050565b60375460405163386497fd60e01b81526001600160a01b03918216600482015261095c917f0000000000000000000000000000000000000000000000000000000000000000169063386497fd90602401602060405180830381865afa158015610931573d6000803e3d6000fd5b505050506040513d601f19601f820116820180604052508101906109559190611ab3565b8290610e9b565b9392505050565b6060603c80546104b790611a50565b6000610857603a5490565b604080518082019091526002815261323360f01b60208201526000908190337f00000000000000000000000000000000000000000000000000000000000000006001600160a01b0316146109e45760405162461bcd60e51b815260040161056c9190611697565b50846001600160a01b0316866001600160a01b031614610a0957610a09858786610f88565b610a158686868661102e565b610a1d610972565b9150915094509492505050565b610a35338383610e31565b5050565b6001805460ff1680610a4a5750303b155b80610a56575060005481115b610ab95760405162461bcd60e51b815260206004820152602e60248201527f436f6e747261637420696e7374616e63652068617320616c726561647920626560448201526d195b881a5b9a5d1a585b1a5e995960921b606482015260840161056c565b60015460ff16158015610ad8576001805460ff19168117905560008290555b7f00000000000000000000000000000000000000000000000000000000000000006001600160a01b03168a6001600160a01b03161460405180604001604052806002815260200161383760f01b81525090610b465760405162461bcd60e51b815260040161056c9190611697565b50610b50866111d7565b610b59856111e3565b603d8054603780546001600160a01b038d81166001600160a01b0319909216919091179091558a16610100026001600160a81b031990911660ff8a1617179055610ba1610edf565b6035819055507f00000000000000000000000000000000000000000000000000000000000000006001600160a01b0316896001600160a01b03167f40251fbfb6656cfa65a00d7879029fec1fad21d28fdcff2f4f68f52795b74f2c8a8a8a8a8a8a604051610c1496959493929190611acc565b60405180910390a38015610c2d576001805460ff191690555b50505050505050505050565b60007f00000000000000000000000000000000000000000000000000000000000000006001600160a01b031663707cd7166040518163ffffffff1660e01b8152600401602060405180830381865afa158015610c99573d6000803e3d6000fd5b505050506040513d601f19601f82011682018060405250810190610cbd9190611b43565b604051637be53ca160e01b81523360048201529091506001600160a01b03821690637be53ca190602401602060405180830381865afa158015610d04573d6000803e3d6000fd5b505050506040513d601f19601f82011682018060405250810190610d289190611b60565b604051806040016040528060018152602001603160f81b81525090610d605760405162461bcd60e51b815260040161056c9190611697565b5050603d80546001600160a01b0390921661010002610100600160a81b0319909216919091179055565b604080518082019091526002815261323360f01b6020820152600090337f00000000000000000000000000000000000000000000000000000000000000006001600160a01b031614610def5760405162461bcd60e51b815260040161056c9190611697565b50610dfd84600085856111ef565b610e05610972565b949350505050565b6001600160a01b03166000908152603860205260409020546001600160801b031690565b6001600160a01b0383811660008181526036602090815260408083208786168085529083529281902086905560375490518681529416939192917fda919360433220e13b51e8c211e490d148e61a3bd53de8c097194e458b97f3e1910160405180910390a4505050565b600081156b019d971e4fe8401e740000001983900484111517610ebd57600080fd5b506b033b2e3c9fd0803ce800000091026b019d971e4fe8401e74000000010490565b60007f8b73c3c69bb8fe3d512ecc4cf759cc79239f7b179b0ffacaa9a75d522b39400f610f0a61144d565b805160209182012060408051808201825260018152603160f81b90840152805192830193909352918101919091527fc89efdaa54c0f20c7adf612882df0950f5a951637e0307cdcb4c672f298b8bc660608201524660808201523060a082015260c00160405160208183030381529060405280519060200120905090565b6001600160a01b038084166000908152603660209081526040808320938616835292905290812054610fbb908390611b82565b6001600160a01b03808616600081815260366020908152604080832089861680855292529182902085905560375491519495509216927fda919360433220e13b51e8c211e490d148e61a3bd53de8c097194e458b97f3e1906110209086815260200190565b60405180910390a450505050565b60008061103b8484611457565b6040805180820190915260028152610c8d60f21b6020820152909150816110755760405162461bcd60e51b815260040161056c9190611697565b50600061108186610e0d565b6001600160a01b038716600090815260386020526040812054919250906110b9908390600160801b90046001600160801b0316610e9b565b6110c38387610e9b565b6110cd9190611b82565b90506110d885611496565b6001600160a01b038816600090815260386020526040902080546001600160801b03928316600160801b02921691909117905561111d8761111885611496565b611503565b60006111298288611aa0565b9050876001600160a01b031660006001600160a01b03167fddf252ad1be2c89b69c2b068fc378daa952ba7f163c4a11628f55a4df523b3ef8360405161117191815260200190565b60405180910390a360408051828152602081018490529081018790526001600160a01b03808a1691908b16907f458f5fa412d0f69b08dd84872b0215675cc67bc1d5b6fd93300a1c3878b861969060600160405180910390a35050159695505050505050565b603b610a358282611be4565b603c610a358282611be4565b60006111fb8383611457565b604080518082019091526002815261323560f01b6020820152909150816112355760405162461bcd60e51b815260040161056c9190611697565b50600061124186610e0d565b6001600160a01b03871660009081526038602052604081205491925090611279908390600160801b90046001600160801b0316610e9b565b6112838386610e9b565b61128d9190611b82565b905061129884611496565b6001600160a01b038816600090815260386020526040902080546001600160801b03928316600160801b0292169190911790556112dd876112d885611496565b61160c565b848111156113955760006112f18683611b82565b9050876001600160a01b031660006001600160a01b03167fddf252ad1be2c89b69c2b068fc378daa952ba7f163c4a11628f55a4df523b3ef8360405161133991815260200190565b60405180910390a360408051828152602081018490529081018690526001600160a01b0389169081907f458f5fa412d0f69b08dd84872b0215675cc67bc1d5b6fd93300a1c3878b861969060600160405180910390a350611444565b60006113a18287611b82565b905060006001600160a01b0316886001600160a01b03167fddf252ad1be2c89b69c2b068fc378daa952ba7f163c4a11628f55a4df523b3ef836040516113e991815260200190565b60405180910390a360408051828152602081018490529081018690526001600160a01b0380891691908a16907f4cf25bc1d991c17529c25213d3cc0cda295eeaad5f13f361969b12ea48015f909060600160405180910390a3505b50505050505050565b60606108576104a8565b600081156b033b2e3c9fd0803ce80000006002840419048411171561147b57600080fd5b506b033b2e3c9fd0803ce80000009190910260028204010490565b60006001600160801b038211156114ff5760405162461bcd60e51b815260206004820152602760248201527f53616665436173743a2076616c756520646f65736e27742066697420696e20316044820152663238206269747360c81b606482015260840161056c565b5090565b603a546115196001600160801b03831682611aa0565b603a556001600160a01b0383166000908152603860205260409020546001600160801b03166115488382611ca4565b6001600160a01b03858116600090815260386020526040902080546fffffffffffffffffffffffffffffffff19166001600160801b039390931692909217909155603d546101009004168015611605576040516318c39f1760e11b81526001600160a01b038681166004830152602482018590526001600160801b03841660448301528216906331873e2e90606401600060405180830381600087803b1580156115f157600080fd5b505af11580156107ad573d6000803e3d6000fd5b5050505050565b603a546116226001600160801b03831682611b82565b603a556001600160a01b0383166000908152603860205260409020546001600160801b03166115488382611ccb565b6000815180845260005b818110156116775760208185018101518683018201520161165b565b506000602082860101526020601f19601f83011685010191505092915050565b60208152600061095c6020830184611651565b6001600160a01b03811681146116bf57600080fd5b50565b80356116cd816116aa565b919050565b600080604083850312156116e557600080fd5b82356116f0816116aa565b946020939093013593505050565b60006020828403121561171057600080fd5b813561095c816116aa565b803560ff811681146116cd57600080fd5b600080600080600080600060e0888a03121561174757600080fd5b8735611752816116aa565b96506020880135611762816116aa565b9550604088013594506060880135935061177e6080890161171b565b925060a0880135915060c0880135905092959891949750929550565b6000806000606084860312156117af57600080fd5b83356117ba816116aa565b925060208401356117ca816116aa565b929592945050506040919091013590565b600080604083850312156117ee57600080fd5b82356117f9816116aa565b91506020830135611809816116aa565b809150509250929050565b6000806000806080858703121561182a57600080fd5b8435611835816116aa565b93506020850135611845816116aa565b93969395505050506040820135916060013590565b634e487b7160e01b600052604160045260246000fd5b600082601f83011261188157600080fd5b813567ffffffffffffffff8082111561189c5761189c61185a565b604051601f8301601f19908116603f011681019082821181831017156118c4576118c461185a565b816040528381528660208588010111156118dd57600080fd5b836020870160208301376000602085830101528094505050505092915050565b60008083601f84011261190f57600080fd5b50813567ffffffffffffffff81111561192757600080fd5b60208301915083602082850101111561193f57600080fd5b9250929050565b60008060008060008060008060e0898b03121561196257600080fd5b883561196d816116aa565b9750602089013561197d816116aa565b965061198b60408a016116c2565b955061199960608a0161171b565b9450608089013567ffffffffffffffff808211156119b657600080fd5b6119c28c838d01611870565b955060a08b01359150808211156119d857600080fd5b6119e48c838d01611870565b945060c08b01359150808211156119fa57600080fd5b50611a078b828c016118fd565b999c989b5096995094979396929594505050565b600080600060608486031215611a3057600080fd5b8335611a3b816116aa565b95602085013595506040909401359392505050565b600181811c90821680611a6457607f821691505b602082108103611a8457634e487b7160e01b600052602260045260246000fd5b50919050565b634e487b7160e01b600052601160045260246000fd5b8082018082111561086757610867611a8a565b600060208284031215611ac557600080fd5b5051919050565b6001600160a01b038716815260ff8616602082015260a060408201819052600090611af990830187611651565b8281036060840152611b0b8187611651565b90508281036080840152838152838560208301376000602085830101526020601f19601f860116820101915050979650505050505050565b600060208284031215611b5557600080fd5b815161095c816116aa565b600060208284031215611b7257600080fd5b8151801515811461095c57600080fd5b8181038181111561086757610867611a8a565b601f821115611bdf57600081815260208120601f850160051c81016020861015611bbc5750805b601f850160051c820191505b81811015611bdb57828155600101611bc8565b5050505b505050565b815167ffffffffffffffff811115611bfe57611bfe61185a565b611c1281611c0c8454611a50565b84611b95565b602080601f831160018114611c475760008415611c2f5750858301515b600019600386901b1c1916600185901b178555611bdb565b600085815260208120601f198616915b82811015611c7657888601518255948401946001909101908401611c57565b5085821015611c945787850151600019600388901b60f8161c191681555b5050505050600190811b01905550565b6001600160801b03818116838216019080821115611cc457611cc4611a8a565b5092915050565b6001600160801b03828116828216039080821115611cc457611cc4611a8a56fea264697066735822122065e9100b69494f6c3cd814c4d505e4a706a199633227354b5820367323a5b72564736f6c63430008140033",
  "devdoc": {
    "author": "Aave",
    "details": "Transfer and approve functionalities are disabled since its a non-transferable token",
    "events": {
      "Approval(address,address,uint256)": {
        "details": "Emitted when the allowance of a `spender` for an `owner` is set by a call to {approve}. `value` is the new allowance."
      },
      "BorrowAllowanceDelegated(address,address,address,uint256)": {
        "details": "Emitted on `approveDelegation` and `borrowAllowance",
        "params": {
          "amount": "The amount being delegated",
          "asset": "The address of the delegated asset",
          "fromUser": "The address of the delegator",
          "toUser": "The address of the delegatee"
        }
      },
      "Burn(address,address,uint256,uint256,uint256)": {
        "details": "Emitted after the burn actionIf the burn function does not involve a transfer of the underlying asset, the target defaults to zero address",
        "params": {
          "balanceIncrease": "The increase in scaled-up balance since the last action of 'from'",
          "from": "The address from which the tokens will be burned",
          "index": "The next liquidity index of the reserve",
          "target": "The address that will receive the underlying, if any",
          "value": "The scaled-up amount being burned (user entered amount - balance increase from interest)"
        }
      },
      "Initialized(address,address,address,uint8,string,string,bytes)": {
        "details": "Emitted when a debt token is initialized",
        "params": {
          "debtTokenDecimals": "The decimals of the debt token",
          "debtTokenName": "The name of the debt token",
          "debtTokenSymbol": "The symbol of the debt token",
          "incentivesController": "The address of the incentives controller for this bToken",
          "params": "A set of encoded parameters for additional initialization",
          "pool": "The address of the associated pool",
          "underlyingAsset": "The address of the underlying asset"
        }
      },
      "Mint(address,address,uint256,uint256,uint256)": {
        "details": "Emitted after the mint action",
        "params": {
          "balanceIncrease": "The increase in scaled-up balance since the last action of 'onBehalfOf'",
          "caller": "The address performing the mint",
          "index": "The next liquidity index of the reserve",
          "onBehalfOf": "The address of the user that will receive the minted tokens",
          "value": "The scaled-up amount being minted (based on user entered amount and balance increase from interest)"
        }
      },
      "Transfer(address,address,uint256)": {
        "details": "Emitted when `value` tokens are moved from one account (`from`) to another (`to`). Note that `value` may be zero."
      }
    },
    "kind": "dev",
    "methods": {
      "DOMAIN_SEPARATOR()": {
        "details": "Return cached value if chainId matches cache, otherwise recomputes separator",
        "returns": {
          "_0": "The domain separator of the token at current chain"
        }
      },
      "UNDERLYING_ASSET_ADDRESS()": {
        "returns": {
          "_0": "The address of the underlying asset"
        }
      },
      "approveDelegation(address,uint256)": {
        "params": {
          "amount": "The maximum amount being delegated.",
          "delegatee": "The address receiving the delegated borrowing power"
        }
      },
      "balanceOf(address)": {
        "details": "Returns the amount of tokens owned by `account`."
      },
      "borrowAllowance(address,address)": {
        "params": {
          "fromUser": "The user to giving allowance",
          "toUser": "The user to give allowance to"
        },
        "returns": {
          "_0": "The current allowance of `toUser`"
        }
      },
      "burn(address,uint256,uint256)": {
        "details": "In some instances, a burn transaction will emit a mint event if the amount to burn is less than the interest that the user accrued",
        "params": {
          "amount": "The amount getting burned",
          "from": "The address from which the debt will be burned",
          "index": "The variable debt index of the reserve"
        },
        "returns": {
          "_0": "The scaled total debt of the reserve"
        }
      },
      "constructor": {
        "details": "Constructor.",
        "params": {
          "pool": "The address of the Pool contract"
        }
      },
      "delegationWithSig(address,address,uint256,uint256,uint8,bytes32,bytes32)": {
        "params": {
          "deadline": "The deadline timestamp, type(uint256).max for max deadline",
          "delegatee": "The delegatee that can use the credit",
          "delegator": "The delegator of the credit",
          "r": "The R signature param",
          "s": "The S signature param",
          "v": "The V signature param",
          "value": "The amount to be delegated"
        }
      },
      "getIncentivesController()": {
        "returns": {
          "_0": "The address of the Incentives Controller"
        }
      },
      "getPreviousIndex(address)": {
        "params": {
          "user": "The address of the user"
        },
        "returns": {
          "_0": "The last index interest was accrued to the user's balance, expressed in ray"
        }
      },
      "getScaledUserBalanceAndSupply(address)": {
        "params": {
          "user": "The address of the user"
        },
        "returns": {
          "_0": "The scaled balance of the user",
          "_1": "The scaled total supply"
        }
      },
      "initialize(address,address,address,uint8,string,string,bytes)": {
        "params": {
          "debtTokenDecimals": "The decimals of the debtToken, same as the underlying asset's",
          "debtTokenName": "The name of the token",
          "debtTokenSymbol": "The symbol of the token",
          "incentivesController": "The smart contract managing potential incentives distribution",
          "params": "A set of encoded parameters for additional initialization",
          "pool": "The pool contract that is initializing this contract",
          "underlyingAsset": "The address of the underlying asset of this bToken (E.g. WETH for aWETH)"
        }
      },
      "mint(address,address,uint256,uint256)": {
        "params": {
          "amount": "The amount of debt being minted",
          "index": "The variable debt index of the reserve",
          "onBehalfOf": "The address receiving the debt tokens",
          "user": "The address receiving the borrowed underlying, being the delegatee in case of credit delegate, or same as `onBehalfOf` otherwise"
        },
        "returns": {
          "_0": "True if the previous balance of the user is 0, false otherwise",
          "_1": "The scaled total debt of the reserve"
        }
      },
      "nonces(address)": {
        "params": {
          "owner": "The address for which the nonce is being returned"
        },
        "returns": {
          "_0": "The nonce value for the input address`"
        }
      },
      "scaledBalanceOf(address)": {
        "details": "The scaled balance is the sum of all the updated stored balance divided by the reserve's liquidity index at the moment of the update",
        "params": {
          "user": "The user whose balance is calculated"
        },
        "returns": {
          "_0": "The scaled balance of the user"
        }
      },
      "scaledTotalSupply()": {
        "returns": {
          "_0": "The scaled total supply"
        }
      },
      "setIncentivesController(address)": {
        "params": {
          "controller": "the new Incentives controller"
        }
      },
      "totalSupply()": {
        "details": "Returns the amount of tokens in existence."
      },
      "transfer(address,uint256)": {
        "details": "Being non transferrable, the debt token does not implement any of the standard ERC20 functions for transfer and allowance."
      }
    },
    "title": "VariableDebtToken",
    "version": 1
  },
  "userdoc": {
    "kind": "user",
    "methods": {
      "DOMAIN_SEPARATOR()": {
        "notice": "Get the domain separator for the token"
      },
      "UNDERLYING_ASSET_ADDRESS()": {
        "notice": "Returns the address of the underlying asset of this debtToken (E.g. WETH for variableDebtWETH)"
      },
      "approveDelegation(address,uint256)": {
        "notice": "Delegates borrowing power to a user on the specific debt token. Delegation will still respect the liquidation constraints (even if delegated, a delegatee cannot force a delegator HF to go below 1)"
      },
      "borrowAllowance(address,address)": {
        "notice": "Returns the borrow allowance of the user"
      },
      "burn(address,uint256,uint256)": {
        "notice": "Burns user variable debt"
      },
      "delegationWithSig(address,address,uint256,uint256,uint8,bytes32,bytes32)": {
        "notice": "Delegates borrowing power to a user on the specific debt token via ERC712 signature"
      },
      "getIncentivesController()": {
        "notice": "Returns the address of the Incentives Controller contract"
      },
      "getPreviousIndex(address)": {
        "notice": "Returns last index interest was accrued to the user's balance"
      },
      "getScaledUserBalanceAndSupply(address)": {
        "notice": "Returns the scaled balance of the user and the scaled total supply."
      },
      "initialize(address,address,address,uint8,string,string,bytes)": {
        "notice": "Initializes the debt token."
      },
      "mint(address,address,uint256,uint256)": {
        "notice": "Mints debt token to the `onBehalfOf` address"
      },
      "nonces(address)": {
        "notice": "Returns the nonce value for address specified as parameter"
      },
      "scaledBalanceOf(address)": {
        "notice": "Returns the scaled balance of the user."
      },
      "scaledTotalSupply()": {
        "notice": "Returns the scaled total supply of the scaled balance token. Represents sum(debt/index)"
      },
      "setIncentivesController(address)": {
        "notice": "Sets a new Incentives Controller"
      }
    },
    "notice": "Implements a variable debt token to track the borrowing positions of users at variable rate mode",
    "version": 1
  },
  "storageLayout": {
    "storage": [
      {
        "astId": 36854,
        "contract": "contracts/protocol/tokenization/VariableDebtToken.sol:VariableDebtToken",
        "label": "lastInitializedRevision",
        "offset": 0,
        "slot": "0",
        "type": "t_uint256"
      },
      {
        "astId": 36857,
        "contract": "contracts/protocol/tokenization/VariableDebtToken.sol:VariableDebtToken",
        "label": "initializing",
        "offset": 0,
        "slot": "1",
        "type": "t_bool"
      },
      {
        "astId": 36927,
        "contract": "contracts/protocol/tokenization/VariableDebtToken.sol:VariableDebtToken",
        "label": "______gap",
        "offset": 0,
        "slot": "2",
        "type": "t_array(t_uint256)50_storage"
      },
      {
        "astId": 43392,
        "contract": "contracts/protocol/tokenization/VariableDebtToken.sol:VariableDebtToken",
        "label": "_nonces",
        "offset": 0,
        "slot": "52",
        "type": "t_mapping(t_address,t_uint256)"
      },
      {
        "astId": 43394,
        "contract": "contracts/protocol/tokenization/VariableDebtToken.sol:VariableDebtToken",
        "label": "_domainSeparator",
        "offset": 0,
        "slot": "53",
        "type": "t_bytes32"
      },
      {
        "astId": 43169,
        "contract": "contracts/protocol/tokenization/VariableDebtToken.sol:VariableDebtToken",
        "label": "_borrowAllowances",
        "offset": 0,
        "slot": "54",
        "type": "t_mapping(t_address,t_mapping(t_address,t_uint256))"
      },
      {
        "astId": 43176,
        "contract": "contracts/protocol/tokenization/VariableDebtToken.sol:VariableDebtToken",
        "label": "_underlyingAsset",
        "offset": 0,
        "slot": "55",
        "type": "t_address"
      },
      {
        "astId": 43559,
        "contract": "contracts/protocol/tokenization/VariableDebtToken.sol:VariableDebtToken",
        "label": "_userState",
        "offset": 0,
        "slot": "56",
        "type": "t_mapping(t_address,t_struct(UserState)43554_storage)"
      },
      {
        "astId": 43565,
        "contract": "contracts/protocol/tokenization/VariableDebtToken.sol:VariableDebtToken",
        "label": "_allowances",
        "offset": 0,
        "slot": "57",
        "type": "t_mapping(t_address,t_mapping(t_address,t_uint256))"
      },
      {
        "astId": 43567,
        "contract": "contracts/protocol/tokenization/VariableDebtToken.sol:VariableDebtToken",
        "label": "_totalSupply",
        "offset": 0,
        "slot": "58",
        "type": "t_uint256"
      },
      {
        "astId": 43569,
        "contract": "contracts/protocol/tokenization/VariableDebtToken.sol:VariableDebtToken",
        "label": "_name",
        "offset": 0,
        "slot": "59",
        "type": "t_string_storage"
      },
      {
        "astId": 43571,
        "contract": "contracts/protocol/tokenization/VariableDebtToken.sol:VariableDebtToken",
        "label": "_symbol",
        "offset": 0,
        "slot": "60",
        "type": "t_string_storage"
      },
      {
        "astId": 43573,
        "contract": "contracts/protocol/tokenization/VariableDebtToken.sol:VariableDebtToken",
        "label": "_decimals",
        "offset": 0,
        "slot": "61",
        "type": "t_uint8"
      },
      {
        "astId": 43576,
        "contract": "contracts/protocol/tokenization/VariableDebtToken.sol:VariableDebtToken",
        "label": "_incentivesController",
        "offset": 1,
        "slot": "61",
        "type": "t_contract(IIncentivesController)4176"
      }
    ],
    "types": {
      "t_address": {
        "encoding": "inplace",
        "label": "address",
        "numberOfBytes": "20"
      },
      "t_array(t_uint256)50_storage": {
        "base": "t_uint256",
        "encoding": "inplace",
        "label": "uint256[50]",
        "numberOfBytes": "1600"
      },
      "t_bool": {
        "encoding": "inplace",
        "label": "bool",
        "numberOfBytes": "1"
      },
      "t_bytes32": {
        "encoding": "inplace",
        "label": "bytes32",
        "numberOfBytes": "32"
      },
      "t_contract(IIncentivesController)4176": {
        "encoding": "inplace",
        "label": "contract IIncentivesController",
        "numberOfBytes": "20"
      },
      "t_mapping(t_address,t_mapping(t_address,t_uint256))": {
        "encoding": "mapping",
        "key": "t_address",
        "label": "mapping(address => mapping(address => uint256))",
        "numberOfBytes": "32",
        "value": "t_mapping(t_address,t_uint256)"
      },
      "t_mapping(t_address,t_struct(UserState)43554_storage)": {
        "encoding": "mapping",
        "key": "t_address",
        "label": "mapping(address => struct IncentivizedERC20.UserState)",
        "numberOfBytes": "32",
        "value": "t_struct(UserState)43554_storage"
      },
      "t_mapping(t_address,t_uint256)": {
        "encoding": "mapping",
        "key": "t_address",
        "label": "mapping(address => uint256)",
        "numberOfBytes": "32",
        "value": "t_uint256"
      },
      "t_string_storage": {
        "encoding": "bytes",
        "label": "string",
        "numberOfBytes": "32"
      },
      "t_struct(UserState)43554_storage": {
        "encoding": "inplace",
        "label": "struct IncentivizedERC20.UserState",
        "members": [
          {
            "astId": 43551,
            "contract": "contracts/protocol/tokenization/VariableDebtToken.sol:VariableDebtToken",
            "label": "balance",
            "offset": 0,
            "slot": "0",
            "type": "t_uint128"
          },
          {
            "astId": 43553,
            "contract": "contracts/protocol/tokenization/VariableDebtToken.sol:VariableDebtToken",
            "label": "additionalData",
            "offset": 16,
            "slot": "0",
            "type": "t_uint128"
          }
        ],
        "numberOfBytes": "32"
      },
      "t_uint128": {
        "encoding": "inplace",
        "label": "uint128",
        "numberOfBytes": "16"
      },
      "t_uint256": {
        "encoding": "inplace",
        "label": "uint256",
        "numberOfBytes": "32"
      },
      "t_uint8": {
        "encoding": "inplace",
        "label": "uint8",
        "numberOfBytes": "1"
      }
    }
  }
}